{
  "_format": "hh-sol-artifact-1",
  "contractName": "WebaverseERC721",
  "sourceName": "contracts/main/WebaversERC721.sol",
  "abi": [
    {
      "inputs": [],
      "stateMutability": "nonpayable",
      "type": "constructor"
    },
    {
      "anonymous": false,
      "inputs": [
        {
          "indexed": true,
          "internalType": "address",
          "name": "owner",
          "type": "address"
        },
        {
          "indexed": true,
          "internalType": "address",
          "name": "approved",
          "type": "address"
        },
        {
          "indexed": true,
          "internalType": "uint256",
          "name": "tokenId",
          "type": "uint256"
        }
      ],
      "name": "Approval",
      "type": "event"
    },
    {
      "anonymous": false,
      "inputs": [
        {
          "indexed": true,
          "internalType": "address",
          "name": "owner",
          "type": "address"
        },
        {
          "indexed": true,
          "internalType": "address",
          "name": "operator",
          "type": "address"
        },
        {
          "indexed": false,
          "internalType": "bool",
          "name": "approved",
          "type": "bool"
        }
      ],
      "name": "ApprovalForAll",
      "type": "event"
    },
    {
      "anonymous": false,
      "inputs": [
        {
          "indexed": true,
          "internalType": "address",
          "name": "previousOwner",
          "type": "address"
        },
        {
          "indexed": true,
          "internalType": "address",
          "name": "newOwner",
          "type": "address"
        }
      ],
      "name": "OwnershipTransferred",
      "type": "event"
    },
    {
      "anonymous": false,
      "inputs": [
        {
          "indexed": true,
          "internalType": "address",
          "name": "from",
          "type": "address"
        },
        {
          "indexed": true,
          "internalType": "address",
          "name": "to",
          "type": "address"
        },
        {
          "indexed": true,
          "internalType": "uint256",
          "name": "tokenId",
          "type": "uint256"
        }
      ],
      "name": "Transfer",
      "type": "event"
    },
    {
      "inputs": [
        {
          "internalType": "address",
          "name": "to",
          "type": "address"
        },
        {
          "internalType": "uint256",
          "name": "tokenId",
          "type": "uint256"
        }
      ],
      "name": "approve",
      "outputs": [],
      "stateMutability": "nonpayable",
      "type": "function"
    },
    {
      "inputs": [
        {
          "internalType": "address",
          "name": "owner",
          "type": "address"
        }
      ],
      "name": "balanceOf",
      "outputs": [
        {
          "internalType": "uint256",
          "name": "",
          "type": "uint256"
        }
      ],
      "stateMutability": "view",
      "type": "function"
    },
    {
      "inputs": [
        {
          "internalType": "uint256",
          "name": "",
          "type": "uint256"
        }
      ],
      "name": "burnedNonces",
      "outputs": [
        {
          "internalType": "bool",
          "name": "",
          "type": "bool"
        }
      ],
      "stateMutability": "view",
      "type": "function"
    },
    {
      "inputs": [
        {
          "internalType": "address",
          "name": "claimer",
          "type": "address"
        },
        {
          "components": [
            {
              "internalType": "uint256",
              "name": "tokenId",
              "type": "uint256"
            },
            {
              "internalType": "uint256",
              "name": "balance",
              "type": "uint256"
            },
            {
              "internalType": "uint256",
              "name": "nonce",
              "type": "uint256"
            },
            {
              "internalType": "uint256",
              "name": "expiry",
              "type": "uint256"
            },
            {
              "internalType": "bytes",
              "name": "signature",
              "type": "bytes"
            }
          ],
          "internalType": "struct WBVRSVoucher.NFTVoucher",
          "name": "voucher",
          "type": "tuple"
        }
      ],
      "name": "claim",
      "outputs": [
        {
          "internalType": "uint256",
          "name": "",
          "type": "uint256"
        }
      ],
      "stateMutability": "nonpayable",
      "type": "function"
    },
    {
      "inputs": [
        {
          "internalType": "address",
          "name": "claimer",
          "type": "address"
        },
        {
          "internalType": "address",
          "name": "contractAddress",
          "type": "address"
        },
        {
          "components": [
            {
              "internalType": "uint256",
              "name": "tokenId",
              "type": "uint256"
            },
            {
              "internalType": "uint256",
              "name": "balance",
              "type": "uint256"
            },
            {
              "internalType": "uint256",
              "name": "nonce",
              "type": "uint256"
            },
            {
              "internalType": "uint256",
              "name": "expiry",
              "type": "uint256"
            },
            {
              "internalType": "bytes",
              "name": "signature",
              "type": "bytes"
            }
          ],
          "internalType": "struct WBVRSVoucher.NFTVoucher",
          "name": "voucher",
          "type": "tuple"
        }
      ],
      "name": "externalClaim",
      "outputs": [
        {
          "internalType": "uint256",
          "name": "",
          "type": "uint256"
        }
      ],
      "stateMutability": "nonpayable",
      "type": "function"
    },
    {
      "inputs": [
        {
          "internalType": "uint256",
          "name": "tokenId",
          "type": "uint256"
        }
      ],
      "name": "getApproved",
      "outputs": [
        {
          "internalType": "address",
          "name": "",
          "type": "address"
        }
      ],
      "stateMutability": "view",
      "type": "function"
    },
    {
      "inputs": [],
      "name": "getChainID",
      "outputs": [
        {
          "internalType": "uint256",
          "name": "",
          "type": "uint256"
        }
      ],
      "stateMutability": "view",
      "type": "function"
    },
    {
      "inputs": [
        {
          "internalType": "address",
          "name": "owner",
          "type": "address"
        },
        {
          "internalType": "address",
          "name": "operator",
          "type": "address"
        }
      ],
      "name": "isApprovedForAll",
      "outputs": [
        {
          "internalType": "bool",
          "name": "",
          "type": "bool"
        }
      ],
      "stateMutability": "view",
      "type": "function"
    },
    {
      "inputs": [
        {
          "internalType": "address",
          "name": "account",
          "type": "address"
        },
        {
          "internalType": "uint256",
          "name": "tokenId",
          "type": "uint256"
        },
        {
          "internalType": "string",
          "name": "uri",
          "type": "string"
        }
      ],
      "name": "mint",
      "outputs": [],
      "stateMutability": "nonpayable",
      "type": "function"
    },
    {
      "inputs": [],
      "name": "name",
      "outputs": [
        {
          "internalType": "string",
          "name": "",
          "type": "string"
        }
      ],
      "stateMutability": "view",
      "type": "function"
    },
    {
      "inputs": [],
      "name": "owner",
      "outputs": [
        {
          "internalType": "address",
          "name": "",
          "type": "address"
        }
      ],
      "stateMutability": "view",
      "type": "function"
    },
    {
      "inputs": [
        {
          "internalType": "uint256",
          "name": "tokenId",
          "type": "uint256"
        }
      ],
      "name": "ownerOf",
      "outputs": [
        {
          "internalType": "address",
          "name": "",
          "type": "address"
        }
      ],
      "stateMutability": "view",
      "type": "function"
    },
    {
      "inputs": [],
      "name": "renounceOwnership",
      "outputs": [],
      "stateMutability": "nonpayable",
      "type": "function"
    },
    {
      "inputs": [
        {
          "internalType": "address",
          "name": "from",
          "type": "address"
        },
        {
          "internalType": "address",
          "name": "to",
          "type": "address"
        },
        {
          "internalType": "uint256",
          "name": "tokenId",
          "type": "uint256"
        }
      ],
      "name": "safeTransferFrom",
      "outputs": [],
      "stateMutability": "nonpayable",
      "type": "function"
    },
    {
      "inputs": [
        {
          "internalType": "address",
          "name": "from",
          "type": "address"
        },
        {
          "internalType": "address",
          "name": "to",
          "type": "address"
        },
        {
          "internalType": "uint256",
          "name": "tokenId",
          "type": "uint256"
        },
        {
          "internalType": "bytes",
          "name": "_data",
          "type": "bytes"
        }
      ],
      "name": "safeTransferFrom",
      "outputs": [],
      "stateMutability": "nonpayable",
      "type": "function"
    },
    {
      "inputs": [
        {
          "internalType": "address",
          "name": "operator",
          "type": "address"
        },
        {
          "internalType": "bool",
          "name": "approved",
          "type": "bool"
        }
      ],
      "name": "setApprovalForAll",
      "outputs": [],
      "stateMutability": "nonpayable",
      "type": "function"
    },
    {
      "inputs": [
        {
          "internalType": "bytes4",
          "name": "interfaceId",
          "type": "bytes4"
        }
      ],
      "name": "supportsInterface",
      "outputs": [
        {
          "internalType": "bool",
          "name": "",
          "type": "bool"
        }
      ],
      "stateMutability": "view",
      "type": "function"
    },
    {
      "inputs": [],
      "name": "symbol",
      "outputs": [
        {
          "internalType": "string",
          "name": "",
          "type": "string"
        }
      ],
      "stateMutability": "view",
      "type": "function"
    },
    {
      "inputs": [
        {
          "internalType": "uint256",
          "name": "tokenId",
          "type": "uint256"
        }
      ],
      "name": "tokenURI",
      "outputs": [
        {
          "internalType": "string",
          "name": "",
          "type": "string"
        }
      ],
      "stateMutability": "view",
      "type": "function"
    },
    {
      "inputs": [
        {
          "internalType": "address",
          "name": "from",
          "type": "address"
        },
        {
          "internalType": "address",
          "name": "to",
          "type": "address"
        },
        {
          "internalType": "uint256",
          "name": "tokenId",
          "type": "uint256"
        }
      ],
      "name": "transferFrom",
      "outputs": [],
      "stateMutability": "nonpayable",
      "type": "function"
    },
    {
      "inputs": [
        {
          "internalType": "address",
          "name": "newOwner",
          "type": "address"
        }
      ],
      "name": "transferOwnership",
      "outputs": [],
      "stateMutability": "nonpayable",
      "type": "function"
    },
    {
      "inputs": [
        {
          "components": [
            {
              "internalType": "uint256",
              "name": "tokenId",
              "type": "uint256"
            },
            {
              "internalType": "uint256",
              "name": "balance",
              "type": "uint256"
            },
            {
              "internalType": "uint256",
              "name": "nonce",
              "type": "uint256"
            },
            {
              "internalType": "uint256",
              "name": "expiry",
              "type": "uint256"
            },
            {
              "internalType": "bytes",
              "name": "signature",
              "type": "bytes"
            }
          ],
          "internalType": "struct WBVRSVoucher.NFTVoucher",
          "name": "voucher",
          "type": "tuple"
        }
      ],
      "name": "verifyVoucher",
      "outputs": [
        {
          "internalType": "address",
          "name": "",
          "type": "address"
        }
      ],
      "stateMutability": "nonpayable",
      "type": "function"
    }
  ],
  "bytecode": "0x6101206040523480156200001257600080fd5b506040518060400160405280600c81526020017f5765626176657273654e465400000000000000000000000000000000000000008152506040518060400160405280600581526020017f57425652530000000000000000000000000000000000000000000000000000008152506040518060400160405280601181526020017f5765626176657273652d766f75636865720000000000000000000000000000008152506040518060400160405280600181526020017f310000000000000000000000000000000000000000000000000000000000000081525060008280519060200120905060008280519060200120905060007f8b73c3c69bb8fe3d512ecc4cf759cc79239f7b179b0ffacaa9a75d522b39400f90508260c081815250508160e081815250504660a0818152505062000153818484620001c260201b60201c565b608081815250508061010081815250505050505050816001908051906020019062000180929190620002cc565b50806002908051906020019062000199929190620002cc565b505050620001bc620001b0620001fe60201b60201c565b6200020660201b60201c565b620004b9565b60008383834630604051602001620001df959493929190620003af565b6040516020818303038152906040528051906020012090509392505050565b600033905090565b6000600760009054906101000a900473ffffffffffffffffffffffffffffffffffffffff16905081600760006101000a81548173ffffffffffffffffffffffffffffffffffffffff021916908373ffffffffffffffffffffffffffffffffffffffff1602179055508173ffffffffffffffffffffffffffffffffffffffff168173ffffffffffffffffffffffffffffffffffffffff167f8be0079c531659141344cd1fd0a4f28419497f9722a3daafe3b4186f6b6457e060405160405180910390a35050565b828054620002da9062000454565b90600052602060002090601f016020900481019282620002fe57600085556200034a565b82601f106200031957805160ff19168380011785556200034a565b828001600101855582156200034a579182015b82811115620003495782518255916020019190600101906200032c565b5b5090506200035991906200035d565b5090565b5b80821115620003785760008160009055506001016200035e565b5090565b62000387816200040c565b82525050565b620003988162000420565b82525050565b620003a9816200044a565b82525050565b600060a082019050620003c660008301886200038d565b620003d560208301876200038d565b620003e460408301866200038d565b620003f360608301856200039e565b6200040260808301846200037c565b9695505050505050565b600062000419826200042a565b9050919050565b6000819050919050565b600073ffffffffffffffffffffffffffffffffffffffff82169050919050565b6000819050919050565b600060028204905060018216806200046d57607f821691505b602082108114156200048457620004836200048a565b5b50919050565b7f4e487b7100000000000000000000000000000000000000000000000000000000600052602260045260246000fd5b60805160a05160c05160e05161010051614008620004fe60003960006123d401526000612416015260006123f501526000612381015260006123a901526140086000f3fe608060405234801561001057600080fd5b50600436106101425760003560e01c80638da5cb5b116100b8578063ad637e671161007c578063ad637e6714610389578063b88d4fde146103b9578063c87b56dd146103d5578063d3fc986414610405578063e985e9c514610421578063f2fde38b1461045157610142565b80638da5cb5b146102d15780639468f2ca146102ef57806395d89b411461031f578063a22cb4651461033d578063a8689ce21461035957610142565b806342842e0e1161010a57806342842e0e146101fd578063564b81ef146102195780636352211e1461023757806370a0823114610267578063715018a6146102975780637e2499cc146102a157610142565b806301ffc9a71461014757806306fdde0314610177578063081812fc14610195578063095ea7b3146101c557806323b872dd146101e1575b600080fd5b610161600480360381019061015c9190612b06565b61046d565b60405161016e9190613757565b60405180910390f35b61017f61047f565b60405161018c919061385d565b60405180910390f35b6101af60048036038101906101aa9190612b99565b610511565b6040516101bc91906136b9565b60405180910390f35b6101df60048036038101906101da9190612a63565b610596565b005b6101fb60048036038101906101f69190612909565b6106ae565b005b61021760048036038101906102129190612909565b61070e565b005b61022161072e565b60405161022e9190613bff565b60405180910390f35b610251600480360381019061024c9190612b99565b61073b565b60405161025e91906136b9565b60405180910390f35b610281600480360381019061027c9190612814565b6107ed565b60405161028e9190613bff565b60405180910390f35b61029f6108a5565b005b6102bb60048036038101906102b69190612b99565b61092d565b6040516102c89190613757565b60405180910390f35b6102d961094d565b6040516102e691906136b9565b60405180910390f35b61030960048036038101906103049190612a0f565b610977565b6040516103169190613bff565b60405180910390f35b610327610a2a565b604051610334919061385d565b60405180910390f35b610357600480360381019061035291906129d3565b610abc565b005b610373600480360381019061036e91906128a2565b610c3d565b6040516103809190613bff565b60405180910390f35b6103a3600480360381019061039e9190612b58565b610ec7565b6040516103b091906136b9565b60405180910390f35b6103d360048036038101906103ce9190612958565b610fbf565b005b6103ef60048036038101906103ea9190612b99565b611021565b6040516103fc919061385d565b60405180910390f35b61041f600480360381019061041a9190612a9f565b611170565b005b61043b60048036038101906104369190612866565b6111d2565b6040516104489190613757565b60405180910390f35b61046b60048036038101906104669190612814565b611266565b005b60006104788261135e565b9050919050565b60606001805461048e90613e9c565b80601f01602080910402602001604051908101604052809291908181526020018280546104ba90613e9c565b80156105075780601f106104dc57610100808354040283529160200191610507565b820191906000526020600020905b8154815290600101906020018083116104ea57829003601f168201915b5050505050905090565b600061051c82611440565b61055b576040517f08c379a000000000000000000000000000000000000000000000000000000000815260040161055290613b1f565b60405180910390fd5b6005600083815260200190815260200160002060009054906101000a900473ffffffffffffffffffffffffffffffffffffffff169050919050565b60006105a18261073b565b90508073ffffffffffffffffffffffffffffffffffffffff168373ffffffffffffffffffffffffffffffffffffffff161415610612576040517f08c379a000000000000000000000000000000000000000000000000000000000815260040161060990613b9f565b60405180910390fd5b8073ffffffffffffffffffffffffffffffffffffffff166106316114ac565b73ffffffffffffffffffffffffffffffffffffffff161480610660575061065f8161065a6114ac565b6111d2565b5b61069f576040517f08c379a000000000000000000000000000000000000000000000000000000000815260040161069690613a5f565b60405180910390fd5b6106a983836114b4565b505050565b6106bf6106b96114ac565b8261156d565b6106fe576040517f08c379a00000000000000000000000000000000000000000000000000000000081526004016106f590613bdf565b60405180910390fd5b61070983838361164b565b505050565b61072983838360405180602001604052806000815250610fbf565b505050565b6000804690508091505090565b6000806003600084815260200190815260200160002060009054906101000a900473ffffffffffffffffffffffffffffffffffffffff169050600073ffffffffffffffffffffffffffffffffffffffff168173ffffffffffffffffffffffffffffffffffffffff1614156107e4576040517f08c379a00000000000000000000000000000000000000000000000000000000081526004016107db90613abf565b60405180910390fd5b80915050919050565b60008073ffffffffffffffffffffffffffffffffffffffff168273ffffffffffffffffffffffffffffffffffffffff16141561085e576040517f08c379a000000000000000000000000000000000000000000000000000000000815260040161085590613a9f565b60405180910390fd5b600460008373ffffffffffffffffffffffffffffffffffffffff1673ffffffffffffffffffffffffffffffffffffffff168152602001908152602001600020549050919050565b6108ad6114ac565b73ffffffffffffffffffffffffffffffffffffffff166108cb61094d565b73ffffffffffffffffffffffffffffffffffffffff1614610921576040517f08c379a000000000000000000000000000000000000000000000000000000000815260040161091890613b3f565b60405180910390fd5b61092b60006118a7565b565b60006020528060005260406000206000915054906101000a900460ff1681565b6000600760009054906101000a900473ffffffffffffffffffffffffffffffffffffffff16905090565b60008061098383610ec7565b9050610992836000013561073b565b73ffffffffffffffffffffffffffffffffffffffff168173ffffffffffffffffffffffffffffffffffffffff16146109ff576040517f08c379a00000000000000000000000000000000000000000000000000000000081526004016109f690613bbf565b60405180910390fd5b610a0d3084600001356114b4565b610a1c8185856000013561164b565b826000013591505092915050565b606060028054610a3990613e9c565b80601f0160208091040260200160405190810160405280929190818152602001828054610a6590613e9c565b8015610ab25780601f10610a8757610100808354040283529160200191610ab2565b820191906000526020600020905b815481529060010190602001808311610a9557829003601f168201915b5050505050905090565b610ac46114ac565b73ffffffffffffffffffffffffffffffffffffffff168273ffffffffffffffffffffffffffffffffffffffff161415610b32576040517f08c379a0000000000000000000000000000000000000000000000000000000008152600401610b299061399f565b60405180910390fd5b8060066000610b3f6114ac565b73ffffffffffffffffffffffffffffffffffffffff1673ffffffffffffffffffffffffffffffffffffffff16815260200190815260200160002060008473ffffffffffffffffffffffffffffffffffffffff1673ffffffffffffffffffffffffffffffffffffffff16815260200190815260200160002060006101000a81548160ff0219169083151502179055508173ffffffffffffffffffffffffffffffffffffffff16610bec6114ac565b73ffffffffffffffffffffffffffffffffffffffff167f17307eab39ab6107e8899845ad3d59bd9653f200f220920489ca2b5937696c3183604051610c319190613757565b60405180910390a35050565b6000808390506000610c4e84610ec7565b90508173ffffffffffffffffffffffffffffffffffffffff16636352211e85600001356040518263ffffffff1660e01b8152600401610c8d9190613bff565b60206040518083038186803b158015610ca557600080fd5b505afa158015610cb9573d6000803e3d6000fd5b505050506040513d601f19601f82011682018060405250810190610cdd919061283d565b73ffffffffffffffffffffffffffffffffffffffff168173ffffffffffffffffffffffffffffffffffffffff1614610d4a576040517f08c379a0000000000000000000000000000000000000000000000000000000008152600401610d4190613bbf565b60405180910390fd5b3073ffffffffffffffffffffffffffffffffffffffff168273ffffffffffffffffffffffffffffffffffffffff1663081812fc86600001356040518263ffffffff1660e01b8152600401610d9e9190613bff565b60206040518083038186803b158015610db657600080fd5b505afa158015610dca573d6000803e3d6000fd5b505050506040513d601f19601f82011682018060405250810190610dee919061283d565b73ffffffffffffffffffffffffffffffffffffffff1614610e44576040517f08c379a0000000000000000000000000000000000000000000000000000000008152600401610e3b90613b7f565b60405180910390fd5b8173ffffffffffffffffffffffffffffffffffffffff166323b872dd828887600001356040518463ffffffff1660e01b8152600401610e85939291906136d4565b600060405180830381600087803b158015610e9f57600080fd5b505af1158015610eb3573d6000803e3d6000fd5b505050508360000135925050509392505050565b60008160600135421115610f10576040517f08c379a0000000000000000000000000000000000000000000000000000000008152600401610f07906138ff565b60405180910390fd5b600015156000808460400135815260200190815260200160002060009054906101000a900460ff16151514610f7a576040517f08c379a0000000000000000000000000000000000000000000000000000000008152600401610f7190613a3f565b60405180910390fd5b60016000808460400135815260200190815260200160002060006101000a81548160ff0219169083151502179055506000610fb48361196d565b905080915050919050565b610fd0610fca6114ac565b8361156d565b61100f576040517f08c379a000000000000000000000000000000000000000000000000000000000815260040161100690613bdf565b60405180910390fd5b61101b848484846119df565b50505050565b606061102c82611440565b61106b576040517f08c379a0000000000000000000000000000000000000000000000000000000008152600401611062906138bf565b60405180910390fd5b600060086000848152602001908152602001600020805461108b90613e9c565b9050116110cd576040517f08c379a00000000000000000000000000000000000000000000000000000000081526004016110c4906139bf565b60405180910390fd5b6008600083815260200190815260200160002080546110eb90613e9c565b80601f016020809104026020016040519081016040528092919081815260200182805461111790613e9c565b80156111645780601f1061113957610100808354040283529160200191611164565b820191906000526020600020905b81548152906001019060200180831161114757829003601f168201915b50505050509050919050565b61117982611440565b156111b9576040517f08c379a00000000000000000000000000000000000000000000000000000000081526004016111b090613a7f565b60405180910390fd5b6111c38383611a3b565b6111cd8282611c09565b505050565b6000600660008473ffffffffffffffffffffffffffffffffffffffff1673ffffffffffffffffffffffffffffffffffffffff16815260200190815260200160002060008373ffffffffffffffffffffffffffffffffffffffff1673ffffffffffffffffffffffffffffffffffffffff16815260200190815260200160002060009054906101000a900460ff16905092915050565b61126e6114ac565b73ffffffffffffffffffffffffffffffffffffffff1661128c61094d565b73ffffffffffffffffffffffffffffffffffffffff16146112e2576040517f08c379a00000000000000000000000000000000000000000000000000000000081526004016112d990613b3f565b60405180910390fd5b600073ffffffffffffffffffffffffffffffffffffffff168173ffffffffffffffffffffffffffffffffffffffff161415611352576040517f08c379a00000000000000000000000000000000000000000000000000000000081526004016113499061391f565b60405180910390fd5b61135b816118a7565b50565b60007f80ac58cd000000000000000000000000000000000000000000000000000000007bffffffffffffffffffffffffffffffffffffffffffffffffffffffff1916827bffffffffffffffffffffffffffffffffffffffffffffffffffffffff1916148061142957507f5b5e139f000000000000000000000000000000000000000000000000000000007bffffffffffffffffffffffffffffffffffffffffffffffffffffffff1916827bffffffffffffffffffffffffffffffffffffffffffffffffffffffff1916145b80611439575061143882611cdf565b5b9050919050565b60008073ffffffffffffffffffffffffffffffffffffffff166003600084815260200190815260200160002060009054906101000a900473ffffffffffffffffffffffffffffffffffffffff1673ffffffffffffffffffffffffffffffffffffffff1614159050919050565b600033905090565b816005600083815260200190815260200160002060006101000a81548173ffffffffffffffffffffffffffffffffffffffff021916908373ffffffffffffffffffffffffffffffffffffffff160217905550808273ffffffffffffffffffffffffffffffffffffffff166115278361073b565b73ffffffffffffffffffffffffffffffffffffffff167f8c5be1e5ebec7d5bd14f71427d1e84f3dd0314c0f7b2291e5b200ac8c7c3b92560405160405180910390a45050565b600061157882611440565b6115b7576040517f08c379a00000000000000000000000000000000000000000000000000000000081526004016115ae906139ff565b60405180910390fd5b60006115c28361073b565b90508073ffffffffffffffffffffffffffffffffffffffff168473ffffffffffffffffffffffffffffffffffffffff16148061163157508373ffffffffffffffffffffffffffffffffffffffff1661161984610511565b73ffffffffffffffffffffffffffffffffffffffff16145b80611642575061164181856111d2565b5b91505092915050565b8273ffffffffffffffffffffffffffffffffffffffff1661166b8261073b565b73ffffffffffffffffffffffffffffffffffffffff16146116c1576040517f08c379a00000000000000000000000000000000000000000000000000000000081526004016116b890613b5f565b60405180910390fd5b600073ffffffffffffffffffffffffffffffffffffffff168273ffffffffffffffffffffffffffffffffffffffff161415611731576040517f08c379a00000000000000000000000000000000000000000000000000000000081526004016117289061397f565b60405180910390fd5b61173c838383611d49565b6117476000826114b4565b6001600460008573ffffffffffffffffffffffffffffffffffffffff1673ffffffffffffffffffffffffffffffffffffffff16815260200190815260200160002060008282546117979190613d9b565b925050819055506001600460008473ffffffffffffffffffffffffffffffffffffffff1673ffffffffffffffffffffffffffffffffffffffff16815260200190815260200160002060008282546117ee9190613d45565b92505081905550816003600083815260200190815260200160002060006101000a81548173ffffffffffffffffffffffffffffffffffffffff021916908373ffffffffffffffffffffffffffffffffffffffff160217905550808273ffffffffffffffffffffffffffffffffffffffff168473ffffffffffffffffffffffffffffffffffffffff167fddf252ad1be2c89b69c2b068fc378daa952ba7f163c4a11628f55a4df523b3ef60405160405180910390a4505050565b6000600760009054906101000a900473ffffffffffffffffffffffffffffffffffffffff16905081600760006101000a81548173ffffffffffffffffffffffffffffffffffffffff021916908373ffffffffffffffffffffffffffffffffffffffff1602179055508173ffffffffffffffffffffffffffffffffffffffff168173ffffffffffffffffffffffffffffffffffffffff167f8be0079c531659141344cd1fd0a4f28419497f9722a3daafe3b4186f6b6457e060405160405180910390a35050565b60008061197983611d4e565b90506119d78184806080019061198f9190613c1a565b8080601f016020809104026020016040519081016040528093929190818152602001838380828437600081840152601f19601f82011690508083019250505050505050611dbe565b915050919050565b6119ea84848461164b565b6119f684848484611de5565b611a35576040517f08c379a0000000000000000000000000000000000000000000000000000000008152600401611a2c906138df565b60405180910390fd5b50505050565b600073ffffffffffffffffffffffffffffffffffffffff168273ffffffffffffffffffffffffffffffffffffffff161415611aab576040517f08c379a0000000000000000000000000000000000000000000000000000000008152600401611aa290613aff565b60405180910390fd5b611ab481611440565b15611af4576040517f08c379a0000000000000000000000000000000000000000000000000000000008152600401611aeb9061393f565b60405180910390fd5b611b0060008383611d49565b6001600460008473ffffffffffffffffffffffffffffffffffffffff1673ffffffffffffffffffffffffffffffffffffffff1681526020019081526020016000206000828254611b509190613d45565b92505081905550816003600083815260200190815260200160002060006101000a81548173ffffffffffffffffffffffffffffffffffffffff021916908373ffffffffffffffffffffffffffffffffffffffff160217905550808273ffffffffffffffffffffffffffffffffffffffff16600073ffffffffffffffffffffffffffffffffffffffff167fddf252ad1be2c89b69c2b068fc378daa952ba7f163c4a11628f55a4df523b3ef60405160405180910390a45050565b611c1282611440565b611c51576040517f08c379a0000000000000000000000000000000000000000000000000000000008152600401611c489061395f565b60405180910390fd5b6000600860008481526020019081526020016000208054611c7190613e9c565b905014611cb3576040517f08c379a0000000000000000000000000000000000000000000000000000000008152600401611caa90613a1f565b60405180910390fd5b80600860008481526020019081526020016000209080519060200190611cda929190612608565b505050565b60007f01ffc9a7000000000000000000000000000000000000000000000000000000007bffffffffffffffffffffffffffffffffffffffffffffffffffffffff1916827bffffffffffffffffffffffffffffffffffffffffffffffffffffffff1916149050919050565b505050565b6000611db77f9351747b1e9d1d5ecc2259decffb60239f521e243e85645e0762ed1d775876778360000135846020013585604001358660600135604051602001611d9c9594939291906137c5565b60405160208183030381529060405280519060200120611f7c565b9050919050565b6000806000611dcd8585611f96565b91509150611dda81612019565b819250505092915050565b6000611e068473ffffffffffffffffffffffffffffffffffffffff1661236a565b15611f6f578373ffffffffffffffffffffffffffffffffffffffff1663150b7a02611e2f6114ac565b8786866040518563ffffffff1660e01b8152600401611e51949392919061370b565b602060405180830381600087803b158015611e6b57600080fd5b505af1925050508015611e9c57506040513d601f19601f82011682018060405250810190611e999190612b2f565b60015b611f1f573d8060008114611ecc576040519150601f19603f3d011682016040523d82523d6000602084013e611ed1565b606091505b50600081511415611f17576040517f08c379a0000000000000000000000000000000000000000000000000000000008152600401611f0e906138df565b60405180910390fd5b805181602001fd5b63150b7a0260e01b7bffffffffffffffffffffffffffffffffffffffffffffffffffffffff1916817bffffffffffffffffffffffffffffffffffffffffffffffffffffffff191614915050611f74565b600190505b949350505050565b6000611f8f611f8961237d565b83612440565b9050919050565b600080604183511415611fd85760008060006020860151925060408601519150606086015160001a9050611fcc87828585612473565b94509450505050612012565b604083511415612009576000806020850151915060408501519050611ffe868383612580565b935093505050612012565b60006002915091505b9250929050565b60006004811115612053577f4e487b7100000000000000000000000000000000000000000000000000000000600052602160045260246000fd5b81600481111561208c577f4e487b7100000000000000000000000000000000000000000000000000000000600052602160045260246000fd5b141561209757612367565b600160048111156120d1577f4e487b7100000000000000000000000000000000000000000000000000000000600052602160045260246000fd5b81600481111561210a577f4e487b7100000000000000000000000000000000000000000000000000000000600052602160045260246000fd5b141561214b576040517f08c379a00000000000000000000000000000000000000000000000000000000081526004016121429061387f565b60405180910390fd5b60026004811115612185577f4e487b7100000000000000000000000000000000000000000000000000000000600052602160045260246000fd5b8160048111156121be577f4e487b7100000000000000000000000000000000000000000000000000000000600052602160045260246000fd5b14156121ff576040517f08c379a00000000000000000000000000000000000000000000000000000000081526004016121f69061389f565b60405180910390fd5b60036004811115612239577f4e487b7100000000000000000000000000000000000000000000000000000000600052602160045260246000fd5b816004811115612272577f4e487b7100000000000000000000000000000000000000000000000000000000600052602160045260246000fd5b14156122b3576040517f08c379a00000000000000000000000000000000000000000000000000000000081526004016122aa906139df565b60405180910390fd5b6004808111156122ec577f4e487b7100000000000000000000000000000000000000000000000000000000600052602160045260246000fd5b816004811115612325577f4e487b7100000000000000000000000000000000000000000000000000000000600052602160045260246000fd5b1415612366576040517f08c379a000000000000000000000000000000000000000000000000000000000815260040161235d90613adf565b60405180910390fd5b5b50565b600080823b905060008111915050919050565b60007f00000000000000000000000000000000000000000000000000000000000000004614156123cf577f0000000000000000000000000000000000000000000000000000000000000000905061243d565b61243a7f00000000000000000000000000000000000000000000000000000000000000007f00000000000000000000000000000000000000000000000000000000000000007f00000000000000000000000000000000000000000000000000000000000000006125ce565b90505b90565b60008282604051602001612455929190613682565b60405160208183030381529060405280519060200120905092915050565b6000807f7fffffffffffffffffffffffffffffff5d576e7357a4501ddfe92f46681b20a08360001c11156124ae576000600391509150612577565b601b8560ff16141580156124c65750601c8560ff1614155b156124d8576000600491509150612577565b6000600187878787604051600081526020016040526040516124fd9493929190613818565b6020604051602081039080840390855afa15801561251f573d6000803e3d6000fd5b505050602060405103519050600073ffffffffffffffffffffffffffffffffffffffff168173ffffffffffffffffffffffffffffffffffffffff16141561256e57600060019250925050612577565b80600092509250505b94509492505050565b6000806000807f7fffffffffffffffffffffffffffffffffffffffffffffffffffffffffffffff85169150601b8560ff1c0190506125c087828885612473565b935093505050935093915050565b600083838346306040516020016125e9959493929190613772565b6040516020818303038152906040528051906020012090509392505050565b82805461261490613e9c565b90600052602060002090601f016020900481019282612636576000855561267d565b82601f1061264f57805160ff191683800117855561267d565b8280016001018555821561267d579182015b8281111561267c578251825591602001919060010190612661565b5b50905061268a919061268e565b5090565b5b808211156126a757600081600090555060010161268f565b5090565b60006126be6126b984613ca2565b613c71565b9050828152602081018484840111156126d657600080fd5b6126e1848285613e5a565b509392505050565b60006126fc6126f784613cd2565b613c71565b90508281526020810184848401111561271457600080fd5b61271f848285613e5a565b509392505050565b60008135905061273681613f76565b92915050565b60008151905061274b81613f76565b92915050565b60008135905061276081613f8d565b92915050565b60008135905061277581613fa4565b92915050565b60008151905061278a81613fa4565b92915050565b600082601f8301126127a157600080fd5b81356127b18482602086016126ab565b91505092915050565b600082601f8301126127cb57600080fd5b81356127db8482602086016126e9565b91505092915050565b600060a082840312156127f657600080fd5b81905092915050565b60008135905061280e81613fbb565b92915050565b60006020828403121561282657600080fd5b600061283484828501612727565b91505092915050565b60006020828403121561284f57600080fd5b600061285d8482850161273c565b91505092915050565b6000806040838503121561287957600080fd5b600061288785828601612727565b925050602061289885828601612727565b9150509250929050565b6000806000606084860312156128b757600080fd5b60006128c586828701612727565b93505060206128d686828701612727565b925050604084013567ffffffffffffffff8111156128f357600080fd5b6128ff868287016127e4565b9150509250925092565b60008060006060848603121561291e57600080fd5b600061292c86828701612727565b935050602061293d86828701612727565b925050604061294e868287016127ff565b9150509250925092565b6000806000806080858703121561296e57600080fd5b600061297c87828801612727565b945050602061298d87828801612727565b935050604061299e878288016127ff565b925050606085013567ffffffffffffffff8111156129bb57600080fd5b6129c787828801612790565b91505092959194509250565b600080604083850312156129e657600080fd5b60006129f485828601612727565b9250506020612a0585828601612751565b9150509250929050565b60008060408385031215612a2257600080fd5b6000612a3085828601612727565b925050602083013567ffffffffffffffff811115612a4d57600080fd5b612a59858286016127e4565b9150509250929050565b60008060408385031215612a7657600080fd5b6000612a8485828601612727565b9250506020612a95858286016127ff565b9150509250929050565b600080600060608486031215612ab457600080fd5b6000612ac286828701612727565b9350506020612ad3868287016127ff565b925050604084013567ffffffffffffffff811115612af057600080fd5b612afc868287016127ba565b9150509250925092565b600060208284031215612b1857600080fd5b6000612b2684828501612766565b91505092915050565b600060208284031215612b4157600080fd5b6000612b4f8482850161277b565b91505092915050565b600060208284031215612b6a57600080fd5b600082013567ffffffffffffffff811115612b8457600080fd5b612b90848285016127e4565b91505092915050565b600060208284031215612bab57600080fd5b6000612bb9848285016127ff565b91505092915050565b612bcb81613dcf565b82525050565b612bda81613de1565b82525050565b612be981613ded565b82525050565b612c00612bfb82613ded565b613ece565b82525050565b6000612c1182613d02565b612c1b8185613d18565b9350612c2b818560208601613e69565b612c3481613f65565b840191505092915050565b6000612c4a82613d0d565b612c548185613d29565b9350612c64818560208601613e69565b612c6d81613f65565b840191505092915050565b6000612c85601883613d29565b91507f45434453413a20696e76616c6964207369676e617475726500000000000000006000830152602082019050919050565b6000612cc5601f83613d29565b91507f45434453413a20696e76616c6964207369676e6174757265206c656e677468006000830152602082019050919050565b6000612d05602683613d29565b91507f746f6b656e5552493a20517565727920666f72206e6f6e206578697374656e7460008301527f20746f6b656e00000000000000000000000000000000000000000000000000006020830152604082019050919050565b6000612d6b603283613d29565b91507f4552433732313a207472616e7366657220746f206e6f6e20455243373231526560008301527f63656976657220696d706c656d656e74657200000000000000000000000000006020830152604082019050919050565b6000612dd1601b83613d29565b91507f566f75636865722068617320616c7265616479206578706972656400000000006000830152602082019050919050565b6000612e11602683613d29565b91507f4f776e61626c653a206e6577206f776e657220697320746865207a65726f206160008301527f64647265737300000000000000000000000000000000000000000000000000006020830152604082019050919050565b6000612e77601c83613d29565b91507f4552433732313a20746f6b656e20616c7265616479206d696e746564000000006000830152602082019050919050565b6000612eb7600283613d3a565b91507f19010000000000000000000000000000000000000000000000000000000000006000830152600282019050919050565b6000612ef7602e83613d29565b91507f53657474696e672055524920666f72206e6f6e2d6578697374656e7420746f6b60008301527f656e206e6f7420616c6c6f7765640000000000000000000000000000000000006020830152604082019050919050565b6000612f5d602483613d29565b91507f4552433732313a207472616e7366657220746f20746865207a65726f2061646460008301527f72657373000000000000000000000000000000000000000000000000000000006020830152604082019050919050565b6000612fc3601983613d29565b91507f4552433732313a20617070726f766520746f2063616c6c6572000000000000006000830152602082019050919050565b6000613003602383613d29565b91507f4572726f723a20555249206f66207468697320746f6b656e206973206e6f742060008301527f73657400000000000000000000000000000000000000000000000000000000006020830152604082019050919050565b6000613069602283613d29565b91507f45434453413a20696e76616c6964207369676e6174757265202773272076616c60008301527f75650000000000000000000000000000000000000000000000000000000000006020830152604082019050919050565b60006130cf602c83613d29565b91507f4552433732313a206f70657261746f7220717565727920666f72206e6f6e657860008301527f697374656e7420746f6b656e00000000000000000000000000000000000000006020830152604082019050919050565b6000613135601f83613d29565b91507f5468697320746f6b656e27732055524920616c726561647920657869737473006000830152602082019050919050565b6000613175601383613d29565b91507f496e76616c6964206e6f6e63652076616c7565000000000000000000000000006000830152602082019050919050565b60006131b5603883613d29565b91507f4552433732313a20617070726f76652063616c6c6572206973206e6f74206f7760008301527f6e6572206e6f7220617070726f76656420666f7220616c6c00000000000000006020830152604082019050919050565b600061321b601b83613d29565b91507f4572726f723a20546f6b656e20616c72656164792065786973747300000000006000830152602082019050919050565b600061325b602a83613d29565b91507f4552433732313a2062616c616e636520717565727920666f7220746865207a6560008301527f726f2061646472657373000000000000000000000000000000000000000000006020830152604082019050919050565b60006132c1602983613d29565b91507f4552433732313a206f776e657220717565727920666f72206e6f6e657869737460008301527f656e7420746f6b656e00000000000000000000000000000000000000000000006020830152604082019050919050565b6000613327602283613d29565b91507f45434453413a20696e76616c6964207369676e6174757265202776272076616c60008301527f75650000000000000000000000000000000000000000000000000000000000006020830152604082019050919050565b600061338d602083613d29565b91507f4552433732313a206d696e7420746f20746865207a65726f20616464726573736000830152602082019050919050565b60006133cd602c83613d29565b91507f4552433732313a20617070726f76656420717565727920666f72206e6f6e657860008301527f697374656e7420746f6b656e00000000000000000000000000000000000000006020830152604082019050919050565b6000613433602083613d29565b91507f4f776e61626c653a2063616c6c6572206973206e6f7420746865206f776e65726000830152602082019050919050565b6000613473602983613d29565b91507f4552433732313a207472616e73666572206f6620746f6b656e2074686174206960008301527f73206e6f74206f776e00000000000000000000000000000000000000000000006020830152604082019050919050565b60006134d9602c83613d29565b91507f5468697320636f6e747261637420686173206e6f20617070726f76616c20666f60008301527f72207468697320746f6b656e00000000000000000000000000000000000000006020830152604082019050919050565b600061353f602183613d29565b91507f4552433732313a20617070726f76616c20746f2063757272656e74206f776e6560008301527f72000000000000000000000000000000000000000000000000000000000000006020830152604082019050919050565b60006135a5602783613d29565b91507f417574686f72697a6174696f6e206661696c65643a20496e76616c696420736960008301527f676e6174757265000000000000000000000000000000000000000000000000006020830152604082019050919050565b600061360b603183613d29565b91507f4552433732313a207472616e736665722063616c6c6572206973206e6f74206f60008301527f776e6572206e6f7220617070726f7665640000000000000000000000000000006020830152604082019050919050565b61366d81613e43565b82525050565b61367c81613e4d565b82525050565b600061368d82612eaa565b91506136998285612bef565b6020820191506136a98284612bef565b6020820191508190509392505050565b60006020820190506136ce6000830184612bc2565b92915050565b60006060820190506136e96000830186612bc2565b6136f66020830185612bc2565b6137036040830184613664565b949350505050565b60006080820190506137206000830187612bc2565b61372d6020830186612bc2565b61373a6040830185613664565b818103606083015261374c8184612c06565b905095945050505050565b600060208201905061376c6000830184612bd1565b92915050565b600060a0820190506137876000830188612be0565b6137946020830187612be0565b6137a16040830186612be0565b6137ae6060830185613664565b6137bb6080830184612bc2565b9695505050505050565b600060a0820190506137da6000830188612be0565b6137e76020830187613664565b6137f46040830186613664565b6138016060830185613664565b61380e6080830184613664565b9695505050505050565b600060808201905061382d6000830187612be0565b61383a6020830186613673565b6138476040830185612be0565b6138546060830184612be0565b95945050505050565b600060208201905081810360008301526138778184612c3f565b905092915050565b6000602082019050818103600083015261389881612c78565b9050919050565b600060208201905081810360008301526138b881612cb8565b9050919050565b600060208201905081810360008301526138d881612cf8565b9050919050565b600060208201905081810360008301526138f881612d5e565b9050919050565b6000602082019050818103600083015261391881612dc4565b9050919050565b6000602082019050818103600083015261393881612e04565b9050919050565b6000602082019050818103600083015261395881612e6a565b9050919050565b6000602082019050818103600083015261397881612eea565b9050919050565b6000602082019050818103600083015261399881612f50565b9050919050565b600060208201905081810360008301526139b881612fb6565b9050919050565b600060208201905081810360008301526139d881612ff6565b9050919050565b600060208201905081810360008301526139f88161305c565b9050919050565b60006020820190508181036000830152613a18816130c2565b9050919050565b60006020820190508181036000830152613a3881613128565b9050919050565b60006020820190508181036000830152613a5881613168565b9050919050565b60006020820190508181036000830152613a78816131a8565b9050919050565b60006020820190508181036000830152613a988161320e565b9050919050565b60006020820190508181036000830152613ab88161324e565b9050919050565b60006020820190508181036000830152613ad8816132b4565b9050919050565b60006020820190508181036000830152613af88161331a565b9050919050565b60006020820190508181036000830152613b1881613380565b9050919050565b60006020820190508181036000830152613b38816133c0565b9050919050565b60006020820190508181036000830152613b5881613426565b9050919050565b60006020820190508181036000830152613b7881613466565b9050919050565b60006020820190508181036000830152613b98816134cc565b9050919050565b60006020820190508181036000830152613bb881613532565b9050919050565b60006020820190508181036000830152613bd881613598565b9050919050565b60006020820190508181036000830152613bf8816135fe565b9050919050565b6000602082019050613c146000830184613664565b92915050565b60008083356001602003843603038112613c3357600080fd5b80840192508235915067ffffffffffffffff821115613c5157600080fd5b602083019250600182023603831315613c6957600080fd5b509250929050565b6000604051905081810181811067ffffffffffffffff82111715613c9857613c97613f36565b5b8060405250919050565b600067ffffffffffffffff821115613cbd57613cbc613f36565b5b601f19601f8301169050602081019050919050565b600067ffffffffffffffff821115613ced57613cec613f36565b5b601f19601f8301169050602081019050919050565b600081519050919050565b600081519050919050565b600082825260208201905092915050565b600082825260208201905092915050565b600081905092915050565b6000613d5082613e43565b9150613d5b83613e43565b9250827fffffffffffffffffffffffffffffffffffffffffffffffffffffffffffffffff03821115613d9057613d8f613ed8565b5b828201905092915050565b6000613da682613e43565b9150613db183613e43565b925082821015613dc457613dc3613ed8565b5b828203905092915050565b6000613dda82613e23565b9050919050565b60008115159050919050565b6000819050919050565b60007fffffffff0000000000000000000000000000000000000000000000000000000082169050919050565b600073ffffffffffffffffffffffffffffffffffffffff82169050919050565b6000819050919050565b600060ff82169050919050565b82818337600083830152505050565b60005b83811015613e87578082015181840152602081019050613e6c565b83811115613e96576000848401525b50505050565b60006002820490506001821680613eb457607f821691505b60208210811415613ec857613ec7613f07565b5b50919050565b6000819050919050565b7f4e487b7100000000000000000000000000000000000000000000000000000000600052601160045260246000fd5b7f4e487b7100000000000000000000000000000000000000000000000000000000600052602260045260246000fd5b7f4e487b7100000000000000000000000000000000000000000000000000000000600052604160045260246000fd5b6000601f19601f8301169050919050565b613f7f81613dcf565b8114613f8a57600080fd5b50565b613f9681613de1565b8114613fa157600080fd5b50565b613fad81613df7565b8114613fb857600080fd5b50565b613fc481613e43565b8114613fcf57600080fd5b5056fea2646970667358221220abf9d52d91465427445dfd99e8dd4057dd271a4932e0655a6381bd5e314d9a2b64736f6c63430008000033",
  "linkReferences": {},
  "deployedLinkReferences": {}
}