{
  "_format": "hh-sol-artifact-1",
  "contractName": "ERC721Mock",
  "sourceName": "contracts/main/ERC721Mock.sol",
  "abi": [
    {
      "inputs": [
        {
          "internalType": "string",
          "name": "name",
          "type": "string"
        },
        {
          "internalType": "string",
          "name": "symbol",
          "type": "string"
        }
      ],
      "stateMutability": "nonpayable",
      "type": "constructor"
    },
    {
      "anonymous": false,
      "inputs": [
        {
          "indexed": true,
          "internalType": "address",
          "name": "owner",
          "type": "address"
        },
        {
          "indexed": true,
          "internalType": "address",
          "name": "approved",
          "type": "address"
        },
        {
          "indexed": true,
          "internalType": "uint256",
          "name": "tokenId",
          "type": "uint256"
        }
      ],
      "name": "Approval",
      "type": "event"
    },
    {
      "anonymous": false,
      "inputs": [
        {
          "indexed": true,
          "internalType": "address",
          "name": "owner",
          "type": "address"
        },
        {
          "indexed": true,
          "internalType": "address",
          "name": "operator",
          "type": "address"
        },
        {
          "indexed": false,
          "internalType": "bool",
          "name": "approved",
          "type": "bool"
        }
      ],
      "name": "ApprovalForAll",
      "type": "event"
    },
    {
      "anonymous": false,
      "inputs": [
        {
          "indexed": true,
          "internalType": "address",
          "name": "from",
          "type": "address"
        },
        {
          "indexed": true,
          "internalType": "address",
          "name": "to",
          "type": "address"
        },
        {
          "indexed": true,
          "internalType": "uint256",
          "name": "tokenId",
          "type": "uint256"
        }
      ],
      "name": "Transfer",
      "type": "event"
    },
    {
      "inputs": [
        {
          "internalType": "address",
          "name": "to",
          "type": "address"
        },
        {
          "internalType": "uint256",
          "name": "tokenId",
          "type": "uint256"
        }
      ],
      "name": "approve",
      "outputs": [],
      "stateMutability": "nonpayable",
      "type": "function"
    },
    {
      "inputs": [
        {
          "internalType": "address",
          "name": "owner",
          "type": "address"
        }
      ],
      "name": "balanceOf",
      "outputs": [
        {
          "internalType": "uint256",
          "name": "",
          "type": "uint256"
        }
      ],
      "stateMutability": "view",
      "type": "function"
    },
    {
      "inputs": [],
      "name": "baseURI",
      "outputs": [
        {
          "internalType": "string",
          "name": "",
          "type": "string"
        }
      ],
      "stateMutability": "view",
      "type": "function"
    },
    {
      "inputs": [
        {
          "internalType": "uint256",
          "name": "tokenId",
          "type": "uint256"
        }
      ],
      "name": "burn",
      "outputs": [],
      "stateMutability": "nonpayable",
      "type": "function"
    },
    {
      "inputs": [
        {
          "internalType": "uint256",
          "name": "tokenId",
          "type": "uint256"
        }
      ],
      "name": "exists",
      "outputs": [
        {
          "internalType": "bool",
          "name": "",
          "type": "bool"
        }
      ],
      "stateMutability": "view",
      "type": "function"
    },
    {
      "inputs": [
        {
          "internalType": "uint256",
          "name": "tokenId",
          "type": "uint256"
        }
      ],
      "name": "getApproved",
      "outputs": [
        {
          "internalType": "address",
          "name": "",
          "type": "address"
        }
      ],
      "stateMutability": "view",
      "type": "function"
    },
    {
      "inputs": [
        {
          "internalType": "address",
          "name": "owner",
          "type": "address"
        },
        {
          "internalType": "address",
          "name": "operator",
          "type": "address"
        }
      ],
      "name": "isApprovedForAll",
      "outputs": [
        {
          "internalType": "bool",
          "name": "",
          "type": "bool"
        }
      ],
      "stateMutability": "view",
      "type": "function"
    },
    {
      "inputs": [
        {
          "internalType": "address",
          "name": "to",
          "type": "address"
        },
        {
          "internalType": "uint256",
          "name": "tokenId",
          "type": "uint256"
        }
      ],
      "name": "mint",
      "outputs": [],
      "stateMutability": "nonpayable",
      "type": "function"
    },
    {
      "inputs": [],
      "name": "name",
      "outputs": [
        {
          "internalType": "string",
          "name": "",
          "type": "string"
        }
      ],
      "stateMutability": "view",
      "type": "function"
    },
    {
      "inputs": [
        {
          "internalType": "uint256",
          "name": "tokenId",
          "type": "uint256"
        }
      ],
      "name": "ownerOf",
      "outputs": [
        {
          "internalType": "address",
          "name": "",
          "type": "address"
        }
      ],
      "stateMutability": "view",
      "type": "function"
    },
    {
      "inputs": [
        {
          "internalType": "address",
          "name": "to",
          "type": "address"
        },
        {
          "internalType": "uint256",
          "name": "tokenId",
          "type": "uint256"
        },
        {
          "internalType": "bytes",
          "name": "_data",
          "type": "bytes"
        }
      ],
      "name": "safeMint",
      "outputs": [],
      "stateMutability": "nonpayable",
      "type": "function"
    },
    {
      "inputs": [
        {
          "internalType": "address",
          "name": "to",
          "type": "address"
        },
        {
          "internalType": "uint256",
          "name": "tokenId",
          "type": "uint256"
        }
      ],
      "name": "safeMint",
      "outputs": [],
      "stateMutability": "nonpayable",
      "type": "function"
    },
    {
      "inputs": [
        {
          "internalType": "address",
          "name": "from",
          "type": "address"
        },
        {
          "internalType": "address",
          "name": "to",
          "type": "address"
        },
        {
          "internalType": "uint256",
          "name": "tokenId",
          "type": "uint256"
        }
      ],
      "name": "safeTransferFrom",
      "outputs": [],
      "stateMutability": "nonpayable",
      "type": "function"
    },
    {
      "inputs": [
        {
          "internalType": "address",
          "name": "from",
          "type": "address"
        },
        {
          "internalType": "address",
          "name": "to",
          "type": "address"
        },
        {
          "internalType": "uint256",
          "name": "tokenId",
          "type": "uint256"
        },
        {
          "internalType": "bytes",
          "name": "_data",
          "type": "bytes"
        }
      ],
      "name": "safeTransferFrom",
      "outputs": [],
      "stateMutability": "nonpayable",
      "type": "function"
    },
    {
      "inputs": [
        {
          "internalType": "address",
          "name": "operator",
          "type": "address"
        },
        {
          "internalType": "bool",
          "name": "approved",
          "type": "bool"
        }
      ],
      "name": "setApprovalForAll",
      "outputs": [],
      "stateMutability": "nonpayable",
      "type": "function"
    },
    {
      "inputs": [
        {
          "internalType": "bytes4",
          "name": "interfaceId",
          "type": "bytes4"
        }
      ],
      "name": "supportsInterface",
      "outputs": [
        {
          "internalType": "bool",
          "name": "",
          "type": "bool"
        }
      ],
      "stateMutability": "view",
      "type": "function"
    },
    {
      "inputs": [],
      "name": "symbol",
      "outputs": [
        {
          "internalType": "string",
          "name": "",
          "type": "string"
        }
      ],
      "stateMutability": "view",
      "type": "function"
    },
    {
      "inputs": [
        {
          "internalType": "uint256",
          "name": "tokenId",
          "type": "uint256"
        }
      ],
      "name": "tokenURI",
      "outputs": [
        {
          "internalType": "string",
          "name": "",
          "type": "string"
        }
      ],
      "stateMutability": "view",
      "type": "function"
    },
    {
      "inputs": [
        {
          "internalType": "address",
          "name": "from",
          "type": "address"
        },
        {
          "internalType": "address",
          "name": "to",
          "type": "address"
        },
        {
          "internalType": "uint256",
          "name": "tokenId",
          "type": "uint256"
        }
      ],
      "name": "transferFrom",
      "outputs": [],
      "stateMutability": "nonpayable",
      "type": "function"
    }
  ],
  "bytecode": "0x60806040523480156200001157600080fd5b5060405162002c2238038062002c22833981810160405281019062000037919062000197565b818181600090805190602001906200005192919062000075565b5080600190805190602001906200006a92919062000075565b50505050506200033b565b8280546200008390620002a7565b90600052602060002090601f016020900481019282620000a75760008555620000f3565b82601f10620000c257805160ff1916838001178555620000f3565b82800160010185558215620000f3579182015b82811115620000f2578251825591602001919060010190620000d5565b5b50905062000102919062000106565b5090565b5b808211156200012157600081600090555060010162000107565b5090565b60006200013c62000136846200023e565b6200020a565b9050828152602081018484840111156200015557600080fd5b6200016284828562000271565b509392505050565b600082601f8301126200017c57600080fd5b81516200018e84826020860162000125565b91505092915050565b60008060408385031215620001ab57600080fd5b600083015167ffffffffffffffff811115620001c657600080fd5b620001d4858286016200016a565b925050602083015167ffffffffffffffff811115620001f257600080fd5b62000200858286016200016a565b9150509250929050565b6000604051905081810181811067ffffffffffffffff821117156200023457620002336200030c565b5b8060405250919050565b600067ffffffffffffffff8211156200025c576200025b6200030c565b5b601f19601f8301169050602081019050919050565b60005b838110156200029157808201518184015260208101905062000274565b83811115620002a1576000848401525b50505050565b60006002820490506001821680620002c057607f821691505b60208210811415620002d757620002d6620002dd565b5b50919050565b7f4e487b7100000000000000000000000000000000000000000000000000000000600052602260045260246000fd5b7f4e487b7100000000000000000000000000000000000000000000000000000000600052604160045260246000fd5b6128d7806200034b6000396000f3fe608060405234801561001057600080fd5b50600436106101215760003560e01c80636352211e116100ad578063a144819411610071578063a144819414610318578063a22cb46514610334578063b88d4fde14610350578063c87b56dd1461036c578063e985e9c51461039c57610121565b80636352211e146102605780636c0360eb1461029057806370a08231146102ae5780638832e6e3146102de57806395d89b41146102fa57610121565b806323b872dd116100f457806323b872dd146101c057806340c10f19146101dc57806342842e0e146101f857806342966c68146102145780634f558e791461023057610121565b806301ffc9a71461012657806306fdde0314610156578063081812fc14610174578063095ea7b3146101a4575b600080fd5b610140600480360381019061013b9190611ba7565b6103cc565b60405161014d919061229f565b60405180910390f35b61015e6104ae565b60405161016b91906122ba565b60405180910390f35b61018e60048036038101906101899190611bf9565b610540565b60405161019b9190612238565b60405180910390f35b6101be60048036038101906101b99190611b04565b6105c5565b005b6101da60048036038101906101d591906119fe565b6106dd565b005b6101f660048036038101906101f19190611b04565b61073d565b005b610212600480360381019061020d91906119fe565b61074b565b005b61022e60048036038101906102299190611bf9565b61076b565b005b61024a60048036038101906102459190611bf9565b610777565b604051610257919061229f565b60405180910390f35b61027a60048036038101906102759190611bf9565b610789565b6040516102879190612238565b60405180910390f35b61029861083b565b6040516102a591906122ba565b60405180910390f35b6102c860048036038101906102c39190611999565b61084a565b6040516102d5919061249c565b60405180910390f35b6102f860048036038101906102f39190611b40565b610902565b005b610302610912565b60405161030f91906122ba565b60405180910390f35b610332600480360381019061032d9190611b04565b6109a4565b005b61034e60048036038101906103499190611ac8565b6109b2565b005b61036a60048036038101906103659190611a4d565b610b33565b005b61038660048036038101906103819190611bf9565b610b95565b60405161039391906122ba565b60405180910390f35b6103b660048036038101906103b191906119c2565b610c3c565b6040516103c3919061229f565b60405180910390f35b60007f80ac58cd000000000000000000000000000000000000000000000000000000007bffffffffffffffffffffffffffffffffffffffffffffffffffffffff1916827bffffffffffffffffffffffffffffffffffffffffffffffffffffffff1916148061049757507f5b5e139f000000000000000000000000000000000000000000000000000000007bffffffffffffffffffffffffffffffffffffffffffffffffffffffff1916827bffffffffffffffffffffffffffffffffffffffffffffffffffffffff1916145b806104a757506104a682610cd0565b5b9050919050565b6060600080546104bd906126cc565b80601f01602080910402602001604051908101604052809291908181526020018280546104e9906126cc565b80156105365780601f1061050b57610100808354040283529160200191610536565b820191906000526020600020905b81548152906001019060200180831161051957829003601f168201915b5050505050905090565b600061054b82610d3a565b61058a576040517f08c379a0000000000000000000000000000000000000000000000000000000008152600401610581906123fc565b60405180910390fd5b6004600083815260200190815260200160002060009054906101000a900473ffffffffffffffffffffffffffffffffffffffff169050919050565b60006105d082610789565b90508073ffffffffffffffffffffffffffffffffffffffff168373ffffffffffffffffffffffffffffffffffffffff161415610641576040517f08c379a00000000000000000000000000000000000000000000000000000000081526004016106389061245c565b60405180910390fd5b8073ffffffffffffffffffffffffffffffffffffffff16610660610da6565b73ffffffffffffffffffffffffffffffffffffffff16148061068f575061068e81610689610da6565b610c3c565b5b6106ce576040517f08c379a00000000000000000000000000000000000000000000000000000000081526004016106c59061237c565b60405180910390fd5b6106d88383610dae565b505050565b6106ee6106e8610da6565b82610e67565b61072d576040517f08c379a00000000000000000000000000000000000000000000000000000000081526004016107249061247c565b60405180910390fd5b610738838383610f45565b505050565b61074782826111a1565b5050565b61076683838360405180602001604052806000815250610b33565b505050565b6107748161136f565b50565b600061078282610d3a565b9050919050565b6000806002600084815260200190815260200160002060009054906101000a900473ffffffffffffffffffffffffffffffffffffffff169050600073ffffffffffffffffffffffffffffffffffffffff168173ffffffffffffffffffffffffffffffffffffffff161415610832576040517f08c379a0000000000000000000000000000000000000000000000000000000008152600401610829906123bc565b60405180910390fd5b80915050919050565b6060610845611480565b905090565b60008073ffffffffffffffffffffffffffffffffffffffff168273ffffffffffffffffffffffffffffffffffffffff1614156108bb576040517f08c379a00000000000000000000000000000000000000000000000000000000081526004016108b29061239c565b60405180910390fd5b600360008373ffffffffffffffffffffffffffffffffffffffff1673ffffffffffffffffffffffffffffffffffffffff168152602001908152602001600020549050919050565b61090d838383611497565b505050565b606060018054610921906126cc565b80601f016020809104026020016040519081016040528092919081815260200182805461094d906126cc565b801561099a5780601f1061096f5761010080835404028352916020019161099a565b820191906000526020600020905b81548152906001019060200180831161097d57829003601f168201915b5050505050905090565b6109ae82826114f2565b5050565b6109ba610da6565b73ffffffffffffffffffffffffffffffffffffffff168273ffffffffffffffffffffffffffffffffffffffff161415610a28576040517f08c379a0000000000000000000000000000000000000000000000000000000008152600401610a1f9061233c565b60405180910390fd5b8060056000610a35610da6565b73ffffffffffffffffffffffffffffffffffffffff1673ffffffffffffffffffffffffffffffffffffffff16815260200190815260200160002060008473ffffffffffffffffffffffffffffffffffffffff1673ffffffffffffffffffffffffffffffffffffffff16815260200190815260200160002060006101000a81548160ff0219169083151502179055508173ffffffffffffffffffffffffffffffffffffffff16610ae2610da6565b73ffffffffffffffffffffffffffffffffffffffff167f17307eab39ab6107e8899845ad3d59bd9653f200f220920489ca2b5937696c3183604051610b27919061229f565b60405180910390a35050565b610b44610b3e610da6565b83610e67565b610b83576040517f08c379a0000000000000000000000000000000000000000000000000000000008152600401610b7a9061247c565b60405180910390fd5b610b8f84848484611510565b50505050565b6060610ba082610d3a565b610bdf576040517f08c379a0000000000000000000000000000000000000000000000000000000008152600401610bd69061243c565b60405180910390fd5b6000610be9611480565b90506000815111610c095760405180602001604052806000815250610c34565b80610c138461156c565b604051602001610c24929190612214565b6040516020818303038152906040525b915050919050565b6000600560008473ffffffffffffffffffffffffffffffffffffffff1673ffffffffffffffffffffffffffffffffffffffff16815260200190815260200160002060008373ffffffffffffffffffffffffffffffffffffffff1673ffffffffffffffffffffffffffffffffffffffff16815260200190815260200160002060009054906101000a900460ff16905092915050565b60007f01ffc9a7000000000000000000000000000000000000000000000000000000007bffffffffffffffffffffffffffffffffffffffffffffffffffffffff1916827bffffffffffffffffffffffffffffffffffffffffffffffffffffffff1916149050919050565b60008073ffffffffffffffffffffffffffffffffffffffff166002600084815260200190815260200160002060009054906101000a900473ffffffffffffffffffffffffffffffffffffffff1673ffffffffffffffffffffffffffffffffffffffff1614159050919050565b600033905090565b816004600083815260200190815260200160002060006101000a81548173ffffffffffffffffffffffffffffffffffffffff021916908373ffffffffffffffffffffffffffffffffffffffff160217905550808273ffffffffffffffffffffffffffffffffffffffff16610e2183610789565b73ffffffffffffffffffffffffffffffffffffffff167f8c5be1e5ebec7d5bd14f71427d1e84f3dd0314c0f7b2291e5b200ac8c7c3b92560405160405180910390a45050565b6000610e7282610d3a565b610eb1576040517f08c379a0000000000000000000000000000000000000000000000000000000008152600401610ea89061235c565b60405180910390fd5b6000610ebc83610789565b90508073ffffffffffffffffffffffffffffffffffffffff168473ffffffffffffffffffffffffffffffffffffffff161480610f2b57508373ffffffffffffffffffffffffffffffffffffffff16610f1384610540565b73ffffffffffffffffffffffffffffffffffffffff16145b80610f3c5750610f3b8185610c3c565b5b91505092915050565b8273ffffffffffffffffffffffffffffffffffffffff16610f6582610789565b73ffffffffffffffffffffffffffffffffffffffff1614610fbb576040517f08c379a0000000000000000000000000000000000000000000000000000000008152600401610fb29061241c565b60405180910390fd5b600073ffffffffffffffffffffffffffffffffffffffff168273ffffffffffffffffffffffffffffffffffffffff16141561102b576040517f08c379a00000000000000000000000000000000000000000000000000000000081526004016110229061231c565b60405180910390fd5b611036838383611719565b611041600082610dae565b6001600360008573ffffffffffffffffffffffffffffffffffffffff1673ffffffffffffffffffffffffffffffffffffffff168152602001908152602001600020600082825461109191906125e2565b925050819055506001600360008473ffffffffffffffffffffffffffffffffffffffff1673ffffffffffffffffffffffffffffffffffffffff16815260200190815260200160002060008282546110e8919061255b565b92505081905550816002600083815260200190815260200160002060006101000a81548173ffffffffffffffffffffffffffffffffffffffff021916908373ffffffffffffffffffffffffffffffffffffffff160217905550808273ffffffffffffffffffffffffffffffffffffffff168473ffffffffffffffffffffffffffffffffffffffff167fddf252ad1be2c89b69c2b068fc378daa952ba7f163c4a11628f55a4df523b3ef60405160405180910390a4505050565b600073ffffffffffffffffffffffffffffffffffffffff168273ffffffffffffffffffffffffffffffffffffffff161415611211576040517f08c379a0000000000000000000000000000000000000000000000000000000008152600401611208906123dc565b60405180910390fd5b61121a81610d3a565b1561125a576040517f08c379a0000000000000000000000000000000000000000000000000000000008152600401611251906122fc565b60405180910390fd5b61126660008383611719565b6001600360008473ffffffffffffffffffffffffffffffffffffffff1673ffffffffffffffffffffffffffffffffffffffff16815260200190815260200160002060008282546112b6919061255b565b92505081905550816002600083815260200190815260200160002060006101000a81548173ffffffffffffffffffffffffffffffffffffffff021916908373ffffffffffffffffffffffffffffffffffffffff160217905550808273ffffffffffffffffffffffffffffffffffffffff16600073ffffffffffffffffffffffffffffffffffffffff167fddf252ad1be2c89b69c2b068fc378daa952ba7f163c4a11628f55a4df523b3ef60405160405180910390a45050565b600061137a82610789565b905061138881600084611719565b611393600083610dae565b6001600360008373ffffffffffffffffffffffffffffffffffffffff1673ffffffffffffffffffffffffffffffffffffffff16815260200190815260200160002060008282546113e391906125e2565b925050819055506002600083815260200190815260200160002060006101000a81549073ffffffffffffffffffffffffffffffffffffffff021916905581600073ffffffffffffffffffffffffffffffffffffffff168273ffffffffffffffffffffffffffffffffffffffff167fddf252ad1be2c89b69c2b068fc378daa952ba7f163c4a11628f55a4df523b3ef60405160405180910390a45050565b606060405180602001604052806000815250905090565b6114a183836111a1565b6114ae600084848461171e565b6114ed576040517f08c379a00000000000000000000000000000000000000000000000000000000081526004016114e4906122dc565b60405180910390fd5b505050565b61150c828260405180602001604052806000815250611497565b5050565b61151b848484610f45565b6115278484848461171e565b611566576040517f08c379a000000000000000000000000000000000000000000000000000000000815260040161155d906122dc565b60405180910390fd5b50505050565b606060008214156115b4576040518060400160405280600181526020017f30000000000000000000000000000000000000000000000000000000000000008152509050611714565b600082905060005b600082146115e65780806115cf906126fe565b915050600a826115df91906125b1565b91506115bc565b60008167ffffffffffffffff811115611628577f4e487b7100000000000000000000000000000000000000000000000000000000600052604160045260246000fd5b6040519080825280601f01601f19166020018201604052801561165a5781602001600182028036833780820191505090505b5090505b6000851461170d5760018261167391906125e2565b9150600a856116829190612747565b603061168e919061255b565b60f81b8183815181106116ca577f4e487b7100000000000000000000000000000000000000000000000000000000600052603260045260246000fd5b60200101907effffffffffffffffffffffffffffffffffffffffffffffffffffffffffffff1916908160001a905350600a8561170691906125b1565b945061165e565b8093505050505b919050565b505050565b600061173f8473ffffffffffffffffffffffffffffffffffffffff166118b5565b156118a8578373ffffffffffffffffffffffffffffffffffffffff1663150b7a02611768610da6565b8786866040518563ffffffff1660e01b815260040161178a9493929190612253565b602060405180830381600087803b1580156117a457600080fd5b505af19250505080156117d557506040513d601f19601f820116820180604052508101906117d29190611bd0565b60015b611858573d8060008114611805576040519150601f19603f3d011682016040523d82523d6000602084013e61180a565b606091505b50600081511415611850576040517f08c379a0000000000000000000000000000000000000000000000000000000008152600401611847906122dc565b60405180910390fd5b805181602001fd5b63150b7a0260e01b7bffffffffffffffffffffffffffffffffffffffffffffffffffffffff1916817bffffffffffffffffffffffffffffffffffffffffffffffffffffffff1916149150506118ad565b600190505b949350505050565b600080823b905060008111915050919050565b60006118db6118d6846124e8565b6124b7565b9050828152602081018484840111156118f357600080fd5b6118fe84828561268a565b509392505050565b60008135905061191581612845565b92915050565b60008135905061192a8161285c565b92915050565b60008135905061193f81612873565b92915050565b60008151905061195481612873565b92915050565b600082601f83011261196b57600080fd5b813561197b8482602086016118c8565b91505092915050565b6000813590506119938161288a565b92915050565b6000602082840312156119ab57600080fd5b60006119b984828501611906565b91505092915050565b600080604083850312156119d557600080fd5b60006119e385828601611906565b92505060206119f485828601611906565b9150509250929050565b600080600060608486031215611a1357600080fd5b6000611a2186828701611906565b9350506020611a3286828701611906565b9250506040611a4386828701611984565b9150509250925092565b60008060008060808587031215611a6357600080fd5b6000611a7187828801611906565b9450506020611a8287828801611906565b9350506040611a9387828801611984565b925050606085013567ffffffffffffffff811115611ab057600080fd5b611abc8782880161195a565b91505092959194509250565b60008060408385031215611adb57600080fd5b6000611ae985828601611906565b9250506020611afa8582860161191b565b9150509250929050565b60008060408385031215611b1757600080fd5b6000611b2585828601611906565b9250506020611b3685828601611984565b9150509250929050565b600080600060608486031215611b5557600080fd5b6000611b6386828701611906565b9350506020611b7486828701611984565b925050604084013567ffffffffffffffff811115611b9157600080fd5b611b9d8682870161195a565b9150509250925092565b600060208284031215611bb957600080fd5b6000611bc784828501611930565b91505092915050565b600060208284031215611be257600080fd5b6000611bf084828501611945565b91505092915050565b600060208284031215611c0b57600080fd5b6000611c1984828501611984565b91505092915050565b611c2b81612616565b82525050565b611c3a81612628565b82525050565b6000611c4b82612518565b611c55818561252e565b9350611c65818560208601612699565b611c6e81612834565b840191505092915050565b6000611c8482612523565b611c8e818561253f565b9350611c9e818560208601612699565b611ca781612834565b840191505092915050565b6000611cbd82612523565b611cc78185612550565b9350611cd7818560208601612699565b80840191505092915050565b6000611cf060328361253f565b91507f4552433732313a207472616e7366657220746f206e6f6e20455243373231526560008301527f63656976657220696d706c656d656e74657200000000000000000000000000006020830152604082019050919050565b6000611d56601c8361253f565b91507f4552433732313a20746f6b656e20616c7265616479206d696e746564000000006000830152602082019050919050565b6000611d9660248361253f565b91507f4552433732313a207472616e7366657220746f20746865207a65726f2061646460008301527f72657373000000000000000000000000000000000000000000000000000000006020830152604082019050919050565b6000611dfc60198361253f565b91507f4552433732313a20617070726f766520746f2063616c6c6572000000000000006000830152602082019050919050565b6000611e3c602c8361253f565b91507f4552433732313a206f70657261746f7220717565727920666f72206e6f6e657860008301527f697374656e7420746f6b656e00000000000000000000000000000000000000006020830152604082019050919050565b6000611ea260388361253f565b91507f4552433732313a20617070726f76652063616c6c6572206973206e6f74206f7760008301527f6e6572206e6f7220617070726f76656420666f7220616c6c00000000000000006020830152604082019050919050565b6000611f08602a8361253f565b91507f4552433732313a2062616c616e636520717565727920666f7220746865207a6560008301527f726f2061646472657373000000000000000000000000000000000000000000006020830152604082019050919050565b6000611f6e60298361253f565b91507f4552433732313a206f776e657220717565727920666f72206e6f6e657869737460008301527f656e7420746f6b656e00000000000000000000000000000000000000000000006020830152604082019050919050565b6000611fd460208361253f565b91507f4552433732313a206d696e7420746f20746865207a65726f20616464726573736000830152602082019050919050565b6000612014602c8361253f565b91507f4552433732313a20617070726f76656420717565727920666f72206e6f6e657860008301527f697374656e7420746f6b656e00000000000000000000000000000000000000006020830152604082019050919050565b600061207a60298361253f565b91507f4552433732313a207472616e73666572206f6620746f6b656e2074686174206960008301527f73206e6f74206f776e00000000000000000000000000000000000000000000006020830152604082019050919050565b60006120e0602f8361253f565b91507f4552433732314d657461646174613a2055524920717565727920666f72206e6f60008301527f6e6578697374656e7420746f6b656e00000000000000000000000000000000006020830152604082019050919050565b600061214660218361253f565b91507f4552433732313a20617070726f76616c20746f2063757272656e74206f776e6560008301527f72000000000000000000000000000000000000000000000000000000000000006020830152604082019050919050565b60006121ac60318361253f565b91507f4552433732313a207472616e736665722063616c6c6572206973206e6f74206f60008301527f776e6572206e6f7220617070726f7665640000000000000000000000000000006020830152604082019050919050565b61220e81612680565b82525050565b60006122208285611cb2565b915061222c8284611cb2565b91508190509392505050565b600060208201905061224d6000830184611c22565b92915050565b60006080820190506122686000830187611c22565b6122756020830186611c22565b6122826040830185612205565b81810360608301526122948184611c40565b905095945050505050565b60006020820190506122b46000830184611c31565b92915050565b600060208201905081810360008301526122d48184611c79565b905092915050565b600060208201905081810360008301526122f581611ce3565b9050919050565b6000602082019050818103600083015261231581611d49565b9050919050565b6000602082019050818103600083015261233581611d89565b9050919050565b6000602082019050818103600083015261235581611def565b9050919050565b6000602082019050818103600083015261237581611e2f565b9050919050565b6000602082019050818103600083015261239581611e95565b9050919050565b600060208201905081810360008301526123b581611efb565b9050919050565b600060208201905081810360008301526123d581611f61565b9050919050565b600060208201905081810360008301526123f581611fc7565b9050919050565b6000602082019050818103600083015261241581612007565b9050919050565b600060208201905081810360008301526124358161206d565b9050919050565b60006020820190508181036000830152612455816120d3565b9050919050565b6000602082019050818103600083015261247581612139565b9050919050565b600060208201905081810360008301526124958161219f565b9050919050565b60006020820190506124b16000830184612205565b92915050565b6000604051905081810181811067ffffffffffffffff821117156124de576124dd612805565b5b8060405250919050565b600067ffffffffffffffff82111561250357612502612805565b5b601f19601f8301169050602081019050919050565b600081519050919050565b600081519050919050565b600082825260208201905092915050565b600082825260208201905092915050565b600081905092915050565b600061256682612680565b915061257183612680565b9250827fffffffffffffffffffffffffffffffffffffffffffffffffffffffffffffffff038211156125a6576125a5612778565b5b828201905092915050565b60006125bc82612680565b91506125c783612680565b9250826125d7576125d66127a7565b5b828204905092915050565b60006125ed82612680565b91506125f883612680565b92508282101561260b5761260a612778565b5b828203905092915050565b600061262182612660565b9050919050565b60008115159050919050565b60007fffffffff0000000000000000000000000000000000000000000000000000000082169050919050565b600073ffffffffffffffffffffffffffffffffffffffff82169050919050565b6000819050919050565b82818337600083830152505050565b60005b838110156126b757808201518184015260208101905061269c565b838111156126c6576000848401525b50505050565b600060028204905060018216806126e457607f821691505b602082108114156126f8576126f76127d6565b5b50919050565b600061270982612680565b91507fffffffffffffffffffffffffffffffffffffffffffffffffffffffffffffffff82141561273c5761273b612778565b5b600182019050919050565b600061275282612680565b915061275d83612680565b92508261276d5761276c6127a7565b5b828206905092915050565b7f4e487b7100000000000000000000000000000000000000000000000000000000600052601160045260246000fd5b7f4e487b7100000000000000000000000000000000000000000000000000000000600052601260045260246000fd5b7f4e487b7100000000000000000000000000000000000000000000000000000000600052602260045260246000fd5b7f4e487b7100000000000000000000000000000000000000000000000000000000600052604160045260246000fd5b6000601f19601f8301169050919050565b61284e81612616565b811461285957600080fd5b50565b61286581612628565b811461287057600080fd5b50565b61287c81612634565b811461288757600080fd5b50565b61289381612680565b811461289e57600080fd5b5056fea2646970667358221220db18b2c248c0f54920d2354f2caa45f55612e425468e629346e20026dc24761b64736f6c63430008000033",
  "linkReferences": {},
  "deployedLinkReferences": {}
}