{
  "_format": "hh-sol-artifact-1",
  "contractName": "WebaverseVoucher",
  "sourceName": "contracts/utils/NFTVoucher.sol",
  "abi": [
    {
      "inputs": [
        {
          "internalType": "string",
          "name": "name",
          "type": "string"
        },
        {
          "internalType": "string",
          "name": "symbol",
          "type": "string"
        }
      ],
      "stateMutability": "nonpayable",
      "type": "constructor"
    },
    {
      "anonymous": false,
      "inputs": [
        {
          "indexed": true,
          "internalType": "address",
          "name": "owner",
          "type": "address"
        },
        {
          "indexed": true,
          "internalType": "address",
          "name": "approved",
          "type": "address"
        },
        {
          "indexed": true,
          "internalType": "uint256",
          "name": "tokenId",
          "type": "uint256"
        }
      ],
      "name": "Approval",
      "type": "event"
    },
    {
      "anonymous": false,
      "inputs": [
        {
          "indexed": true,
          "internalType": "address",
          "name": "owner",
          "type": "address"
        },
        {
          "indexed": true,
          "internalType": "address",
          "name": "operator",
          "type": "address"
        },
        {
          "indexed": false,
          "internalType": "bool",
          "name": "approved",
          "type": "bool"
        }
      ],
      "name": "ApprovalForAll",
      "type": "event"
    },
    {
      "anonymous": false,
      "inputs": [
        {
          "indexed": true,
          "internalType": "address",
          "name": "from",
          "type": "address"
        },
        {
          "indexed": true,
          "internalType": "address",
          "name": "to",
          "type": "address"
        },
        {
          "indexed": true,
          "internalType": "uint256",
          "name": "tokenId",
          "type": "uint256"
        }
      ],
      "name": "Transfer",
      "type": "event"
    },
    {
      "inputs": [
        {
          "internalType": "address",
          "name": "to",
          "type": "address"
        },
        {
          "internalType": "uint256",
          "name": "tokenId",
          "type": "uint256"
        }
      ],
      "name": "approve",
      "outputs": [],
      "stateMutability": "nonpayable",
      "type": "function"
    },
    {
      "inputs": [
        {
          "internalType": "address",
          "name": "owner",
          "type": "address"
        }
      ],
      "name": "balanceOf",
      "outputs": [
        {
          "internalType": "uint256",
          "name": "",
          "type": "uint256"
        }
      ],
      "stateMutability": "view",
      "type": "function"
    },
    {
      "inputs": [
        {
          "internalType": "uint256",
          "name": "",
          "type": "uint256"
        }
      ],
      "name": "burnedNonces",
      "outputs": [
        {
          "internalType": "bool",
          "name": "",
          "type": "bool"
        }
      ],
      "stateMutability": "view",
      "type": "function"
    },
    {
      "inputs": [
        {
          "internalType": "address",
          "name": "claimer",
          "type": "address"
        },
        {
          "components": [
            {
              "internalType": "uint256",
              "name": "tokenId",
              "type": "uint256"
            },
            {
              "internalType": "uint256",
              "name": "nonce",
              "type": "uint256"
            },
            {
              "internalType": "uint256",
              "name": "expiry",
              "type": "uint256"
            },
            {
              "internalType": "bytes",
              "name": "signature",
              "type": "bytes"
            }
          ],
          "internalType": "struct WebaverseVoucher.NFTVoucher",
          "name": "voucher",
          "type": "tuple"
        }
      ],
      "name": "claim",
      "outputs": [
        {
          "internalType": "uint256",
          "name": "",
          "type": "uint256"
        }
      ],
      "stateMutability": "nonpayable",
      "type": "function"
    },
    {
      "inputs": [
        {
          "internalType": "address",
          "name": "claimer",
          "type": "address"
        },
        {
          "internalType": "address",
          "name": "contractAddress",
          "type": "address"
        },
        {
          "components": [
            {
              "internalType": "uint256",
              "name": "tokenId",
              "type": "uint256"
            },
            {
              "internalType": "uint256",
              "name": "nonce",
              "type": "uint256"
            },
            {
              "internalType": "uint256",
              "name": "expiry",
              "type": "uint256"
            },
            {
              "internalType": "bytes",
              "name": "signature",
              "type": "bytes"
            }
          ],
          "internalType": "struct WebaverseVoucher.NFTVoucher",
          "name": "voucher",
          "type": "tuple"
        }
      ],
      "name": "externalClaim",
      "outputs": [
        {
          "internalType": "uint256",
          "name": "",
          "type": "uint256"
        }
      ],
      "stateMutability": "nonpayable",
      "type": "function"
    },
    {
      "inputs": [
        {
          "internalType": "uint256",
          "name": "tokenId",
          "type": "uint256"
        }
      ],
      "name": "getApproved",
      "outputs": [
        {
          "internalType": "address",
          "name": "",
          "type": "address"
        }
      ],
      "stateMutability": "view",
      "type": "function"
    },
    {
      "inputs": [
        {
          "internalType": "address",
          "name": "owner",
          "type": "address"
        },
        {
          "internalType": "address",
          "name": "operator",
          "type": "address"
        }
      ],
      "name": "isApprovedForAll",
      "outputs": [
        {
          "internalType": "bool",
          "name": "",
          "type": "bool"
        }
      ],
      "stateMutability": "view",
      "type": "function"
    },
    {
      "inputs": [],
      "name": "name",
      "outputs": [
        {
          "internalType": "string",
          "name": "",
          "type": "string"
        }
      ],
      "stateMutability": "view",
      "type": "function"
    },
    {
      "inputs": [
        {
          "internalType": "uint256",
          "name": "tokenId",
          "type": "uint256"
        }
      ],
      "name": "ownerOf",
      "outputs": [
        {
          "internalType": "address",
          "name": "",
          "type": "address"
        }
      ],
      "stateMutability": "view",
      "type": "function"
    },
    {
      "inputs": [
        {
          "internalType": "address",
          "name": "from",
          "type": "address"
        },
        {
          "internalType": "address",
          "name": "to",
          "type": "address"
        },
        {
          "internalType": "uint256",
          "name": "tokenId",
          "type": "uint256"
        }
      ],
      "name": "safeTransferFrom",
      "outputs": [],
      "stateMutability": "nonpayable",
      "type": "function"
    },
    {
      "inputs": [
        {
          "internalType": "address",
          "name": "from",
          "type": "address"
        },
        {
          "internalType": "address",
          "name": "to",
          "type": "address"
        },
        {
          "internalType": "uint256",
          "name": "tokenId",
          "type": "uint256"
        },
        {
          "internalType": "bytes",
          "name": "_data",
          "type": "bytes"
        }
      ],
      "name": "safeTransferFrom",
      "outputs": [],
      "stateMutability": "nonpayable",
      "type": "function"
    },
    {
      "inputs": [
        {
          "internalType": "address",
          "name": "operator",
          "type": "address"
        },
        {
          "internalType": "bool",
          "name": "approved",
          "type": "bool"
        }
      ],
      "name": "setApprovalForAll",
      "outputs": [],
      "stateMutability": "nonpayable",
      "type": "function"
    },
    {
      "inputs": [
        {
          "internalType": "bytes4",
          "name": "interfaceId",
          "type": "bytes4"
        }
      ],
      "name": "supportsInterface",
      "outputs": [
        {
          "internalType": "bool",
          "name": "",
          "type": "bool"
        }
      ],
      "stateMutability": "view",
      "type": "function"
    },
    {
      "inputs": [],
      "name": "symbol",
      "outputs": [
        {
          "internalType": "string",
          "name": "",
          "type": "string"
        }
      ],
      "stateMutability": "view",
      "type": "function"
    },
    {
      "inputs": [
        {
          "internalType": "uint256",
          "name": "tokenId",
          "type": "uint256"
        }
      ],
      "name": "tokenURI",
      "outputs": [
        {
          "internalType": "string",
          "name": "",
          "type": "string"
        }
      ],
      "stateMutability": "view",
      "type": "function"
    },
    {
      "inputs": [
        {
          "internalType": "address",
          "name": "from",
          "type": "address"
        },
        {
          "internalType": "address",
          "name": "to",
          "type": "address"
        },
        {
          "internalType": "uint256",
          "name": "tokenId",
          "type": "uint256"
        }
      ],
      "name": "transferFrom",
      "outputs": [],
      "stateMutability": "nonpayable",
      "type": "function"
    }
  ],
  "bytecode": "0x6101206040523480156200001257600080fd5b5060405162003e8538038062003e858339818101604052810190620000389190620002bd565b6040518060400160405280601181526020017f5765626176657273652d766f75636865720000000000000000000000000000008152506040518060400160405280600181526020017f310000000000000000000000000000000000000000000000000000000000000081525083838160009080519060200190620000be9291906200019b565b508060019080519060200190620000d79291906200019b565b50505060008280519060200120905060008280519060200120905060007f8b73c3c69bb8fe3d512ecc4cf759cc79239f7b179b0ffacaa9a75d522b39400f90508260c081815250508160e081815250504660a08181525050620001428184846200015f60201b60201c565b608081815250508061010081815250505050505050505062000539565b600083838346306040516020016200017c95949392919062000363565b6040516020818303038152906040528051906020012090509392505050565b828054620001a990620004a5565b90600052602060002090601f016020900481019282620001cd576000855562000219565b82601f10620001e857805160ff191683800117855562000219565b8280016001018555821562000219579182015b8281111562000218578251825591602001919060010190620001fb565b5b5090506200022891906200022c565b5090565b5b80821115620002475760008160009055506001016200022d565b5090565b6000620002626200025c84620003f4565b620003c0565b9050828152602081018484840111156200027b57600080fd5b620002888482856200046f565b509392505050565b600082601f830112620002a257600080fd5b8151620002b48482602086016200024b565b91505092915050565b60008060408385031215620002d157600080fd5b600083015167ffffffffffffffff811115620002ec57600080fd5b620002fa8582860162000290565b925050602083015167ffffffffffffffff8111156200031857600080fd5b620003268582860162000290565b9150509250929050565b6200033b8162000427565b82525050565b6200034c816200043b565b82525050565b6200035d8162000465565b82525050565b600060a0820190506200037a600083018862000341565b62000389602083018762000341565b62000398604083018662000341565b620003a7606083018562000352565b620003b6608083018462000330565b9695505050505050565b6000604051905081810181811067ffffffffffffffff82111715620003ea57620003e96200050a565b5b8060405250919050565b600067ffffffffffffffff8211156200041257620004116200050a565b5b601f19601f8301169050602081019050919050565b6000620004348262000445565b9050919050565b6000819050919050565b600073ffffffffffffffffffffffffffffffffffffffff82169050919050565b6000819050919050565b60005b838110156200048f57808201518184015260208101905062000472565b838111156200049f576000848401525b50505050565b60006002820490506001821680620004be57607f821691505b60208210811415620004d557620004d4620004db565b5b50919050565b7f4e487b7100000000000000000000000000000000000000000000000000000000600052602260045260246000fd5b7f4e487b7100000000000000000000000000000000000000000000000000000000600052604160045260246000fd5b60805160a05160c05160e051610100516139076200057e6000396000612081015260006120c3015260006120a20152600061202e0152600061205601526139076000f3fe608060405234801561001057600080fd5b50600436106101005760003560e01c80636eb2634611610097578063a22cb46511610066578063a22cb465146102e5578063b88d4fde14610301578063c87b56dd1461031d578063e985e9c51461034d57610100565b80636eb263461461023757806370a08231146102675780637e2499cc1461029757806395d89b41146102c757610100565b806323b872dd116100d357806323b872dd1461019f57806337d74fa6146101bb57806342842e0e146101eb5780636352211e1461020757610100565b806301ffc9a71461010557806306fdde0314610135578063081812fc14610153578063095ea7b314610183575b600080fd5b61011f600480360381019061011a9190612641565b61037d565b60405161012c919061309a565b60405180910390f35b61013d61038f565b60405161014a9190613192565b60405180910390f35b61016d60048036038101906101689190612693565b610421565b60405161017a9190612ffc565b60405180910390f35b61019d60048036038101906101989190612605565b6104a6565b005b6101b960048036038101906101b491906124ab565b6105be565b005b6101d560048036038101906101d09190612444565b61061e565b6040516101e29190613454565b60405180910390f35b610205600480360381019061020091906124ab565b610984565b005b610221600480360381019061021c9190612693565b6109a4565b60405161022e9190612ffc565b60405180910390f35b610251600480360381019061024c91906125b1565b610a56565b60405161025e9190613454565b60405180910390f35b610281600480360381019061027c91906123b6565b610bdd565b60405161028e9190613454565b60405180910390f35b6102b160048036038101906102ac9190612693565b610c95565b6040516102be919061309a565b60405180910390f35b6102cf610cb5565b6040516102dc9190613192565b60405180910390f35b6102ff60048036038101906102fa9190612575565b610d47565b005b61031b600480360381019061031691906124fa565b610ec8565b005b61033760048036038101906103329190612693565b610f2a565b6040516103449190613192565b60405180910390f35b61036760048036038101906103629190612408565b61107c565b604051610374919061309a565b60405180910390f35b600061038882611110565b9050919050565b60606000805461039e906136f2565b80601f01602080910402602001604051908101604052809291908181526020018280546103ca906136f2565b80156104175780601f106103ec57610100808354040283529160200191610417565b820191906000526020600020905b8154815290600101906020018083116103fa57829003601f168201915b5050505050905090565b600061042c826111f2565b61046b576040517f08c379a000000000000000000000000000000000000000000000000000000000815260040161046290613374565b60405180910390fd5b6004600083815260200190815260200160002060009054906101000a900473ffffffffffffffffffffffffffffffffffffffff169050919050565b60006104b1826109a4565b90508073ffffffffffffffffffffffffffffffffffffffff168373ffffffffffffffffffffffffffffffffffffffff161415610522576040517f08c379a0000000000000000000000000000000000000000000000000000000008152600401610519906133f4565b60405180910390fd5b8073ffffffffffffffffffffffffffffffffffffffff1661054161125e565b73ffffffffffffffffffffffffffffffffffffffff161480610570575061056f8161056a61125e565b61107c565b5b6105af576040517f08c379a00000000000000000000000000000000000000000000000000000000081526004016105a6906132d4565b60405180910390fd5b6105b98383611266565b505050565b6105cf6105c961125e565b8261131f565b61060e576040517f08c379a000000000000000000000000000000000000000000000000000000000815260040161060590613434565b60405180910390fd5b6106198383836113fd565b505050565b600080839050600061062f84611659565b90508173ffffffffffffffffffffffffffffffffffffffff16636352211e85600001356040518263ffffffff1660e01b815260040161066e9190613454565b60206040518083038186803b15801561068657600080fd5b505afa15801561069a573d6000803e3d6000fd5b505050506040513d601f19601f820116820180604052508101906106be91906123df565b73ffffffffffffffffffffffffffffffffffffffff168173ffffffffffffffffffffffffffffffffffffffff161461072b576040517f08c379a000000000000000000000000000000000000000000000000000000000815260040161072290613414565b60405180910390fd5b3073ffffffffffffffffffffffffffffffffffffffff168273ffffffffffffffffffffffffffffffffffffffff1663081812fc86600001356040518263ffffffff1660e01b815260040161077f9190613454565b60206040518083038186803b15801561079757600080fd5b505afa1580156107ab573d6000803e3d6000fd5b505050506040513d601f19601f820116820180604052508101906107cf91906123df565b73ffffffffffffffffffffffffffffffffffffffff1614610825576040517f08c379a000000000000000000000000000000000000000000000000000000000815260040161081c906133d4565b60405180910390fd5b836040013542111561086c576040517f08c379a000000000000000000000000000000000000000000000000000000000815260040161086390613214565b60405180910390fd5b600760008560200135815260200190815260200160002060009054906101000a900460ff16156108d1576040517f08c379a00000000000000000000000000000000000000000000000000000000081526004016108c8906132b4565b60405180910390fd5b8173ffffffffffffffffffffffffffffffffffffffff166323b872dd828887600001356040518463ffffffff1660e01b815260040161091293929190613017565b600060405180830381600087803b15801561092c57600080fd5b505af1158015610940573d6000803e3d6000fd5b505050506001600760008660200135815260200190815260200160002060006101000a81548160ff0219169083151502179055508360000135925050509392505050565b61099f83838360405180602001604052806000815250610ec8565b505050565b6000806002600084815260200190815260200160002060009054906101000a900473ffffffffffffffffffffffffffffffffffffffff169050600073ffffffffffffffffffffffffffffffffffffffff168173ffffffffffffffffffffffffffffffffffffffff161415610a4d576040517f08c379a0000000000000000000000000000000000000000000000000000000008152600401610a4490613314565b60405180910390fd5b80915050919050565b600080610a6283611659565b9050610a7183600001356109a4565b73ffffffffffffffffffffffffffffffffffffffff168173ffffffffffffffffffffffffffffffffffffffff1614610ade576040517f08c379a0000000000000000000000000000000000000000000000000000000008152600401610ad590613414565b60405180910390fd5b8260400135421115610b25576040517f08c379a0000000000000000000000000000000000000000000000000000000008152600401610b1c90613214565b60405180910390fd5b60001515600760008560200135815260200190815260200160002060009054906101000a900460ff16151514610b90576040517f08c379a0000000000000000000000000000000000000000000000000000000008152600401610b87906132b4565b60405180910390fd5b610b9f818585600001356113fd565b6001600760008560200135815260200190815260200160002060006101000a81548160ff021916908315150217905550826000013591505092915050565b60008073ffffffffffffffffffffffffffffffffffffffff168273ffffffffffffffffffffffffffffffffffffffff161415610c4e576040517f08c379a0000000000000000000000000000000000000000000000000000000008152600401610c45906132f4565b60405180910390fd5b600360008373ffffffffffffffffffffffffffffffffffffffff1673ffffffffffffffffffffffffffffffffffffffff168152602001908152602001600020549050919050565b60076020528060005260406000206000915054906101000a900460ff1681565b606060018054610cc4906136f2565b80601f0160208091040260200160405190810160405280929190818152602001828054610cf0906136f2565b8015610d3d5780601f10610d1257610100808354040283529160200191610d3d565b820191906000526020600020905b815481529060010190602001808311610d2057829003601f168201915b5050505050905090565b610d4f61125e565b73ffffffffffffffffffffffffffffffffffffffff168273ffffffffffffffffffffffffffffffffffffffff161415610dbd576040517f08c379a0000000000000000000000000000000000000000000000000000000008152600401610db490613254565b60405180910390fd5b8060056000610dca61125e565b73ffffffffffffffffffffffffffffffffffffffff1673ffffffffffffffffffffffffffffffffffffffff16815260200190815260200160002060008473ffffffffffffffffffffffffffffffffffffffff1673ffffffffffffffffffffffffffffffffffffffff16815260200190815260200160002060006101000a81548160ff0219169083151502179055508173ffffffffffffffffffffffffffffffffffffffff16610e7761125e565b73ffffffffffffffffffffffffffffffffffffffff167f17307eab39ab6107e8899845ad3d59bd9653f200f220920489ca2b5937696c3183604051610ebc919061309a565b60405180910390a35050565b610ed9610ed361125e565b8361131f565b610f18576040517f08c379a0000000000000000000000000000000000000000000000000000000008152600401610f0f90613434565b60405180910390fd5b610f24848484846116cb565b50505050565b6060610f35826111f2565b610f74576040517f08c379a0000000000000000000000000000000000000000000000000000000008152600401610f6b90613354565b60405180910390fd5b6000600660008481526020019081526020016000208054610f94906136f2565b80601f0160208091040260200160405190810160405280929190818152602001828054610fc0906136f2565b801561100d5780601f10610fe25761010080835404028352916020019161100d565b820191906000526020600020905b815481529060010190602001808311610ff057829003601f168201915b50505050509050600061101e611727565b9050600081511415611034578192505050611077565b600082511115611069578082604051602001611051929190612fa1565b60405160208183030381529060405292505050611077565b6110728461173e565b925050505b919050565b6000600560008473ffffffffffffffffffffffffffffffffffffffff1673ffffffffffffffffffffffffffffffffffffffff16815260200190815260200160002060008373ffffffffffffffffffffffffffffffffffffffff1673ffffffffffffffffffffffffffffffffffffffff16815260200190815260200160002060009054906101000a900460ff16905092915050565b60007f80ac58cd000000000000000000000000000000000000000000000000000000007bffffffffffffffffffffffffffffffffffffffffffffffffffffffff1916827bffffffffffffffffffffffffffffffffffffffffffffffffffffffff191614806111db57507f5b5e139f000000000000000000000000000000000000000000000000000000007bffffffffffffffffffffffffffffffffffffffffffffffffffffffff1916827bffffffffffffffffffffffffffffffffffffffffffffffffffffffff1916145b806111eb57506111ea826117e5565b5b9050919050565b60008073ffffffffffffffffffffffffffffffffffffffff166002600084815260200190815260200160002060009054906101000a900473ffffffffffffffffffffffffffffffffffffffff1673ffffffffffffffffffffffffffffffffffffffff1614159050919050565b600033905090565b816004600083815260200190815260200160002060006101000a81548173ffffffffffffffffffffffffffffffffffffffff021916908373ffffffffffffffffffffffffffffffffffffffff160217905550808273ffffffffffffffffffffffffffffffffffffffff166112d9836109a4565b73ffffffffffffffffffffffffffffffffffffffff167f8c5be1e5ebec7d5bd14f71427d1e84f3dd0314c0f7b2291e5b200ac8c7c3b92560405160405180910390a45050565b600061132a826111f2565b611369576040517f08c379a000000000000000000000000000000000000000000000000000000000815260040161136090613294565b60405180910390fd5b6000611374836109a4565b90508073ffffffffffffffffffffffffffffffffffffffff168473ffffffffffffffffffffffffffffffffffffffff1614806113e357508373ffffffffffffffffffffffffffffffffffffffff166113cb84610421565b73ffffffffffffffffffffffffffffffffffffffff16145b806113f457506113f3818561107c565b5b91505092915050565b8273ffffffffffffffffffffffffffffffffffffffff1661141d826109a4565b73ffffffffffffffffffffffffffffffffffffffff1614611473576040517f08c379a000000000000000000000000000000000000000000000000000000000815260040161146a90613394565b60405180910390fd5b600073ffffffffffffffffffffffffffffffffffffffff168273ffffffffffffffffffffffffffffffffffffffff1614156114e3576040517f08c379a00000000000000000000000000000000000000000000000000000000081526004016114da90613234565b60405180910390fd5b6114ee83838361184f565b6114f9600082611266565b6001600360008573ffffffffffffffffffffffffffffffffffffffff1673ffffffffffffffffffffffffffffffffffffffff168152602001908152602001600020600082825461154991906135f1565b925050819055506001600360008473ffffffffffffffffffffffffffffffffffffffff1673ffffffffffffffffffffffffffffffffffffffff16815260200190815260200160002060008282546115a0919061356a565b92505081905550816002600083815260200190815260200160002060006101000a81548173ffffffffffffffffffffffffffffffffffffffff021916908373ffffffffffffffffffffffffffffffffffffffff160217905550808273ffffffffffffffffffffffffffffffffffffffff168473ffffffffffffffffffffffffffffffffffffffff167fddf252ad1be2c89b69c2b068fc378daa952ba7f163c4a11628f55a4df523b3ef60405160405180910390a4505050565b60008061166583611854565b90506116c38184806060019061167b919061346f565b8080601f016020809104026020016040519081016040528093929190818152602001838380828437600081840152601f19601f820116905080830192505050505050506118be565b915050919050565b6116d68484846113fd565b6116e2848484846118e5565b611721576040517f08c379a0000000000000000000000000000000000000000000000000000000008152600401611718906131f4565b60405180910390fd5b50505050565b606060405180602001604052806000815250905090565b6060611749826111f2565b611788576040517f08c379a000000000000000000000000000000000000000000000000000000000815260040161177f906133b4565b60405180910390fd5b6000611792611727565b905060008151116117b257604051806020016040528060008152506117dd565b806117bc84611a7c565b6040516020016117cd929190612fa1565b6040516020818303038152906040525b915050919050565b60007f01ffc9a7000000000000000000000000000000000000000000000000000000007bffffffffffffffffffffffffffffffffffffffffffffffffffffffff1916827bffffffffffffffffffffffffffffffffffffffffffffffffffffffff1916149050919050565b505050565b60006118b77fa71ded31e2bec61339bad6247783eb9b59b4ad6bc34cbc5a94eadbb2825c472283600001358460200135856040013560405160200161189c9493929190613108565b60405160208183030381529060405280519060200120611c29565b9050919050565b60008060006118cd8585611c43565b915091506118da81611cc6565b819250505092915050565b60006119068473ffffffffffffffffffffffffffffffffffffffff16612017565b15611a6f578373ffffffffffffffffffffffffffffffffffffffff1663150b7a0261192f61125e565b8786866040518563ffffffff1660e01b8152600401611951949392919061304e565b602060405180830381600087803b15801561196b57600080fd5b505af192505050801561199c57506040513d601f19601f82011682018060405250810190611999919061266a565b60015b611a1f573d80600081146119cc576040519150601f19603f3d011682016040523d82523d6000602084013e6119d1565b606091505b50600081511415611a17576040517f08c379a0000000000000000000000000000000000000000000000000000000008152600401611a0e906131f4565b60405180910390fd5b805181602001fd5b63150b7a0260e01b7bffffffffffffffffffffffffffffffffffffffffffffffffffffffff1916817bffffffffffffffffffffffffffffffffffffffffffffffffffffffff191614915050611a74565b600190505b949350505050565b60606000821415611ac4576040518060400160405280600181526020017f30000000000000000000000000000000000000000000000000000000000000008152509050611c24565b600082905060005b60008214611af6578080611adf90613724565b915050600a82611aef91906135c0565b9150611acc565b60008167ffffffffffffffff811115611b38577f4e487b7100000000000000000000000000000000000000000000000000000000600052604160045260246000fd5b6040519080825280601f01601f191660200182016040528015611b6a5781602001600182028036833780820191505090505b5090505b60008514611c1d57600182611b8391906135f1565b9150600a85611b929190613777565b6030611b9e919061356a565b60f81b818381518110611bda577f4e487b7100000000000000000000000000000000000000000000000000000000600052603260045260246000fd5b60200101907effffffffffffffffffffffffffffffffffffffffffffffffffffffffffffff1916908160001a905350600a85611c1691906135c0565b9450611b6e565b8093505050505b919050565b6000611c3c611c3661202a565b836120ed565b9050919050565b600080604183511415611c855760008060006020860151925060408601519150606086015160001a9050611c7987828585612120565b94509450505050611cbf565b604083511415611cb6576000806020850151915060408501519050611cab86838361222d565b935093505050611cbf565b60006002915091505b9250929050565b60006004811115611d00577f4e487b7100000000000000000000000000000000000000000000000000000000600052602160045260246000fd5b816004811115611d39577f4e487b7100000000000000000000000000000000000000000000000000000000600052602160045260246000fd5b1415611d4457612014565b60016004811115611d7e577f4e487b7100000000000000000000000000000000000000000000000000000000600052602160045260246000fd5b816004811115611db7577f4e487b7100000000000000000000000000000000000000000000000000000000600052602160045260246000fd5b1415611df8576040517f08c379a0000000000000000000000000000000000000000000000000000000008152600401611def906131b4565b60405180910390fd5b60026004811115611e32577f4e487b7100000000000000000000000000000000000000000000000000000000600052602160045260246000fd5b816004811115611e6b577f4e487b7100000000000000000000000000000000000000000000000000000000600052602160045260246000fd5b1415611eac576040517f08c379a0000000000000000000000000000000000000000000000000000000008152600401611ea3906131d4565b60405180910390fd5b60036004811115611ee6577f4e487b7100000000000000000000000000000000000000000000000000000000600052602160045260246000fd5b816004811115611f1f577f4e487b7100000000000000000000000000000000000000000000000000000000600052602160045260246000fd5b1415611f60576040517f08c379a0000000000000000000000000000000000000000000000000000000008152600401611f5790613274565b60405180910390fd5b600480811115611f99577f4e487b7100000000000000000000000000000000000000000000000000000000600052602160045260246000fd5b816004811115611fd2577f4e487b7100000000000000000000000000000000000000000000000000000000600052602160045260246000fd5b1415612013576040517f08c379a000000000000000000000000000000000000000000000000000000000815260040161200a90613334565b60405180910390fd5b5b50565b600080823b905060008111915050919050565b60007f000000000000000000000000000000000000000000000000000000000000000046141561207c577f000000000000000000000000000000000000000000000000000000000000000090506120ea565b6120e77f00000000000000000000000000000000000000000000000000000000000000007f00000000000000000000000000000000000000000000000000000000000000007f000000000000000000000000000000000000000000000000000000000000000061227b565b90505b90565b60008282604051602001612102929190612fc5565b60405160208183030381529060405280519060200120905092915050565b6000807f7fffffffffffffffffffffffffffffff5d576e7357a4501ddfe92f46681b20a08360001c111561215b576000600391509150612224565b601b8560ff16141580156121735750601c8560ff1614155b15612185576000600491509150612224565b6000600187878787604051600081526020016040526040516121aa949392919061314d565b6020604051602081039080840390855afa1580156121cc573d6000803e3d6000fd5b505050602060405103519050600073ffffffffffffffffffffffffffffffffffffffff168173ffffffffffffffffffffffffffffffffffffffff16141561221b57600060019250925050612224565b80600092509250505b94509492505050565b6000806000807f7fffffffffffffffffffffffffffffffffffffffffffffffffffffffffffffff85169150601b8560ff1c01905061226d87828885612120565b935093505050935093915050565b600083838346306040516020016122969594939291906130b5565b6040516020818303038152906040528051906020012090509392505050565b60006122c86122c3846134f7565b6134c6565b9050828152602081018484840111156122e057600080fd5b6122eb8482856136b0565b509392505050565b60008135905061230281613875565b92915050565b60008151905061231781613875565b92915050565b60008135905061232c8161388c565b92915050565b600081359050612341816138a3565b92915050565b600081519050612356816138a3565b92915050565b600082601f83011261236d57600080fd5b813561237d8482602086016122b5565b91505092915050565b60006080828403121561239857600080fd5b81905092915050565b6000813590506123b0816138ba565b92915050565b6000602082840312156123c857600080fd5b60006123d6848285016122f3565b91505092915050565b6000602082840312156123f157600080fd5b60006123ff84828501612308565b91505092915050565b6000806040838503121561241b57600080fd5b6000612429858286016122f3565b925050602061243a858286016122f3565b9150509250929050565b60008060006060848603121561245957600080fd5b6000612467868287016122f3565b9350506020612478868287016122f3565b925050604084013567ffffffffffffffff81111561249557600080fd5b6124a186828701612386565b9150509250925092565b6000806000606084860312156124c057600080fd5b60006124ce868287016122f3565b93505060206124df868287016122f3565b92505060406124f0868287016123a1565b9150509250925092565b6000806000806080858703121561251057600080fd5b600061251e878288016122f3565b945050602061252f878288016122f3565b9350506040612540878288016123a1565b925050606085013567ffffffffffffffff81111561255d57600080fd5b6125698782880161235c565b91505092959194509250565b6000806040838503121561258857600080fd5b6000612596858286016122f3565b92505060206125a78582860161231d565b9150509250929050565b600080604083850312156125c457600080fd5b60006125d2858286016122f3565b925050602083013567ffffffffffffffff8111156125ef57600080fd5b6125fb85828601612386565b9150509250929050565b6000806040838503121561261857600080fd5b6000612626858286016122f3565b9250506020612637858286016123a1565b9150509250929050565b60006020828403121561265357600080fd5b600061266184828501612332565b91505092915050565b60006020828403121561267c57600080fd5b600061268a84828501612347565b91505092915050565b6000602082840312156126a557600080fd5b60006126b3848285016123a1565b91505092915050565b6126c581613625565b82525050565b6126d481613637565b82525050565b6126e381613643565b82525050565b6126fa6126f582613643565b61376d565b82525050565b600061270b82613527565b612715818561353d565b93506127258185602086016136bf565b61272e81613864565b840191505092915050565b600061274482613532565b61274e818561354e565b935061275e8185602086016136bf565b61276781613864565b840191505092915050565b600061277d82613532565b612787818561355f565b93506127978185602086016136bf565b80840191505092915050565b60006127b060188361354e565b91507f45434453413a20696e76616c6964207369676e617475726500000000000000006000830152602082019050919050565b60006127f0601f8361354e565b91507f45434453413a20696e76616c6964207369676e6174757265206c656e677468006000830152602082019050919050565b600061283060328361354e565b91507f4552433732313a207472616e7366657220746f206e6f6e20455243373231526560008301527f63656976657220696d706c656d656e74657200000000000000000000000000006020830152604082019050919050565b6000612896601b8361354e565b91507f566f75636865722068617320616c7265616479206578706972656400000000006000830152602082019050919050565b60006128d660028361355f565b91507f19010000000000000000000000000000000000000000000000000000000000006000830152600282019050919050565b600061291660248361354e565b91507f4552433732313a207472616e7366657220746f20746865207a65726f2061646460008301527f72657373000000000000000000000000000000000000000000000000000000006020830152604082019050919050565b600061297c60198361354e565b91507f4552433732313a20617070726f766520746f2063616c6c6572000000000000006000830152602082019050919050565b60006129bc60228361354e565b91507f45434453413a20696e76616c6964207369676e6174757265202773272076616c60008301527f75650000000000000000000000000000000000000000000000000000000000006020830152604082019050919050565b6000612a22602c8361354e565b91507f4552433732313a206f70657261746f7220717565727920666f72206e6f6e657860008301527f697374656e7420746f6b656e00000000000000000000000000000000000000006020830152604082019050919050565b6000612a8860138361354e565b91507f496e76616c6964206e6f6e63652076616c7565000000000000000000000000006000830152602082019050919050565b6000612ac860388361354e565b91507f4552433732313a20617070726f76652063616c6c6572206973206e6f74206f7760008301527f6e6572206e6f7220617070726f76656420666f7220616c6c00000000000000006020830152604082019050919050565b6000612b2e602a8361354e565b91507f4552433732313a2062616c616e636520717565727920666f7220746865207a6560008301527f726f2061646472657373000000000000000000000000000000000000000000006020830152604082019050919050565b6000612b9460298361354e565b91507f4552433732313a206f776e657220717565727920666f72206e6f6e657869737460008301527f656e7420746f6b656e00000000000000000000000000000000000000000000006020830152604082019050919050565b6000612bfa60228361354e565b91507f45434453413a20696e76616c6964207369676e6174757265202776272076616c60008301527f75650000000000000000000000000000000000000000000000000000000000006020830152604082019050919050565b6000612c6060318361354e565b91507f45524337323155524953746f726167653a2055524920717565727920666f722060008301527f6e6f6e6578697374656e7420746f6b656e0000000000000000000000000000006020830152604082019050919050565b6000612cc6602c8361354e565b91507f4552433732313a20617070726f76656420717565727920666f72206e6f6e657860008301527f697374656e7420746f6b656e00000000000000000000000000000000000000006020830152604082019050919050565b6000612d2c60298361354e565b91507f4552433732313a207472616e73666572206f6620746f6b656e2074686174206960008301527f73206e6f74206f776e00000000000000000000000000000000000000000000006020830152604082019050919050565b6000612d92602f8361354e565b91507f4552433732314d657461646174613a2055524920717565727920666f72206e6f60008301527f6e6578697374656e7420746f6b656e00000000000000000000000000000000006020830152604082019050919050565b6000612df8602c8361354e565b91507f5468697320636f6e747261637420686173206e6f20617070726f76616c20666f60008301527f72207468697320746f6b656e00000000000000000000000000000000000000006020830152604082019050919050565b6000612e5e60218361354e565b91507f4552433732313a20617070726f76616c20746f2063757272656e74206f776e6560008301527f72000000000000000000000000000000000000000000000000000000000000006020830152604082019050919050565b6000612ec460278361354e565b91507f417574686f72697a6174696f6e206661696c65643a20496e76616c696420736960008301527f676e6174757265000000000000000000000000000000000000000000000000006020830152604082019050919050565b6000612f2a60318361354e565b91507f4552433732313a207472616e736665722063616c6c6572206973206e6f74206f60008301527f776e6572206e6f7220617070726f7665640000000000000000000000000000006020830152604082019050919050565b612f8c81613699565b82525050565b612f9b816136a3565b82525050565b6000612fad8285612772565b9150612fb98284612772565b91508190509392505050565b6000612fd0826128c9565b9150612fdc82856126e9565b602082019150612fec82846126e9565b6020820191508190509392505050565b600060208201905061301160008301846126bc565b92915050565b600060608201905061302c60008301866126bc565b61303960208301856126bc565b6130466040830184612f83565b949350505050565b600060808201905061306360008301876126bc565b61307060208301866126bc565b61307d6040830185612f83565b818103606083015261308f8184612700565b905095945050505050565b60006020820190506130af60008301846126cb565b92915050565b600060a0820190506130ca60008301886126da565b6130d760208301876126da565b6130e460408301866126da565b6130f16060830185612f83565b6130fe60808301846126bc565b9695505050505050565b600060808201905061311d60008301876126da565b61312a6020830186612f83565b6131376040830185612f83565b6131446060830184612f83565b95945050505050565b600060808201905061316260008301876126da565b61316f6020830186612f92565b61317c60408301856126da565b61318960608301846126da565b95945050505050565b600060208201905081810360008301526131ac8184612739565b905092915050565b600060208201905081810360008301526131cd816127a3565b9050919050565b600060208201905081810360008301526131ed816127e3565b9050919050565b6000602082019050818103600083015261320d81612823565b9050919050565b6000602082019050818103600083015261322d81612889565b9050919050565b6000602082019050818103600083015261324d81612909565b9050919050565b6000602082019050818103600083015261326d8161296f565b9050919050565b6000602082019050818103600083015261328d816129af565b9050919050565b600060208201905081810360008301526132ad81612a15565b9050919050565b600060208201905081810360008301526132cd81612a7b565b9050919050565b600060208201905081810360008301526132ed81612abb565b9050919050565b6000602082019050818103600083015261330d81612b21565b9050919050565b6000602082019050818103600083015261332d81612b87565b9050919050565b6000602082019050818103600083015261334d81612bed565b9050919050565b6000602082019050818103600083015261336d81612c53565b9050919050565b6000602082019050818103600083015261338d81612cb9565b9050919050565b600060208201905081810360008301526133ad81612d1f565b9050919050565b600060208201905081810360008301526133cd81612d85565b9050919050565b600060208201905081810360008301526133ed81612deb565b9050919050565b6000602082019050818103600083015261340d81612e51565b9050919050565b6000602082019050818103600083015261342d81612eb7565b9050919050565b6000602082019050818103600083015261344d81612f1d565b9050919050565b60006020820190506134696000830184612f83565b92915050565b6000808335600160200384360303811261348857600080fd5b80840192508235915067ffffffffffffffff8211156134a657600080fd5b6020830192506001820236038313156134be57600080fd5b509250929050565b6000604051905081810181811067ffffffffffffffff821117156134ed576134ec613835565b5b8060405250919050565b600067ffffffffffffffff82111561351257613511613835565b5b601f19601f8301169050602081019050919050565b600081519050919050565b600081519050919050565b600082825260208201905092915050565b600082825260208201905092915050565b600081905092915050565b600061357582613699565b915061358083613699565b9250827fffffffffffffffffffffffffffffffffffffffffffffffffffffffffffffffff038211156135b5576135b46137a8565b5b828201905092915050565b60006135cb82613699565b91506135d683613699565b9250826135e6576135e56137d7565b5b828204905092915050565b60006135fc82613699565b915061360783613699565b92508282101561361a576136196137a8565b5b828203905092915050565b600061363082613679565b9050919050565b60008115159050919050565b6000819050919050565b60007fffffffff0000000000000000000000000000000000000000000000000000000082169050919050565b600073ffffffffffffffffffffffffffffffffffffffff82169050919050565b6000819050919050565b600060ff82169050919050565b82818337600083830152505050565b60005b838110156136dd5780820151818401526020810190506136c2565b838111156136ec576000848401525b50505050565b6000600282049050600182168061370a57607f821691505b6020821081141561371e5761371d613806565b5b50919050565b600061372f82613699565b91507fffffffffffffffffffffffffffffffffffffffffffffffffffffffffffffffff821415613762576137616137a8565b5b600182019050919050565b6000819050919050565b600061378282613699565b915061378d83613699565b92508261379d5761379c6137d7565b5b828206905092915050565b7f4e487b7100000000000000000000000000000000000000000000000000000000600052601160045260246000fd5b7f4e487b7100000000000000000000000000000000000000000000000000000000600052601260045260246000fd5b7f4e487b7100000000000000000000000000000000000000000000000000000000600052602260045260246000fd5b7f4e487b7100000000000000000000000000000000000000000000000000000000600052604160045260246000fd5b6000601f19601f8301169050919050565b61387e81613625565b811461388957600080fd5b50565b61389581613637565b81146138a057600080fd5b50565b6138ac8161364d565b81146138b757600080fd5b50565b6138c381613699565b81146138ce57600080fd5b5056fea2646970667358221220c02fbb98eb10407517aa5eab0d5ca31b0d984f9d16e029740e33dd01d9b2ba4a64736f6c63430008000033",
  "linkReferences": {},
  "deployedLinkReferences": {}
}