{
  "_format": "hh-sol-artifact-1",
  "contractName": "WebaverseERC20",
  "sourceName": "contracts/main/WebaverseERC20.sol",
  "abi": [
    {
      "inputs": [],
      "stateMutability": "nonpayable",
      "type": "constructor"
    },
    {
      "anonymous": false,
      "inputs": [
        {
          "indexed": true,
          "internalType": "address",
          "name": "owner",
          "type": "address"
        },
        {
          "indexed": true,
          "internalType": "address",
          "name": "spender",
          "type": "address"
        },
        {
          "indexed": false,
          "internalType": "uint256",
          "name": "value",
          "type": "uint256"
        }
      ],
      "name": "Approval",
      "type": "event"
    },
    {
      "anonymous": false,
      "inputs": [
        {
          "indexed": true,
          "internalType": "address",
          "name": "previousOwner",
          "type": "address"
        },
        {
          "indexed": true,
          "internalType": "address",
          "name": "newOwner",
          "type": "address"
        }
      ],
      "name": "OwnershipTransferred",
      "type": "event"
    },
    {
      "anonymous": false,
      "inputs": [
        {
          "indexed": true,
          "internalType": "address",
          "name": "from",
          "type": "address"
        },
        {
          "indexed": true,
          "internalType": "address",
          "name": "to",
          "type": "address"
        },
        {
          "indexed": false,
          "internalType": "uint256",
          "name": "value",
          "type": "uint256"
        }
      ],
      "name": "Transfer",
      "type": "event"
    },
    {
      "inputs": [
        {
          "internalType": "address",
          "name": "owner",
          "type": "address"
        },
        {
          "internalType": "address",
          "name": "spender",
          "type": "address"
        }
      ],
      "name": "allowance",
      "outputs": [
        {
          "internalType": "uint256",
          "name": "",
          "type": "uint256"
        }
      ],
      "stateMutability": "view",
      "type": "function"
    },
    {
      "inputs": [
        {
          "internalType": "address",
          "name": "spender",
          "type": "address"
        },
        {
          "internalType": "uint256",
          "name": "amount",
          "type": "uint256"
        }
      ],
      "name": "approve",
      "outputs": [
        {
          "internalType": "bool",
          "name": "",
          "type": "bool"
        }
      ],
      "stateMutability": "nonpayable",
      "type": "function"
    },
    {
      "inputs": [
        {
          "internalType": "address",
          "name": "account",
          "type": "address"
        }
      ],
      "name": "balanceOf",
      "outputs": [
        {
          "internalType": "uint256",
          "name": "",
          "type": "uint256"
        }
      ],
      "stateMutability": "view",
      "type": "function"
    },
    {
      "inputs": [
        {
          "internalType": "uint256",
          "name": "",
          "type": "uint256"
        }
      ],
      "name": "burnedNonces",
      "outputs": [
        {
          "internalType": "bool",
          "name": "",
          "type": "bool"
        }
      ],
      "stateMutability": "view",
      "type": "function"
    },
    {
      "inputs": [
        {
          "internalType": "address",
          "name": "claimer",
          "type": "address"
        },
        {
          "components": [
            {
              "internalType": "uint256",
              "name": "tokenId",
              "type": "uint256"
            },
            {
              "internalType": "uint256",
              "name": "balance",
              "type": "uint256"
            },
            {
              "internalType": "uint256",
              "name": "nonce",
              "type": "uint256"
            },
            {
              "internalType": "uint256",
              "name": "expiry",
              "type": "uint256"
            },
            {
              "internalType": "bytes",
              "name": "signature",
              "type": "bytes"
            }
          ],
          "internalType": "struct WBVRSVoucher.NFTVoucher",
          "name": "voucher",
          "type": "tuple"
        }
      ],
      "name": "claim",
      "outputs": [
        {
          "internalType": "uint256",
          "name": "",
          "type": "uint256"
        }
      ],
      "stateMutability": "nonpayable",
      "type": "function"
    },
    {
      "inputs": [],
      "name": "decimals",
      "outputs": [
        {
          "internalType": "uint8",
          "name": "",
          "type": "uint8"
        }
      ],
      "stateMutability": "view",
      "type": "function"
    },
    {
      "inputs": [
        {
          "internalType": "address",
          "name": "spender",
          "type": "address"
        },
        {
          "internalType": "uint256",
          "name": "subtractedValue",
          "type": "uint256"
        }
      ],
      "name": "decreaseAllowance",
      "outputs": [
        {
          "internalType": "bool",
          "name": "",
          "type": "bool"
        }
      ],
      "stateMutability": "nonpayable",
      "type": "function"
    },
    {
      "inputs": [
        {
          "internalType": "address",
          "name": "claimer",
          "type": "address"
        },
        {
          "internalType": "address",
          "name": "contractAddress",
          "type": "address"
        },
        {
          "components": [
            {
              "internalType": "uint256",
              "name": "tokenId",
              "type": "uint256"
            },
            {
              "internalType": "uint256",
              "name": "balance",
              "type": "uint256"
            },
            {
              "internalType": "uint256",
              "name": "nonce",
              "type": "uint256"
            },
            {
              "internalType": "uint256",
              "name": "expiry",
              "type": "uint256"
            },
            {
              "internalType": "bytes",
              "name": "signature",
              "type": "bytes"
            }
          ],
          "internalType": "struct WBVRSVoucher.NFTVoucher",
          "name": "voucher",
          "type": "tuple"
        }
      ],
      "name": "externalClaim",
      "outputs": [
        {
          "internalType": "uint256",
          "name": "",
          "type": "uint256"
        }
      ],
      "stateMutability": "nonpayable",
      "type": "function"
    },
    {
      "inputs": [
        {
          "internalType": "address",
          "name": "spender",
          "type": "address"
        },
        {
          "internalType": "uint256",
          "name": "addedValue",
          "type": "uint256"
        }
      ],
      "name": "increaseAllowance",
      "outputs": [
        {
          "internalType": "bool",
          "name": "",
          "type": "bool"
        }
      ],
      "stateMutability": "nonpayable",
      "type": "function"
    },
    {
      "inputs": [
        {
          "internalType": "address",
          "name": "account",
          "type": "address"
        },
        {
          "internalType": "uint256",
          "name": "amount",
          "type": "uint256"
        }
      ],
      "name": "mint",
      "outputs": [],
      "stateMutability": "nonpayable",
      "type": "function"
    },
    {
      "inputs": [],
      "name": "name",
      "outputs": [
        {
          "internalType": "string",
          "name": "",
          "type": "string"
        }
      ],
      "stateMutability": "view",
      "type": "function"
    },
    {
      "inputs": [],
      "name": "owner",
      "outputs": [
        {
          "internalType": "address",
          "name": "",
          "type": "address"
        }
      ],
      "stateMutability": "view",
      "type": "function"
    },
    {
      "inputs": [],
      "name": "renounceOwnership",
      "outputs": [],
      "stateMutability": "nonpayable",
      "type": "function"
    },
    {
      "inputs": [],
      "name": "symbol",
      "outputs": [
        {
          "internalType": "string",
          "name": "",
          "type": "string"
        }
      ],
      "stateMutability": "view",
      "type": "function"
    },
    {
      "inputs": [],
      "name": "totalSupply",
      "outputs": [
        {
          "internalType": "uint256",
          "name": "",
          "type": "uint256"
        }
      ],
      "stateMutability": "view",
      "type": "function"
    },
    {
      "inputs": [
        {
          "internalType": "address",
          "name": "recipient",
          "type": "address"
        },
        {
          "internalType": "uint256",
          "name": "amount",
          "type": "uint256"
        }
      ],
      "name": "transfer",
      "outputs": [
        {
          "internalType": "bool",
          "name": "",
          "type": "bool"
        }
      ],
      "stateMutability": "nonpayable",
      "type": "function"
    },
    {
      "inputs": [
        {
          "internalType": "address",
          "name": "sender",
          "type": "address"
        },
        {
          "internalType": "address",
          "name": "recipient",
          "type": "address"
        },
        {
          "internalType": "uint256",
          "name": "amount",
          "type": "uint256"
        }
      ],
      "name": "transferFrom",
      "outputs": [
        {
          "internalType": "bool",
          "name": "",
          "type": "bool"
        }
      ],
      "stateMutability": "nonpayable",
      "type": "function"
    },
    {
      "inputs": [
        {
          "internalType": "address",
          "name": "newOwner",
          "type": "address"
        }
      ],
      "name": "transferOwnership",
      "outputs": [],
      "stateMutability": "nonpayable",
      "type": "function"
    },
    {
      "inputs": [
        {
          "components": [
            {
              "internalType": "uint256",
              "name": "tokenId",
              "type": "uint256"
            },
            {
              "internalType": "uint256",
              "name": "balance",
              "type": "uint256"
            },
            {
              "internalType": "uint256",
              "name": "nonce",
              "type": "uint256"
            },
            {
              "internalType": "uint256",
              "name": "expiry",
              "type": "uint256"
            },
            {
              "internalType": "bytes",
              "name": "signature",
              "type": "bytes"
            }
          ],
          "internalType": "struct WBVRSVoucher.NFTVoucher",
          "name": "voucher",
          "type": "tuple"
        }
      ],
      "name": "verifyVoucher",
      "outputs": [
        {
          "internalType": "address",
          "name": "",
          "type": "address"
        }
      ],
      "stateMutability": "nonpayable",
      "type": "function"
    }
  ],
  "bytecode": "0x6101206040523480156200001257600080fd5b506040518060400160405280601181526020017f5765626176657273652d766f75636865720000000000000000000000000000008152506040518060400160405280600181526020017f31000000000000000000000000000000000000000000000000000000000000008152506040518060400160405280600e81526020017f57656261766572736545524332300000000000000000000000000000000000008152506040518060400160405280600581526020017f5742565253000000000000000000000000000000000000000000000000000000815250816003908051906020019062000103929190620002cc565b5080600490805190602001906200011c929190620002cc565b50505060008280519060200120905060008280519060200120905060007f8b73c3c69bb8fe3d512ecc4cf759cc79239f7b179b0ffacaa9a75d522b39400f90508260c081815250508160e081815250504660a0818152505062000187818484620001c260201b60201c565b608081815250508061010081815250505050505050620001bc620001b0620001fe60201b60201c565b6200020660201b60201c565b620004b9565b60008383834630604051602001620001df959493929190620003af565b6040516020818303038152906040528051906020012090509392505050565b600033905090565b6000600660009054906101000a900473ffffffffffffffffffffffffffffffffffffffff16905081600660006101000a81548173ffffffffffffffffffffffffffffffffffffffff021916908373ffffffffffffffffffffffffffffffffffffffff1602179055508173ffffffffffffffffffffffffffffffffffffffff168173ffffffffffffffffffffffffffffffffffffffff167f8be0079c531659141344cd1fd0a4f28419497f9722a3daafe3b4186f6b6457e060405160405180910390a35050565b828054620002da9062000454565b90600052602060002090601f016020900481019282620002fe57600085556200034a565b82601f106200031957805160ff19168380011785556200034a565b828001600101855582156200034a579182015b82811115620003495782518255916020019190600101906200032c565b5b5090506200035991906200035d565b5090565b5b80821115620003785760008160009055506001016200035e565b5090565b62000387816200040c565b82525050565b620003988162000420565b82525050565b620003a9816200044a565b82525050565b600060a082019050620003c660008301886200038d565b620003d560208301876200038d565b620003e460408301866200038d565b620003f360608301856200039e565b6200040260808301846200037c565b9695505050505050565b600062000419826200042a565b9050919050565b6000819050919050565b600073ffffffffffffffffffffffffffffffffffffffff82169050919050565b6000819050919050565b600060028204905060018216806200046d57607f821691505b602082108114156200048457620004836200048a565b5b50919050565b7f4e487b7100000000000000000000000000000000000000000000000000000000600052602260045260246000fd5b60805160a05160c05160e05161010051612dcf620004fe6000396000611ac601526000611b0801526000611ae701526000611a7301526000611a9b0152612dcf6000f3fe608060405234801561001057600080fd5b50600436106101215760003560e01c80637e2499cc116100ad578063a8689ce211610071578063a8689ce214610332578063a9059cbb14610362578063ad637e6714610392578063dd62ed3e146103c2578063f2fde38b146103f257610121565b80637e2499cc146102665780638da5cb5b146102965780639468f2ca146102b457806395d89b41146102e4578063a457c2d71461030257610121565b8063313ce567116100f4578063313ce567146101c257806339509351146101e057806340c10f191461021057806370a082311461022c578063715018a61461025c57610121565b806306fdde0314610126578063095ea7b31461014457806318160ddd1461017457806323b872dd14610192575b600080fd5b61012e61040e565b60405161013b91906128ab565b60405180910390f35b61015e60048036038101906101599190611ed8565b6104a0565b60405161016b91906127a5565b60405180910390f35b61017c6104be565b6040516101899190612b0d565b60405180910390f35b6101ac60048036038101906101a79190611e35565b6104c8565b6040516101b991906127a5565b60405180910390f35b6101ca6105c0565b6040516101d79190612b28565b60405180910390f35b6101fa60048036038101906101f59190611ed8565b6105c9565b60405161020791906127a5565b60405180910390f35b61022a60048036038101906102259190611ed8565b610675565b005b61024660048036038101906102419190611d69565b6106ff565b6040516102539190612b0d565b60405180910390f35b610264610747565b005b610280600480360381019061027b9190611f7e565b6107cf565b60405161028d91906127a5565b60405180910390f35b61029e6107ef565b6040516102ab919061272a565b60405180910390f35b6102ce60048036038101906102c99190611e84565b610819565b6040516102db9190612b0d565b60405180910390f35b6102ec610890565b6040516102f991906128ab565b60405180910390f35b61031c60048036038101906103179190611ed8565b610922565b60405161032991906127a5565b60405180910390f35b61034c60048036038101906103479190611dce565b610a0d565b6040516103599190612b0d565b60405180910390f35b61037c60048036038101906103779190611ed8565b610c5d565b60405161038991906127a5565b60405180910390f35b6103ac60048036038101906103a79190611f3d565b610c7b565b6040516103b9919061272a565b60405180910390f35b6103dc60048036038101906103d79190611d92565b610d75565b6040516103e99190612b0d565b60405180910390f35b61040c60048036038101906104079190611d69565b610dfc565b005b60606003805461041d90612ca9565b80601f016020809104026020016040519081016040528092919081815260200182805461044990612ca9565b80156104965780601f1061046b57610100808354040283529160200191610496565b820191906000526020600020905b81548152906001019060200180831161047957829003601f168201915b5050505050905090565b60006104b46104ad610ef4565b8484610efc565b6001905092915050565b6000600254905090565b60006104d58484846110c7565b6000600160008673ffffffffffffffffffffffffffffffffffffffff1673ffffffffffffffffffffffffffffffffffffffff1681526020019081526020016000206000610520610ef4565b73ffffffffffffffffffffffffffffffffffffffff1673ffffffffffffffffffffffffffffffffffffffff168152602001908152602001600020549050828110156105a0576040517f08c379a000000000000000000000000000000000000000000000000000000000815260040161059790612a4d565b60405180910390fd5b6105b4856105ac610ef4565b858403610efc565b60019150509392505050565b60006012905090565b600061066b6105d6610ef4565b8484600160006105e4610ef4565b73ffffffffffffffffffffffffffffffffffffffff1673ffffffffffffffffffffffffffffffffffffffff16815260200190815260200160002060008873ffffffffffffffffffffffffffffffffffffffff1673ffffffffffffffffffffffffffffffffffffffff168152602001908152602001600020546106669190612bc1565b610efc565b6001905092915050565b61067d610ef4565b73ffffffffffffffffffffffffffffffffffffffff1661069b6107ef565b73ffffffffffffffffffffffffffffffffffffffff16146106f1576040517f08c379a00000000000000000000000000000000000000000000000000000000081526004016106e890612a6d565b60405180910390fd5b6106fb8282611348565b5050565b60008060008373ffffffffffffffffffffffffffffffffffffffff1673ffffffffffffffffffffffffffffffffffffffff168152602001908152602001600020549050919050565b61074f610ef4565b73ffffffffffffffffffffffffffffffffffffffff1661076d6107ef565b73ffffffffffffffffffffffffffffffffffffffff16146107c3576040517f08c379a00000000000000000000000000000000000000000000000000000000081526004016107ba90612a6d565b60405180910390fd5b6107cd60006114a8565b565b60056020528060005260406000206000915054906101000a900460ff1681565b6000600660009054906101000a900473ffffffffffffffffffffffffffffffffffffffff16905090565b60008061082583610c7b565b90506000610832826106ff565b1415610873576040517f08c379a000000000000000000000000000000000000000000000000000000000815260040161086a90612a0d565b60405180910390fd5b610882818585602001356110c7565b826020013591505092915050565b60606004805461089f90612ca9565b80601f01602080910402602001604051908101604052809291908181526020018280546108cb90612ca9565b80156109185780601f106108ed57610100808354040283529160200191610918565b820191906000526020600020905b8154815290600101906020018083116108fb57829003601f168201915b5050505050905090565b60008060016000610931610ef4565b73ffffffffffffffffffffffffffffffffffffffff1673ffffffffffffffffffffffffffffffffffffffff16815260200190815260200160002060008573ffffffffffffffffffffffffffffffffffffffff1673ffffffffffffffffffffffffffffffffffffffff168152602001908152602001600020549050828110156109ee576040517f08c379a00000000000000000000000000000000000000000000000000000000081526004016109e590612acd565b60405180910390fd5b610a026109f9610ef4565b85858403610efc565b600191505092915050565b6000808390506000610a1e84610c7b565b905060008273ffffffffffffffffffffffffffffffffffffffff166370a08231836040518263ffffffff1660e01b8152600401610a5b919061272a565b60206040518083038186803b158015610a7357600080fd5b505afa158015610a87573d6000803e3d6000fd5b505050506040513d601f19601f82011682018060405250810190610aab9190611fa7565b1415610aec576040517f08c379a0000000000000000000000000000000000000000000000000000000008152600401610ae390612a0d565b60405180910390fd5b60008273ffffffffffffffffffffffffffffffffffffffff1663dd62ed3e83306040518363ffffffff1660e01b8152600401610b29929190612745565b60206040518083038186803b158015610b4157600080fd5b505afa158015610b55573d6000803e3d6000fd5b505050506040513d601f19601f82011682018060405250810190610b799190611fa7565b11610bb9576040517f08c379a0000000000000000000000000000000000000000000000000000000008152600401610bb090612a2d565b60405180910390fd5b8173ffffffffffffffffffffffffffffffffffffffff166323b872dd828887602001356040518463ffffffff1660e01b8152600401610bfa9392919061276e565b602060405180830381600087803b158015610c1457600080fd5b505af1158015610c28573d6000803e3d6000fd5b505050506040513d601f19601f82011682018060405250810190610c4c9190611f14565b508360200135925050509392505050565b6000610c71610c6a610ef4565b84846110c7565b6001905092915050565b60008160600135421115610cc4576040517f08c379a0000000000000000000000000000000000000000000000000000000008152600401610cbb9061292d565b60405180910390fd5b60001515600560008460400135815260200190815260200160002060009054906101000a900460ff16151514610d2f576040517f08c379a0000000000000000000000000000000000000000000000000000000008152600401610d26906129cd565b60405180910390fd5b6001600560008460400135815260200190815260200160002060006101000a81548160ff0219169083151502179055506000610d6a8361156e565b905080915050919050565b6000600160008473ffffffffffffffffffffffffffffffffffffffff1673ffffffffffffffffffffffffffffffffffffffff16815260200190815260200160002060008373ffffffffffffffffffffffffffffffffffffffff1673ffffffffffffffffffffffffffffffffffffffff16815260200190815260200160002054905092915050565b610e04610ef4565b73ffffffffffffffffffffffffffffffffffffffff16610e226107ef565b73ffffffffffffffffffffffffffffffffffffffff1614610e78576040517f08c379a0000000000000000000000000000000000000000000000000000000008152600401610e6f90612a6d565b60405180910390fd5b600073ffffffffffffffffffffffffffffffffffffffff168173ffffffffffffffffffffffffffffffffffffffff161415610ee8576040517f08c379a0000000000000000000000000000000000000000000000000000000008152600401610edf9061294d565b60405180910390fd5b610ef1816114a8565b50565b600033905090565b600073ffffffffffffffffffffffffffffffffffffffff168373ffffffffffffffffffffffffffffffffffffffff161415610f6c576040517f08c379a0000000000000000000000000000000000000000000000000000000008152600401610f6390612aad565b60405180910390fd5b600073ffffffffffffffffffffffffffffffffffffffff168273ffffffffffffffffffffffffffffffffffffffff161415610fdc576040517f08c379a0000000000000000000000000000000000000000000000000000000008152600401610fd39061296d565b60405180910390fd5b80600160008573ffffffffffffffffffffffffffffffffffffffff1673ffffffffffffffffffffffffffffffffffffffff16815260200190815260200160002060008473ffffffffffffffffffffffffffffffffffffffff1673ffffffffffffffffffffffffffffffffffffffff168152602001908152602001600020819055508173ffffffffffffffffffffffffffffffffffffffff168373ffffffffffffffffffffffffffffffffffffffff167f8c5be1e5ebec7d5bd14f71427d1e84f3dd0314c0f7b2291e5b200ac8c7c3b925836040516110ba9190612b0d565b60405180910390a3505050565b600073ffffffffffffffffffffffffffffffffffffffff168373ffffffffffffffffffffffffffffffffffffffff161415611137576040517f08c379a000000000000000000000000000000000000000000000000000000000815260040161112e90612a8d565b60405180910390fd5b600073ffffffffffffffffffffffffffffffffffffffff168273ffffffffffffffffffffffffffffffffffffffff1614156111a7576040517f08c379a000000000000000000000000000000000000000000000000000000000815260040161119e906128ed565b60405180910390fd5b6111b28383836115e0565b60008060008573ffffffffffffffffffffffffffffffffffffffff1673ffffffffffffffffffffffffffffffffffffffff16815260200190815260200160002054905081811015611238576040517f08c379a000000000000000000000000000000000000000000000000000000000815260040161122f9061298d565b60405180910390fd5b8181036000808673ffffffffffffffffffffffffffffffffffffffff1673ffffffffffffffffffffffffffffffffffffffff16815260200190815260200160002081905550816000808573ffffffffffffffffffffffffffffffffffffffff1673ffffffffffffffffffffffffffffffffffffffff16815260200190815260200160002060008282546112cb9190612bc1565b925050819055508273ffffffffffffffffffffffffffffffffffffffff168473ffffffffffffffffffffffffffffffffffffffff167fddf252ad1be2c89b69c2b068fc378daa952ba7f163c4a11628f55a4df523b3ef8460405161132f9190612b0d565b60405180910390a36113428484846115e5565b50505050565b600073ffffffffffffffffffffffffffffffffffffffff168273ffffffffffffffffffffffffffffffffffffffff1614156113b8576040517f08c379a00000000000000000000000000000000000000000000000000000000081526004016113af90612aed565b60405180910390fd5b6113c4600083836115e0565b80600260008282546113d69190612bc1565b92505081905550806000808473ffffffffffffffffffffffffffffffffffffffff1673ffffffffffffffffffffffffffffffffffffffff168152602001908152602001600020600082825461142b9190612bc1565b925050819055508173ffffffffffffffffffffffffffffffffffffffff16600073ffffffffffffffffffffffffffffffffffffffff167fddf252ad1be2c89b69c2b068fc378daa952ba7f163c4a11628f55a4df523b3ef836040516114909190612b0d565b60405180910390a36114a4600083836115e5565b5050565b6000600660009054906101000a900473ffffffffffffffffffffffffffffffffffffffff16905081600660006101000a81548173ffffffffffffffffffffffffffffffffffffffff021916908373ffffffffffffffffffffffffffffffffffffffff1602179055508173ffffffffffffffffffffffffffffffffffffffff168173ffffffffffffffffffffffffffffffffffffffff167f8be0079c531659141344cd1fd0a4f28419497f9722a3daafe3b4186f6b6457e060405160405180910390a35050565b60008061157a836115ea565b90506115d8818480608001906115909190612b43565b8080601f016020809104026020016040519081016040528093929190818152602001838380828437600081840152601f19601f8201169050808301925050505050505061165a565b915050919050565b505050565b505050565b60006116537f9351747b1e9d1d5ecc2259decffb60239f521e243e85645e0762ed1d775876778360000135846020013585604001358660600135604051602001611638959493929190612813565b60405160208183030381529060405280519060200120611681565b9050919050565b6000806000611669858561169b565b915091506116768161171e565b819250505092915050565b600061169461168e611a6f565b83611b32565b9050919050565b6000806041835114156116dd5760008060006020860151925060408601519150606086015160001a90506116d187828585611b65565b94509450505050611717565b60408351141561170e576000806020850151915060408501519050611703868383611c72565b935093505050611717565b60006002915091505b9250929050565b60006004811115611758577f4e487b7100000000000000000000000000000000000000000000000000000000600052602160045260246000fd5b816004811115611791577f4e487b7100000000000000000000000000000000000000000000000000000000600052602160045260246000fd5b141561179c57611a6c565b600160048111156117d6577f4e487b7100000000000000000000000000000000000000000000000000000000600052602160045260246000fd5b81600481111561180f577f4e487b7100000000000000000000000000000000000000000000000000000000600052602160045260246000fd5b1415611850576040517f08c379a0000000000000000000000000000000000000000000000000000000008152600401611847906128cd565b60405180910390fd5b6002600481111561188a577f4e487b7100000000000000000000000000000000000000000000000000000000600052602160045260246000fd5b8160048111156118c3577f4e487b7100000000000000000000000000000000000000000000000000000000600052602160045260246000fd5b1415611904576040517f08c379a00000000000000000000000000000000000000000000000000000000081526004016118fb9061290d565b60405180910390fd5b6003600481111561193e577f4e487b7100000000000000000000000000000000000000000000000000000000600052602160045260246000fd5b816004811115611977577f4e487b7100000000000000000000000000000000000000000000000000000000600052602160045260246000fd5b14156119b8576040517f08c379a00000000000000000000000000000000000000000000000000000000081526004016119af906129ad565b60405180910390fd5b6004808111156119f1577f4e487b7100000000000000000000000000000000000000000000000000000000600052602160045260246000fd5b816004811115611a2a577f4e487b7100000000000000000000000000000000000000000000000000000000600052602160045260246000fd5b1415611a6b576040517f08c379a0000000000000000000000000000000000000000000000000000000008152600401611a62906129ed565b60405180910390fd5b5b50565b60007f0000000000000000000000000000000000000000000000000000000000000000461415611ac1577f00000000000000000000000000000000000000000000000000000000000000009050611b2f565b611b2c7f00000000000000000000000000000000000000000000000000000000000000007f00000000000000000000000000000000000000000000000000000000000000007f0000000000000000000000000000000000000000000000000000000000000000611cc0565b90505b90565b60008282604051602001611b479291906126f3565b60405160208183030381529060405280519060200120905092915050565b6000807f7fffffffffffffffffffffffffffffff5d576e7357a4501ddfe92f46681b20a08360001c1115611ba0576000600391509150611c69565b601b8560ff1614158015611bb85750601c8560ff1614155b15611bca576000600491509150611c69565b600060018787878760405160008152602001604052604051611bef9493929190612866565b6020604051602081039080840390855afa158015611c11573d6000803e3d6000fd5b505050602060405103519050600073ffffffffffffffffffffffffffffffffffffffff168173ffffffffffffffffffffffffffffffffffffffff161415611c6057600060019250925050611c69565b80600092509250505b94509492505050565b6000806000807f7fffffffffffffffffffffffffffffffffffffffffffffffffffffffffffffff85169150601b8560ff1c019050611cb287828885611b65565b935093505050935093915050565b60008383834630604051602001611cdb9594939291906127c0565b6040516020818303038152906040528051906020012090509392505050565b600081359050611d0981612d54565b92915050565b600081519050611d1e81612d6b565b92915050565b600060a08284031215611d3657600080fd5b81905092915050565b600081359050611d4e81612d82565b92915050565b600081519050611d6381612d82565b92915050565b600060208284031215611d7b57600080fd5b6000611d8984828501611cfa565b91505092915050565b60008060408385031215611da557600080fd5b6000611db385828601611cfa565b9250506020611dc485828601611cfa565b9150509250929050565b600080600060608486031215611de357600080fd5b6000611df186828701611cfa565b9350506020611e0286828701611cfa565b925050604084013567ffffffffffffffff811115611e1f57600080fd5b611e2b86828701611d24565b9150509250925092565b600080600060608486031215611e4a57600080fd5b6000611e5886828701611cfa565b9350506020611e6986828701611cfa565b9250506040611e7a86828701611d3f565b9150509250925092565b60008060408385031215611e9757600080fd5b6000611ea585828601611cfa565b925050602083013567ffffffffffffffff811115611ec257600080fd5b611ece85828601611d24565b9150509250929050565b60008060408385031215611eeb57600080fd5b6000611ef985828601611cfa565b9250506020611f0a85828601611d3f565b9150509250929050565b600060208284031215611f2657600080fd5b6000611f3484828501611d0f565b91505092915050565b600060208284031215611f4f57600080fd5b600082013567ffffffffffffffff811115611f6957600080fd5b611f7584828501611d24565b91505092915050565b600060208284031215611f9057600080fd5b6000611f9e84828501611d3f565b91505092915050565b600060208284031215611fb957600080fd5b6000611fc784828501611d54565b91505092915050565b611fd981612c17565b82525050565b611fe881612c29565b82525050565b611ff781612c35565b82525050565b61200e61200982612c35565b612cdb565b82525050565b600061201f82612b9a565b6120298185612ba5565b9350612039818560208601612c76565b61204281612d43565b840191505092915050565b600061205a601883612ba5565b91507f45434453413a20696e76616c6964207369676e617475726500000000000000006000830152602082019050919050565b600061209a602383612ba5565b91507f45524332303a207472616e7366657220746f20746865207a65726f206164647260008301527f65737300000000000000000000000000000000000000000000000000000000006020830152604082019050919050565b6000612100601f83612ba5565b91507f45434453413a20696e76616c6964207369676e6174757265206c656e677468006000830152602082019050919050565b6000612140601b83612ba5565b91507f566f75636865722068617320616c7265616479206578706972656400000000006000830152602082019050919050565b6000612180602683612ba5565b91507f4f776e61626c653a206e6577206f776e657220697320746865207a65726f206160008301527f64647265737300000000000000000000000000000000000000000000000000006020830152604082019050919050565b60006121e6602283612ba5565b91507f45524332303a20617070726f766520746f20746865207a65726f20616464726560008301527f73730000000000000000000000000000000000000000000000000000000000006020830152604082019050919050565b600061224c600283612bb6565b91507f19010000000000000000000000000000000000000000000000000000000000006000830152600282019050919050565b600061228c602683612ba5565b91507f45524332303a207472616e7366657220616d6f756e742065786365656473206260008301527f616c616e636500000000000000000000000000000000000000000000000000006020830152604082019050919050565b60006122f2602283612ba5565b91507f45434453413a20696e76616c6964207369676e6174757265202773272076616c60008301527f75650000000000000000000000000000000000000000000000000000000000006020830152604082019050919050565b6000612358601383612ba5565b91507f496e76616c6964206e6f6e63652076616c7565000000000000000000000000006000830152602082019050919050565b6000612398602283612ba5565b91507f45434453413a20696e76616c6964207369676e6174757265202776272076616c60008301527f75650000000000000000000000000000000000000000000000000000000000006020830152604082019050919050565b60006123fe602e83612ba5565b91507f57425652533a20417574686f72697a6174696f6e206661696c65643a20496e7660008301527f616c6964207369676e61747572650000000000000000000000000000000000006020830152604082019050919050565b6000612464602a83612ba5565b91507f57425652533a20417072726f76616c206e6f742073657420666f72205765626160008301527f76657273654552433230000000000000000000000000000000000000000000006020830152604082019050919050565b60006124ca602883612ba5565b91507f45524332303a207472616e7366657220616d6f756e742065786365656473206160008301527f6c6c6f77616e63650000000000000000000000000000000000000000000000006020830152604082019050919050565b6000612530602083612ba5565b91507f4f776e61626c653a2063616c6c6572206973206e6f7420746865206f776e65726000830152602082019050919050565b6000612570602583612ba5565b91507f45524332303a207472616e736665722066726f6d20746865207a65726f20616460008301527f64726573730000000000000000000000000000000000000000000000000000006020830152604082019050919050565b60006125d6602483612ba5565b91507f45524332303a20617070726f76652066726f6d20746865207a65726f2061646460008301527f72657373000000000000000000000000000000000000000000000000000000006020830152604082019050919050565b600061263c602583612ba5565b91507f45524332303a2064656372656173656420616c6c6f77616e63652062656c6f7760008301527f207a65726f0000000000000000000000000000000000000000000000000000006020830152604082019050919050565b60006126a2601f83612ba5565b91507f45524332303a206d696e7420746f20746865207a65726f2061646472657373006000830152602082019050919050565b6126de81612c5f565b82525050565b6126ed81612c69565b82525050565b60006126fe8261223f565b915061270a8285611ffd565b60208201915061271a8284611ffd565b6020820191508190509392505050565b600060208201905061273f6000830184611fd0565b92915050565b600060408201905061275a6000830185611fd0565b6127676020830184611fd0565b9392505050565b60006060820190506127836000830186611fd0565b6127906020830185611fd0565b61279d60408301846126d5565b949350505050565b60006020820190506127ba6000830184611fdf565b92915050565b600060a0820190506127d56000830188611fee565b6127e26020830187611fee565b6127ef6040830186611fee565b6127fc60608301856126d5565b6128096080830184611fd0565b9695505050505050565b600060a0820190506128286000830188611fee565b61283560208301876126d5565b61284260408301866126d5565b61284f60608301856126d5565b61285c60808301846126d5565b9695505050505050565b600060808201905061287b6000830187611fee565b61288860208301866126e4565b6128956040830185611fee565b6128a26060830184611fee565b95945050505050565b600060208201905081810360008301526128c58184612014565b905092915050565b600060208201905081810360008301526128e68161204d565b9050919050565b600060208201905081810360008301526129068161208d565b9050919050565b60006020820190508181036000830152612926816120f3565b9050919050565b6000602082019050818103600083015261294681612133565b9050919050565b6000602082019050818103600083015261296681612173565b9050919050565b60006020820190508181036000830152612986816121d9565b9050919050565b600060208201905081810360008301526129a68161227f565b9050919050565b600060208201905081810360008301526129c6816122e5565b9050919050565b600060208201905081810360008301526129e68161234b565b9050919050565b60006020820190508181036000830152612a068161238b565b9050919050565b60006020820190508181036000830152612a26816123f1565b9050919050565b60006020820190508181036000830152612a4681612457565b9050919050565b60006020820190508181036000830152612a66816124bd565b9050919050565b60006020820190508181036000830152612a8681612523565b9050919050565b60006020820190508181036000830152612aa681612563565b9050919050565b60006020820190508181036000830152612ac6816125c9565b9050919050565b60006020820190508181036000830152612ae68161262f565b9050919050565b60006020820190508181036000830152612b0681612695565b9050919050565b6000602082019050612b2260008301846126d5565b92915050565b6000602082019050612b3d60008301846126e4565b92915050565b60008083356001602003843603038112612b5c57600080fd5b80840192508235915067ffffffffffffffff821115612b7a57600080fd5b602083019250600182023603831315612b9257600080fd5b509250929050565b600081519050919050565b600082825260208201905092915050565b600081905092915050565b6000612bcc82612c5f565b9150612bd783612c5f565b9250827fffffffffffffffffffffffffffffffffffffffffffffffffffffffffffffffff03821115612c0c57612c0b612ce5565b5b828201905092915050565b6000612c2282612c3f565b9050919050565b60008115159050919050565b6000819050919050565b600073ffffffffffffffffffffffffffffffffffffffff82169050919050565b6000819050919050565b600060ff82169050919050565b60005b83811015612c94578082015181840152602081019050612c79565b83811115612ca3576000848401525b50505050565b60006002820490506001821680612cc157607f821691505b60208210811415612cd557612cd4612d14565b5b50919050565b6000819050919050565b7f4e487b7100000000000000000000000000000000000000000000000000000000600052601160045260246000fd5b7f4e487b7100000000000000000000000000000000000000000000000000000000600052602260045260246000fd5b6000601f19601f8301169050919050565b612d5d81612c17565b8114612d6857600080fd5b50565b612d7481612c29565b8114612d7f57600080fd5b50565b612d8b81612c5f565b8114612d9657600080fd5b5056fea2646970667358221220345b972bfc25c6388fa5758ab226b98c8a9bf96e1c11b814e2d77041928774c964736f6c63430008000033",
  "linkReferences": {},
  "deployedLinkReferences": {}
}