{
  "_format": "hh-sol-artifact-1",
  "contractName": "WebaverseERC1155",
  "sourceName": "contracts/main/WebaverseERC1155.sol",
  "abi": [
    {
      "inputs": [],
      "stateMutability": "nonpayable",
      "type": "constructor"
    },
    {
      "anonymous": false,
      "inputs": [
        {
          "indexed": true,
          "internalType": "address",
          "name": "account",
          "type": "address"
        },
        {
          "indexed": true,
          "internalType": "address",
          "name": "operator",
          "type": "address"
        },
        {
          "indexed": false,
          "internalType": "bool",
          "name": "approved",
          "type": "bool"
        }
      ],
      "name": "ApprovalForAll",
      "type": "event"
    },
    {
      "anonymous": false,
      "inputs": [
        {
          "indexed": true,
          "internalType": "address",
          "name": "previousOwner",
          "type": "address"
        },
        {
          "indexed": true,
          "internalType": "address",
          "name": "newOwner",
          "type": "address"
        }
      ],
      "name": "OwnershipTransferred",
      "type": "event"
    },
    {
      "anonymous": false,
      "inputs": [
        {
          "indexed": true,
          "internalType": "address",
          "name": "operator",
          "type": "address"
        },
        {
          "indexed": true,
          "internalType": "address",
          "name": "from",
          "type": "address"
        },
        {
          "indexed": true,
          "internalType": "address",
          "name": "to",
          "type": "address"
        },
        {
          "indexed": false,
          "internalType": "uint256[]",
          "name": "ids",
          "type": "uint256[]"
        },
        {
          "indexed": false,
          "internalType": "uint256[]",
          "name": "values",
          "type": "uint256[]"
        }
      ],
      "name": "TransferBatch",
      "type": "event"
    },
    {
      "anonymous": false,
      "inputs": [
        {
          "indexed": true,
          "internalType": "address",
          "name": "operator",
          "type": "address"
        },
        {
          "indexed": true,
          "internalType": "address",
          "name": "from",
          "type": "address"
        },
        {
          "indexed": true,
          "internalType": "address",
          "name": "to",
          "type": "address"
        },
        {
          "indexed": false,
          "internalType": "uint256",
          "name": "id",
          "type": "uint256"
        },
        {
          "indexed": false,
          "internalType": "uint256",
          "name": "value",
          "type": "uint256"
        }
      ],
      "name": "TransferSingle",
      "type": "event"
    },
    {
      "anonymous": false,
      "inputs": [
        {
          "indexed": false,
          "internalType": "string",
          "name": "value",
          "type": "string"
        },
        {
          "indexed": true,
          "internalType": "uint256",
          "name": "id",
          "type": "uint256"
        }
      ],
      "name": "URI",
      "type": "event"
    },
    {
      "inputs": [
        {
          "internalType": "address",
          "name": "account",
          "type": "address"
        },
        {
          "internalType": "uint256",
          "name": "id",
          "type": "uint256"
        }
      ],
      "name": "balanceOf",
      "outputs": [
        {
          "internalType": "uint256",
          "name": "",
          "type": "uint256"
        }
      ],
      "stateMutability": "view",
      "type": "function"
    },
    {
      "inputs": [
        {
          "internalType": "address[]",
          "name": "accounts",
          "type": "address[]"
        },
        {
          "internalType": "uint256[]",
          "name": "ids",
          "type": "uint256[]"
        }
      ],
      "name": "balanceOfBatch",
      "outputs": [
        {
          "internalType": "uint256[]",
          "name": "",
          "type": "uint256[]"
        }
      ],
      "stateMutability": "view",
      "type": "function"
    },
    {
      "inputs": [
        {
          "internalType": "address",
          "name": "owner",
          "type": "address"
        },
        {
          "internalType": "uint256",
          "name": "id",
          "type": "uint256"
        },
        {
          "internalType": "uint256",
          "name": "value",
          "type": "uint256"
        }
      ],
      "name": "burn",
      "outputs": [],
      "stateMutability": "nonpayable",
      "type": "function"
    },
    {
      "inputs": [
        {
          "internalType": "address",
          "name": "owner",
          "type": "address"
        },
        {
          "internalType": "uint256[]",
          "name": "ids",
          "type": "uint256[]"
        },
        {
          "internalType": "uint256[]",
          "name": "values",
          "type": "uint256[]"
        }
      ],
      "name": "burnBatch",
      "outputs": [],
      "stateMutability": "nonpayable",
      "type": "function"
    },
    {
      "inputs": [
        {
          "internalType": "uint256",
          "name": "",
          "type": "uint256"
        }
      ],
      "name": "burnedNonces",
      "outputs": [
        {
          "internalType": "bool",
          "name": "",
          "type": "bool"
        }
      ],
      "stateMutability": "view",
      "type": "function"
    },
    {
      "inputs": [
        {
          "internalType": "address",
          "name": "claimer",
          "type": "address"
        },
        {
          "components": [
            {
              "internalType": "uint256",
              "name": "tokenId",
              "type": "uint256"
            },
            {
              "internalType": "uint256",
              "name": "balance",
              "type": "uint256"
            },
            {
              "internalType": "uint256",
              "name": "nonce",
              "type": "uint256"
            },
            {
              "internalType": "uint256",
              "name": "expiry",
              "type": "uint256"
            },
            {
              "internalType": "bytes",
              "name": "signature",
              "type": "bytes"
            }
          ],
          "internalType": "struct WBVRSVoucher.NFTVoucher",
          "name": "voucher",
          "type": "tuple"
        }
      ],
      "name": "claim",
      "outputs": [
        {
          "internalType": "uint256",
          "name": "",
          "type": "uint256"
        }
      ],
      "stateMutability": "nonpayable",
      "type": "function"
    },
    {
      "inputs": [],
      "name": "currentTokenID",
      "outputs": [
        {
          "internalType": "uint256",
          "name": "",
          "type": "uint256"
        }
      ],
      "stateMutability": "view",
      "type": "function"
    },
    {
      "inputs": [
        {
          "internalType": "address",
          "name": "claimer",
          "type": "address"
        },
        {
          "internalType": "address",
          "name": "contractAddress",
          "type": "address"
        },
        {
          "components": [
            {
              "internalType": "uint256",
              "name": "tokenId",
              "type": "uint256"
            },
            {
              "internalType": "uint256",
              "name": "balance",
              "type": "uint256"
            },
            {
              "internalType": "uint256",
              "name": "nonce",
              "type": "uint256"
            },
            {
              "internalType": "uint256",
              "name": "expiry",
              "type": "uint256"
            },
            {
              "internalType": "bytes",
              "name": "signature",
              "type": "bytes"
            }
          ],
          "internalType": "struct WBVRSVoucher.NFTVoucher",
          "name": "voucher",
          "type": "tuple"
        }
      ],
      "name": "externalClaim",
      "outputs": [
        {
          "internalType": "uint256",
          "name": "",
          "type": "uint256"
        }
      ],
      "stateMutability": "nonpayable",
      "type": "function"
    },
    {
      "inputs": [
        {
          "internalType": "address",
          "name": "account",
          "type": "address"
        },
        {
          "internalType": "address",
          "name": "operator",
          "type": "address"
        }
      ],
      "name": "isApprovedForAll",
      "outputs": [
        {
          "internalType": "bool",
          "name": "",
          "type": "bool"
        }
      ],
      "stateMutability": "view",
      "type": "function"
    },
    {
      "inputs": [
        {
          "internalType": "address",
          "name": "account",
          "type": "address"
        },
        {
          "internalType": "uint256",
          "name": "tokenId",
          "type": "uint256"
        },
        {
          "internalType": "uint256",
          "name": "amount",
          "type": "uint256"
        },
        {
          "internalType": "string",
          "name": "_uri",
          "type": "string"
        },
        {
          "internalType": "bytes",
          "name": "data",
          "type": "bytes"
        }
      ],
      "name": "mint",
      "outputs": [],
      "stateMutability": "nonpayable",
      "type": "function"
    },
    {
      "inputs": [
        {
          "internalType": "address",
          "name": "to",
          "type": "address"
        },
        {
          "internalType": "uint256[]",
          "name": "ids",
          "type": "uint256[]"
        },
        {
          "internalType": "uint256[]",
          "name": "values",
          "type": "uint256[]"
        },
        {
          "internalType": "string[]",
          "name": "uris",
          "type": "string[]"
        },
        {
          "internalType": "bytes",
          "name": "data",
          "type": "bytes"
        }
      ],
      "name": "mintBatch",
      "outputs": [],
      "stateMutability": "nonpayable",
      "type": "function"
    },
    {
      "inputs": [],
      "name": "owner",
      "outputs": [
        {
          "internalType": "address",
          "name": "",
          "type": "address"
        }
      ],
      "stateMutability": "view",
      "type": "function"
    },
    {
      "inputs": [],
      "name": "renounceOwnership",
      "outputs": [],
      "stateMutability": "nonpayable",
      "type": "function"
    },
    {
      "inputs": [
        {
          "internalType": "address",
          "name": "from",
          "type": "address"
        },
        {
          "internalType": "address",
          "name": "to",
          "type": "address"
        },
        {
          "internalType": "uint256[]",
          "name": "ids",
          "type": "uint256[]"
        },
        {
          "internalType": "uint256[]",
          "name": "amounts",
          "type": "uint256[]"
        },
        {
          "internalType": "bytes",
          "name": "data",
          "type": "bytes"
        }
      ],
      "name": "safeBatchTransferFrom",
      "outputs": [],
      "stateMutability": "nonpayable",
      "type": "function"
    },
    {
      "inputs": [
        {
          "internalType": "address",
          "name": "to",
          "type": "address"
        },
        {
          "internalType": "uint256",
          "name": "id",
          "type": "uint256"
        },
        {
          "internalType": "uint256",
          "name": "amount",
          "type": "uint256"
        },
        {
          "internalType": "bytes",
          "name": "data",
          "type": "bytes"
        }
      ],
      "name": "safeTransfer",
      "outputs": [],
      "stateMutability": "nonpayable",
      "type": "function"
    },
    {
      "inputs": [
        {
          "internalType": "address",
          "name": "from",
          "type": "address"
        },
        {
          "internalType": "address",
          "name": "to",
          "type": "address"
        },
        {
          "internalType": "uint256",
          "name": "id",
          "type": "uint256"
        },
        {
          "internalType": "uint256",
          "name": "amount",
          "type": "uint256"
        },
        {
          "internalType": "bytes",
          "name": "data",
          "type": "bytes"
        }
      ],
      "name": "safeTransferFrom",
      "outputs": [],
      "stateMutability": "nonpayable",
      "type": "function"
    },
    {
      "inputs": [
        {
          "internalType": "address",
          "name": "operator",
          "type": "address"
        },
        {
          "internalType": "bool",
          "name": "approved",
          "type": "bool"
        }
      ],
      "name": "setApprovalForAll",
      "outputs": [],
      "stateMutability": "nonpayable",
      "type": "function"
    },
    {
      "inputs": [
        {
          "internalType": "bytes4",
          "name": "interfaceId",
          "type": "bytes4"
        }
      ],
      "name": "supportsInterface",
      "outputs": [
        {
          "internalType": "bool",
          "name": "",
          "type": "bool"
        }
      ],
      "stateMutability": "view",
      "type": "function"
    },
    {
      "inputs": [
        {
          "internalType": "address",
          "name": "newOwner",
          "type": "address"
        }
      ],
      "name": "transferOwnership",
      "outputs": [],
      "stateMutability": "nonpayable",
      "type": "function"
    },
    {
      "inputs": [
        {
          "internalType": "uint256",
          "name": "_id",
          "type": "uint256"
        }
      ],
      "name": "uri",
      "outputs": [
        {
          "internalType": "string",
          "name": "",
          "type": "string"
        }
      ],
      "stateMutability": "view",
      "type": "function"
    },
    {
      "inputs": [
        {
          "components": [
            {
              "internalType": "uint256",
              "name": "tokenId",
              "type": "uint256"
            },
            {
              "internalType": "uint256",
              "name": "balance",
              "type": "uint256"
            },
            {
              "internalType": "uint256",
              "name": "nonce",
              "type": "uint256"
            },
            {
              "internalType": "uint256",
              "name": "expiry",
              "type": "uint256"
            },
            {
              "internalType": "bytes",
              "name": "signature",
              "type": "bytes"
            }
          ],
          "internalType": "struct WBVRSVoucher.NFTVoucher",
          "name": "voucher",
          "type": "tuple"
        }
      ],
      "name": "verifyVoucher",
      "outputs": [
        {
          "internalType": "address",
          "name": "",
          "type": "address"
        }
      ],
      "stateMutability": "nonpayable",
      "type": "function"
    }
  ],
  "bytecode": "0x61012060405260006006553480156200001757600080fd5b506040518060400160405280601181526020017f5765626176657273652d766f75636865720000000000000000000000000000008152506040518060400160405280600181526020017f3100000000000000000000000000000000000000000000000000000000000000815250604051806060016040528060218152602001620057a560219139620000af816200015360201b60201c565b5060008280519060200120905060008280519060200120905060007f8b73c3c69bb8fe3d512ecc4cf759cc79239f7b179b0ffacaa9a75d522b39400f90508260c081815250508160e081815250504660a08181525050620001188184846200016f60201b60201c565b6080818152505080610100818152505050505050506200014d62000141620001ab60201b60201c565b620001b360201b60201c565b62000466565b80600290805190602001906200016b92919062000279565b5050565b600083838346306040516020016200018c9594939291906200035c565b6040516020818303038152906040528051906020012090509392505050565b600033905090565b6000600460009054906101000a900473ffffffffffffffffffffffffffffffffffffffff16905081600460006101000a81548173ffffffffffffffffffffffffffffffffffffffff021916908373ffffffffffffffffffffffffffffffffffffffff1602179055508173ffffffffffffffffffffffffffffffffffffffff168173ffffffffffffffffffffffffffffffffffffffff167f8be0079c531659141344cd1fd0a4f28419497f9722a3daafe3b4186f6b6457e060405160405180910390a35050565b828054620002879062000401565b90600052602060002090601f016020900481019282620002ab5760008555620002f7565b82601f10620002c657805160ff1916838001178555620002f7565b82800160010185558215620002f7579182015b82811115620002f6578251825591602001919060010190620002d9565b5b5090506200030691906200030a565b5090565b5b80821115620003255760008160009055506001016200030b565b5090565b6200033481620003b9565b82525050565b6200034581620003cd565b82525050565b6200035681620003f7565b82525050565b600060a0820190506200037360008301886200033a565b6200038260208301876200033a565b6200039160408301866200033a565b620003a060608301856200034b565b620003af608083018462000329565b9695505050505050565b6000620003c682620003d7565b9050919050565b6000819050919050565b600073ffffffffffffffffffffffffffffffffffffffff82169050919050565b6000819050919050565b600060028204905060018216806200041a57607f821691505b6020821081141562000431576200043062000437565b5b50919050565b7f4e487b7100000000000000000000000000000000000000000000000000000000600052602260045260246000fd5b60805160a05160c05160e051610100516152fa620004ab6000396000612e4701526000612e8901526000612e6801526000612df401526000612e1c01526152fa6000f3fe608060405234801561001057600080fd5b50600436106101365760003560e01c8063a22cb465116100b8578063b9571e841161007c578063b9571e841461036f578063bb62115e1461038b578063e985e9c5146103a9578063f242432a146103d9578063f2fde38b146103f5578063f5298aca1461041157610136565b8063a22cb465146102bb578063a4b645eb146102d7578063a8689ce2146102f3578063ad637e6714610323578063ae28b68c1461035357610136565b80636b20c454116100ff5780636b20c45414610217578063715018a6146102335780637e2499cc1461023d5780638da5cb5b1461026d5780639468f2ca1461028b57610136565b8062fdd58e1461013b57806301ffc9a71461016b5780630e89341c1461019b5780632eb2c2d6146101cb5780634e1273f4146101e7575b600080fd5b6101556004803603810190610150919061389c565b61042d565b6040516101629190614d33565b60405180910390f35b61018560048036038101906101809190613ade565b6104f6565b60405161019291906148eb565b60405180910390f35b6101b560048036038101906101b09190613b71565b6105d8565b6040516101c291906149f1565b60405180910390f35b6101e560048036038101906101e091906134fe565b61067d565b005b61020160048036038101906101fc9190613a49565b61071e565b60405161020e9190614892565b60405180910390f35b610231600480360381019061022c919061378d565b6108cf565b005b61023b61095b565b005b61025760048036038101906102529190613b71565b6109e3565b60405161026491906148eb565b60405180910390f35b610275610a03565b604051610282919061470b565b60405180910390f35b6102a560048036038101906102a09190613848565b610a2d565b6040516102b29190614d33565b60405180910390f35b6102d560048036038101906102d0919061380c565b610ae4565b005b6102f160048036038101906102ec91906139a2565b610c65565b005b61030d600480360381019061030891906135bd565b610c82565b60405161031a9190614d33565b60405180910390f35b61033d60048036038101906103389190613b30565b610eb9565b60405161034a919061470b565b60405180910390f35b61036d60048036038101906103689190613927565b610fb3565b005b610389600480360381019061038491906136b3565b610fcd565b005b610393611159565b6040516103a09190614d33565b60405180910390f35b6103c360048036038101906103be91906134c2565b61115f565b6040516103d091906148eb565b60405180910390f35b6103f360048036038101906103ee9190613624565b6111f3565b005b61040f600480360381019061040a9190613499565b611294565b005b61042b600480360381019061042691906138d8565b61138c565b005b60008073ffffffffffffffffffffffffffffffffffffffff168373ffffffffffffffffffffffffffffffffffffffff16141561049e576040517f08c379a000000000000000000000000000000000000000000000000000000000815260040161049590614ab3565b60405180910390fd5b60008083815260200190815260200160002060008473ffffffffffffffffffffffffffffffffffffffff1673ffffffffffffffffffffffffffffffffffffffff16815260200190815260200160002054905092915050565b60007fd9b67a26000000000000000000000000000000000000000000000000000000007bffffffffffffffffffffffffffffffffffffffffffffffffffffffff1916827bffffffffffffffffffffffffffffffffffffffffffffffffffffffff191614806105c157507f0e89341c000000000000000000000000000000000000000000000000000000007bffffffffffffffffffffffffffffffffffffffffffffffffffffffff1916827bffffffffffffffffffffffffffffffffffffffffffffffffffffffff1916145b806105d157506105d082611418565b5b9050919050565b60606005600083815260200190815260200160002080546105f890615082565b80601f016020809104026020016040519081016040528092919081815260200182805461062490615082565b80156106715780601f1061064657610100808354040283529160200191610671565b820191906000526020600020905b81548152906001019060200180831161065457829003601f168201915b50505050509050919050565b610685611482565b73ffffffffffffffffffffffffffffffffffffffff168573ffffffffffffffffffffffffffffffffffffffff1614806106cb57506106ca856106c5611482565b61115f565b5b61070a576040517f08c379a000000000000000000000000000000000000000000000000000000000815260040161070190614bf3565b60405180910390fd5b610717858585858561148a565b5050505050565b60608151835114610764576040517f08c379a000000000000000000000000000000000000000000000000000000000815260040161075b90614cd3565b60405180910390fd5b6000835167ffffffffffffffff8111156107a7577f4e487b7100000000000000000000000000000000000000000000000000000000600052604160045260246000fd5b6040519080825280602002602001820160405280156107d55781602001602082028036833780820191505090505b50905060005b84518110156108c45761086e858281518110610820577f4e487b7100000000000000000000000000000000000000000000000000000000600052603260045260246000fd5b6020026020010151858381518110610861577f4e487b7100000000000000000000000000000000000000000000000000000000600052603260045260246000fd5b602002602001015161042d565b8282815181106108a7577f4e487b7100000000000000000000000000000000000000000000000000000000600052603260045260246000fd5b602002602001018181525050806108bd906150b4565b90506107db565b508091505092915050565b6108d7611482565b73ffffffffffffffffffffffffffffffffffffffff166108f5610a03565b73ffffffffffffffffffffffffffffffffffffffff161461094b576040517f08c379a000000000000000000000000000000000000000000000000000000000815260040161094290614c93565b60405180910390fd5b6109568383836117ea565b505050565b610963611482565b73ffffffffffffffffffffffffffffffffffffffff16610981610a03565b73ffffffffffffffffffffffffffffffffffffffff16146109d7576040517f08c379a00000000000000000000000000000000000000000000000000000000081526004016109ce90614c93565b60405180910390fd5b6109e16000611ae7565b565b60036020528060005260406000206000915054906101000a900460ff1681565b6000600460009054906101000a900473ffffffffffffffffffffffffffffffffffffffff16905090565b600080610a3983610eb9565b90506000610a4b82856000013561042d565b1415610a8c576040517f08c379a0000000000000000000000000000000000000000000000000000000008152600401610a8390614c33565b60405180910390fd5b610ad68185856000013586602001356040518060400160405280600481526020017f3078303100000000000000000000000000000000000000000000000000000000815250611bad565b826000013591505092915050565b8173ffffffffffffffffffffffffffffffffffffffff16610b03611482565b73ffffffffffffffffffffffffffffffffffffffff161415610b5a576040517f08c379a0000000000000000000000000000000000000000000000000000000008152600401610b5190614cb3565b60405180910390fd5b8060016000610b67611482565b73ffffffffffffffffffffffffffffffffffffffff1673ffffffffffffffffffffffffffffffffffffffff16815260200190815260200160002060008473ffffffffffffffffffffffffffffffffffffffff1673ffffffffffffffffffffffffffffffffffffffff16815260200190815260200160002060006101000a81548160ff0219169083151502179055508173ffffffffffffffffffffffffffffffffffffffff16610c14611482565b73ffffffffffffffffffffffffffffffffffffffff167f17307eab39ab6107e8899845ad3d59bd9653f200f220920489ca2b5937696c3183604051610c5991906148eb565b60405180910390a35050565b610c7185858584611e2f565b610c7b8483611fc5565b5050505050565b6000808390506000610c9384610eb9565b905060008273ffffffffffffffffffffffffffffffffffffffff1662fdd58e8387600001356040518363ffffffff1660e01b8152600401610cd5929190614869565b60206040518083038186803b158015610ced57600080fd5b505afa158015610d01573d6000803e3d6000fd5b505050506040513d601f19601f82011682018060405250810190610d259190613b9a565b1415610d66576040517f08c379a0000000000000000000000000000000000000000000000000000000008152600401610d5d90614c33565b60405180910390fd5b8173ffffffffffffffffffffffffffffffffffffffff1663e985e9c582306040518363ffffffff1660e01b8152600401610da1929190614726565b60206040518083038186803b158015610db957600080fd5b505afa158015610dcd573d6000803e3d6000fd5b505050506040513d601f19601f82011682018060405250810190610df19190613ab5565b610e30576040517f08c379a0000000000000000000000000000000000000000000000000000000008152600401610e2790614b13565b60405180910390fd5b8173ffffffffffffffffffffffffffffffffffffffff1663f242432a8288876000013588602001356040518563ffffffff1660e01b8152600401610e779493929190614811565b600060405180830381600087803b158015610e9157600080fd5b505af1158015610ea5573d6000803e3d6000fd5b505050508360000135925050509392505050565b60008160600135421115610f02576040517f08c379a0000000000000000000000000000000000000000000000000000000008152600401610ef990614ad3565b60405180910390fd5b60001515600360008460400135815260200190815260200160002060009054906101000a900460ff16151514610f6d576040517f08c379a0000000000000000000000000000000000000000000000000000000008152600401610f6490614bb3565b60405180910390fd5b6001600360008460400135815260200190815260200160002060006101000a81548160ff0219169083151502179055506000610fa883611ff1565b905080915050919050565b610fc7610fbe611482565b858585856111f3565b50505050565b82518585905014611013576040517f08c379a000000000000000000000000000000000000000000000000000000000815260040161100a90614b93565b60405180910390fd5b81518585905014611059576040517f08c379a000000000000000000000000000000000000000000000000000000000815260040161105090614a93565b60405180910390fd5b6110a686868680806020026020016040519081016040528093929190818152602001838360200280828437600081840152601f19601f820116905080830192505050505050508584612063565b60005b858590508110156111505761113d8686838181106110f0577f4e487b7100000000000000000000000000000000000000000000000000000000600052603260045260246000fd5b90506020020135848381518110611130577f4e487b7100000000000000000000000000000000000000000000000000000000600052603260045260246000fd5b6020026020010151611fc5565b8080611148906150b4565b9150506110a9565b50505050505050565b60065481565b6000600160008473ffffffffffffffffffffffffffffffffffffffff1673ffffffffffffffffffffffffffffffffffffffff16815260200190815260200160002060008373ffffffffffffffffffffffffffffffffffffffff1673ffffffffffffffffffffffffffffffffffffffff16815260200190815260200160002060009054906101000a900460ff16905092915050565b6111fb611482565b73ffffffffffffffffffffffffffffffffffffffff168573ffffffffffffffffffffffffffffffffffffffff16148061124157506112408561123b611482565b61115f565b5b611280576040517f08c379a000000000000000000000000000000000000000000000000000000000815260040161127790614b53565b60405180910390fd5b61128d8585858585611bad565b5050505050565b61129c611482565b73ffffffffffffffffffffffffffffffffffffffff166112ba610a03565b73ffffffffffffffffffffffffffffffffffffffff1614611310576040517f08c379a000000000000000000000000000000000000000000000000000000000815260040161130790614c93565b60405180910390fd5b600073ffffffffffffffffffffffffffffffffffffffff168173ffffffffffffffffffffffffffffffffffffffff161415611380576040517f08c379a000000000000000000000000000000000000000000000000000000000815260040161137790614af3565b60405180910390fd5b61138981611ae7565b50565b611394611482565b73ffffffffffffffffffffffffffffffffffffffff166113b2610a03565b73ffffffffffffffffffffffffffffffffffffffff1614611408576040517f08c379a00000000000000000000000000000000000000000000000000000000081526004016113ff90614c93565b60405180910390fd5b6114138383836122cd565b505050565b60007f01ffc9a7000000000000000000000000000000000000000000000000000000007bffffffffffffffffffffffffffffffffffffffffffffffffffffffff1916827bffffffffffffffffffffffffffffffffffffffffffffffffffffffff1916149050919050565b600033905090565b81518351146114ce576040517f08c379a00000000000000000000000000000000000000000000000000000000081526004016114c590614cf3565b60405180910390fd5b600073ffffffffffffffffffffffffffffffffffffffff168473ffffffffffffffffffffffffffffffffffffffff16141561153e576040517f08c379a000000000000000000000000000000000000000000000000000000000815260040161153590614bd3565b60405180910390fd5b6000611548611482565b90506115588187878787876124ea565b60005b845181101561175557600085828151811061159f577f4e487b7100000000000000000000000000000000000000000000000000000000600052603260045260246000fd5b6020026020010151905060008583815181106115e4577f4e487b7100000000000000000000000000000000000000000000000000000000600052603260045260246000fd5b60200260200101519050600080600084815260200190815260200160002060008b73ffffffffffffffffffffffffffffffffffffffff1673ffffffffffffffffffffffffffffffffffffffff16815260200190815260200160002054905081811015611685576040517f08c379a000000000000000000000000000000000000000000000000000000000815260040161167c90614c73565b60405180910390fd5b81810360008085815260200190815260200160002060008c73ffffffffffffffffffffffffffffffffffffffff1673ffffffffffffffffffffffffffffffffffffffff168152602001908152602001600020819055508160008085815260200190815260200160002060008b73ffffffffffffffffffffffffffffffffffffffff1673ffffffffffffffffffffffffffffffffffffffff168152602001908152602001600020600082825461173a9190614f5f565b925050819055505050508061174e906150b4565b905061155b565b508473ffffffffffffffffffffffffffffffffffffffff168673ffffffffffffffffffffffffffffffffffffffff168273ffffffffffffffffffffffffffffffffffffffff167f4a39dc06d4c0dbc64b70af90fd698a233a518aa5d07e595d983b8c0526c8f7fb87876040516117cc9291906148b4565b60405180910390a46117e28187878787876124f2565b505050505050565b600073ffffffffffffffffffffffffffffffffffffffff168373ffffffffffffffffffffffffffffffffffffffff16141561185a576040517f08c379a000000000000000000000000000000000000000000000000000000000815260040161185190614c53565b60405180910390fd5b805182511461189e576040517f08c379a000000000000000000000000000000000000000000000000000000000815260040161189590614cf3565b60405180910390fd5b60006118a8611482565b90506118c8818560008686604051806020016040528060008152506124ea565b60005b8351811015611a6157600084828151811061190f577f4e487b7100000000000000000000000000000000000000000000000000000000600052603260045260246000fd5b602002602001015190506000848381518110611954577f4e487b7100000000000000000000000000000000000000000000000000000000600052603260045260246000fd5b60200260200101519050600080600084815260200190815260200160002060008973ffffffffffffffffffffffffffffffffffffffff1673ffffffffffffffffffffffffffffffffffffffff168152602001908152602001600020549050818110156119f5576040517f08c379a00000000000000000000000000000000000000000000000000000000081526004016119ec90614b33565b60405180910390fd5b81810360008085815260200190815260200160002060008a73ffffffffffffffffffffffffffffffffffffffff1673ffffffffffffffffffffffffffffffffffffffff168152602001908152602001600020819055505050508080611a59906150b4565b9150506118cb565b50600073ffffffffffffffffffffffffffffffffffffffff168473ffffffffffffffffffffffffffffffffffffffff168273ffffffffffffffffffffffffffffffffffffffff167f4a39dc06d4c0dbc64b70af90fd698a233a518aa5d07e595d983b8c0526c8f7fb8686604051611ad99291906148b4565b60405180910390a450505050565b6000600460009054906101000a900473ffffffffffffffffffffffffffffffffffffffff16905081600460006101000a81548173ffffffffffffffffffffffffffffffffffffffff021916908373ffffffffffffffffffffffffffffffffffffffff1602179055508173ffffffffffffffffffffffffffffffffffffffff168173ffffffffffffffffffffffffffffffffffffffff167f8be0079c531659141344cd1fd0a4f28419497f9722a3daafe3b4186f6b6457e060405160405180910390a35050565b600073ffffffffffffffffffffffffffffffffffffffff168473ffffffffffffffffffffffffffffffffffffffff161415611c1d576040517f08c379a0000000000000000000000000000000000000000000000000000000008152600401611c1490614bd3565b60405180910390fd5b6000611c27611482565b9050611c47818787611c38886126c2565b611c41886126c2565b876124ea565b600080600086815260200190815260200160002060008873ffffffffffffffffffffffffffffffffffffffff1673ffffffffffffffffffffffffffffffffffffffff16815260200190815260200160002054905083811015611cde576040517f08c379a0000000000000000000000000000000000000000000000000000000008152600401611cd590614c73565b60405180910390fd5b83810360008087815260200190815260200160002060008973ffffffffffffffffffffffffffffffffffffffff1673ffffffffffffffffffffffffffffffffffffffff168152602001908152602001600020819055508360008087815260200190815260200160002060008873ffffffffffffffffffffffffffffffffffffffff1673ffffffffffffffffffffffffffffffffffffffff1681526020019081526020016000206000828254611d939190614f5f565b925050819055508573ffffffffffffffffffffffffffffffffffffffff168773ffffffffffffffffffffffffffffffffffffffff168373ffffffffffffffffffffffffffffffffffffffff167fc3d58168c5ae7397731d063d5bbf3d657854427343f4c083240f7aacaa2d0f628888604051611e10929190614d4e565b60405180910390a4611e26828888888888612788565b50505050505050565b600073ffffffffffffffffffffffffffffffffffffffff168473ffffffffffffffffffffffffffffffffffffffff161415611e9f576040517f08c379a0000000000000000000000000000000000000000000000000000000008152600401611e9690614d13565b60405180910390fd5b6000611ea9611482565b9050611eca81600087611ebb886126c2565b611ec4886126c2565b876124ea565b8260008086815260200190815260200160002060008773ffffffffffffffffffffffffffffffffffffffff1673ffffffffffffffffffffffffffffffffffffffff1681526020019081526020016000206000828254611f299190614f5f565b925050819055508473ffffffffffffffffffffffffffffffffffffffff16600073ffffffffffffffffffffffffffffffffffffffff168273ffffffffffffffffffffffffffffffffffffffff167fc3d58168c5ae7397731d063d5bbf3d657854427343f4c083240f7aacaa2d0f628787604051611fa7929190614d4e565b60405180910390a4611fbe81600087878787612788565b5050505050565b80600560008481526020019081526020016000209080519060200190611fec92919061307b565b505050565b600080611ffd83612958565b905061205b818480608001906120139190614d77565b8080601f016020809104026020016040519081016040528093929190818152602001838380828437600081840152601f19601f820116905080830192505050505050506129c8565b915050919050565b600073ffffffffffffffffffffffffffffffffffffffff168473ffffffffffffffffffffffffffffffffffffffff1614156120d3576040517f08c379a00000000000000000000000000000000000000000000000000000000081526004016120ca90614d13565b60405180910390fd5b8151835114612117576040517f08c379a000000000000000000000000000000000000000000000000000000000815260040161210e90614cf3565b60405180910390fd5b6000612121611482565b9050612132816000878787876124ea565b60005b845181101561223757838181518110612177577f4e487b7100000000000000000000000000000000000000000000000000000000600052603260045260246000fd5b60200260200101516000808784815181106121bb577f4e487b7100000000000000000000000000000000000000000000000000000000600052603260045260246000fd5b6020026020010151815260200190815260200160002060008873ffffffffffffffffffffffffffffffffffffffff1673ffffffffffffffffffffffffffffffffffffffff168152602001908152602001600020600082825461221d9190614f5f565b92505081905550808061222f906150b4565b915050612135565b508473ffffffffffffffffffffffffffffffffffffffff16600073ffffffffffffffffffffffffffffffffffffffff168273ffffffffffffffffffffffffffffffffffffffff167f4a39dc06d4c0dbc64b70af90fd698a233a518aa5d07e595d983b8c0526c8f7fb87876040516122af9291906148b4565b60405180910390a46122c6816000878787876124f2565b5050505050565b600073ffffffffffffffffffffffffffffffffffffffff168373ffffffffffffffffffffffffffffffffffffffff16141561233d576040517f08c379a000000000000000000000000000000000000000000000000000000000815260040161233490614c53565b60405180910390fd5b6000612347611482565b905061237781856000612359876126c2565b612362876126c2565b604051806020016040528060008152506124ea565b600080600085815260200190815260200160002060008673ffffffffffffffffffffffffffffffffffffffff1673ffffffffffffffffffffffffffffffffffffffff1681526020019081526020016000205490508281101561240e576040517f08c379a000000000000000000000000000000000000000000000000000000000815260040161240590614b33565b60405180910390fd5b82810360008086815260200190815260200160002060008773ffffffffffffffffffffffffffffffffffffffff1673ffffffffffffffffffffffffffffffffffffffff16815260200190815260200160002081905550600073ffffffffffffffffffffffffffffffffffffffff168573ffffffffffffffffffffffffffffffffffffffff168373ffffffffffffffffffffffffffffffffffffffff167fc3d58168c5ae7397731d063d5bbf3d657854427343f4c083240f7aacaa2d0f6287876040516124db929190614d4e565b60405180910390a45050505050565b505050505050565b6125118473ffffffffffffffffffffffffffffffffffffffff166129ef565b156126ba578373ffffffffffffffffffffffffffffffffffffffff1663bc197c8187878686866040518663ffffffff1660e01b815260040161255795949392919061474f565b602060405180830381600087803b15801561257157600080fd5b505af19250505080156125a257506040513d601f19601f8201168201806040525081019061259f9190613b07565b60015b612631576125ae6151b2565b806125b957506125f6565b806040517f08c379a00000000000000000000000000000000000000000000000000000000081526004016125ed91906149f1565b60405180910390fd5b6040517f08c379a000000000000000000000000000000000000000000000000000000000815260040161262890614a33565b60405180910390fd5b63bc197c8160e01b7bffffffffffffffffffffffffffffffffffffffffffffffffffffffff1916817bffffffffffffffffffffffffffffffffffffffffffffffffffffffff1916146126b8576040517f08c379a00000000000000000000000000000000000000000000000000000000081526004016126af90614a53565b60405180910390fd5b505b505050505050565b60606000600167ffffffffffffffff811115612707577f4e487b7100000000000000000000000000000000000000000000000000000000600052604160045260246000fd5b6040519080825280602002602001820160405280156127355781602001602082028036833780820191505090505b5090508281600081518110612773577f4e487b7100000000000000000000000000000000000000000000000000000000600052603260045260246000fd5b60200260200101818152505080915050919050565b6127a78473ffffffffffffffffffffffffffffffffffffffff166129ef565b15612950578373ffffffffffffffffffffffffffffffffffffffff1663f23a6e6187878686866040518663ffffffff1660e01b81526004016127ed9594939291906147b7565b602060405180830381600087803b15801561280757600080fd5b505af192505050801561283857506040513d601f19601f820116820180604052508101906128359190613b07565b60015b6128c7576128446151b2565b8061284f575061288c565b806040517f08c379a000000000000000000000000000000000000000000000000000000000815260040161288391906149f1565b60405180910390fd5b6040517f08c379a00000000000000000000000000000000000000000000000000000000081526004016128be90614a33565b60405180910390fd5b63f23a6e6160e01b7bffffffffffffffffffffffffffffffffffffffffffffffffffffffff1916817bffffffffffffffffffffffffffffffffffffffffffffffffffffffff19161461294e576040517f08c379a000000000000000000000000000000000000000000000000000000000815260040161294590614a53565b60405180910390fd5b505b505050505050565b60006129c17f9351747b1e9d1d5ecc2259decffb60239f521e243e85645e0762ed1d7758767783600001358460200135856040013586606001356040516020016129a6959493929190614959565b60405160208183030381529060405280519060200120612a02565b9050919050565b60008060006129d78585612a1c565b915091506129e481612a9f565b819250505092915050565b600080823b905060008111915050919050565b6000612a15612a0f612df0565b83612eb3565b9050919050565b600080604183511415612a5e5760008060006020860151925060408601519150606086015160001a9050612a5287828585612ee6565b94509450505050612a98565b604083511415612a8f576000806020850151915060408501519050612a84868383612ff3565b935093505050612a98565b60006002915091505b9250929050565b60006004811115612ad9577f4e487b7100000000000000000000000000000000000000000000000000000000600052602160045260246000fd5b816004811115612b12577f4e487b7100000000000000000000000000000000000000000000000000000000600052602160045260246000fd5b1415612b1d57612ded565b60016004811115612b57577f4e487b7100000000000000000000000000000000000000000000000000000000600052602160045260246000fd5b816004811115612b90577f4e487b7100000000000000000000000000000000000000000000000000000000600052602160045260246000fd5b1415612bd1576040517f08c379a0000000000000000000000000000000000000000000000000000000008152600401612bc890614a13565b60405180910390fd5b60026004811115612c0b577f4e487b7100000000000000000000000000000000000000000000000000000000600052602160045260246000fd5b816004811115612c44577f4e487b7100000000000000000000000000000000000000000000000000000000600052602160045260246000fd5b1415612c85576040517f08c379a0000000000000000000000000000000000000000000000000000000008152600401612c7c90614a73565b60405180910390fd5b60036004811115612cbf577f4e487b7100000000000000000000000000000000000000000000000000000000600052602160045260246000fd5b816004811115612cf8577f4e487b7100000000000000000000000000000000000000000000000000000000600052602160045260246000fd5b1415612d39576040517f08c379a0000000000000000000000000000000000000000000000000000000008152600401612d3090614b73565b60405180910390fd5b600480811115612d72577f4e487b7100000000000000000000000000000000000000000000000000000000600052602160045260246000fd5b816004811115612dab577f4e487b7100000000000000000000000000000000000000000000000000000000600052602160045260246000fd5b1415612dec576040517f08c379a0000000000000000000000000000000000000000000000000000000008152600401612de390614c13565b60405180910390fd5b5b50565b60007f0000000000000000000000000000000000000000000000000000000000000000461415612e42577f00000000000000000000000000000000000000000000000000000000000000009050612eb0565b612ead7f00000000000000000000000000000000000000000000000000000000000000007f00000000000000000000000000000000000000000000000000000000000000007f0000000000000000000000000000000000000000000000000000000000000000613041565b90505b90565b60008282604051602001612ec89291906146d4565b60405160208183030381529060405280519060200120905092915050565b6000807f7fffffffffffffffffffffffffffffff5d576e7357a4501ddfe92f46681b20a08360001c1115612f21576000600391509150612fea565b601b8560ff1614158015612f395750601c8560ff1614155b15612f4b576000600491509150612fea565b600060018787878760405160008152602001604052604051612f7094939291906149ac565b6020604051602081039080840390855afa158015612f92573d6000803e3d6000fd5b505050602060405103519050600073ffffffffffffffffffffffffffffffffffffffff168173ffffffffffffffffffffffffffffffffffffffff161415612fe157600060019250925050612fea565b80600092509250505b94509492505050565b6000806000807f7fffffffffffffffffffffffffffffffffffffffffffffffffffffffffffffff85169150601b8560ff1c01905061303387828885612ee6565b935093505050935093915050565b6000838383463060405160200161305c959493929190614906565b6040516020818303038152906040528051906020012090509392505050565b82805461308790615082565b90600052602060002090601f0160209004810192826130a957600085556130f0565b82601f106130c257805160ff19168380011785556130f0565b828001600101855582156130f0579182015b828111156130ef5782518255916020019190600101906130d4565b5b5090506130fd9190613101565b5090565b5b8082111561311a576000816000905550600101613102565b5090565b600061313161312c84614dff565b614dce565b9050808382526020820190508285602086028201111561315057600080fd5b60005b85811015613180578161316688826132cf565b845260208401935060208301925050600181019050613153565b5050509392505050565b600061319d61319884614e2b565b614dce565b9050808382526020820190508260005b858110156131dd57813585016131c3888261342a565b8452602084019350602083019250506001810190506131ad565b5050509392505050565b60006131fa6131f584614e57565b614dce565b9050808382526020820190508285602086028201111561321957600080fd5b60005b85811015613249578161322f888261346f565b84526020840193506020830192505060018101905061321c565b5050509392505050565b600061326661326184614e83565b614dce565b90508281526020810184848401111561327e57600080fd5b613289848285615040565b509392505050565b60006132a461329f84614eb3565b614dce565b9050828152602081018484840111156132bc57600080fd5b6132c7848285615040565b509392505050565b6000813590506132de81615268565b92915050565b600082601f8301126132f557600080fd5b813561330584826020860161311e565b91505092915050565b600082601f83011261331f57600080fd5b813561332f84826020860161318a565b91505092915050565b60008083601f84011261334a57600080fd5b8235905067ffffffffffffffff81111561336357600080fd5b60208301915083602082028301111561337b57600080fd5b9250929050565b600082601f83011261339357600080fd5b81356133a38482602086016131e7565b91505092915050565b6000813590506133bb8161527f565b92915050565b6000815190506133d08161527f565b92915050565b6000813590506133e581615296565b92915050565b6000815190506133fa81615296565b92915050565b600082601f83011261341157600080fd5b8135613421848260208601613253565b91505092915050565b600082601f83011261343b57600080fd5b813561344b848260208601613291565b91505092915050565b600060a0828403121561346657600080fd5b81905092915050565b60008135905061347e816152ad565b92915050565b600081519050613493816152ad565b92915050565b6000602082840312156134ab57600080fd5b60006134b9848285016132cf565b91505092915050565b600080604083850312156134d557600080fd5b60006134e3858286016132cf565b92505060206134f4858286016132cf565b9150509250929050565b600080600080600060a0868803121561351657600080fd5b6000613524888289016132cf565b9550506020613535888289016132cf565b945050604086013567ffffffffffffffff81111561355257600080fd5b61355e88828901613382565b935050606086013567ffffffffffffffff81111561357b57600080fd5b61358788828901613382565b925050608086013567ffffffffffffffff8111156135a457600080fd5b6135b088828901613400565b9150509295509295909350565b6000806000606084860312156135d257600080fd5b60006135e0868287016132cf565b93505060206135f1868287016132cf565b925050604084013567ffffffffffffffff81111561360e57600080fd5b61361a86828701613454565b9150509250925092565b600080600080600060a0868803121561363c57600080fd5b600061364a888289016132cf565b955050602061365b888289016132cf565b945050604061366c8882890161346f565b935050606061367d8882890161346f565b925050608086013567ffffffffffffffff81111561369a57600080fd5b6136a688828901613400565b9150509295509295909350565b60008060008060008060a087890312156136cc57600080fd5b60006136da89828a016132cf565b965050602087013567ffffffffffffffff8111156136f757600080fd5b61370389828a01613338565b9550955050604087013567ffffffffffffffff81111561372257600080fd5b61372e89828a01613382565b935050606087013567ffffffffffffffff81111561374b57600080fd5b61375789828a0161330e565b925050608087013567ffffffffffffffff81111561377457600080fd5b61378089828a01613400565b9150509295509295509295565b6000806000606084860312156137a257600080fd5b60006137b0868287016132cf565b935050602084013567ffffffffffffffff8111156137cd57600080fd5b6137d986828701613382565b925050604084013567ffffffffffffffff8111156137f657600080fd5b61380286828701613382565b9150509250925092565b6000806040838503121561381f57600080fd5b600061382d858286016132cf565b925050602061383e858286016133ac565b9150509250929050565b6000806040838503121561385b57600080fd5b6000613869858286016132cf565b925050602083013567ffffffffffffffff81111561388657600080fd5b61389285828601613454565b9150509250929050565b600080604083850312156138af57600080fd5b60006138bd858286016132cf565b92505060206138ce8582860161346f565b9150509250929050565b6000806000606084860312156138ed57600080fd5b60006138fb868287016132cf565b935050602061390c8682870161346f565b925050604061391d8682870161346f565b9150509250925092565b6000806000806080858703121561393d57600080fd5b600061394b878288016132cf565b945050602061395c8782880161346f565b935050604061396d8782880161346f565b925050606085013567ffffffffffffffff81111561398a57600080fd5b61399687828801613400565b91505092959194509250565b600080600080600060a086880312156139ba57600080fd5b60006139c8888289016132cf565b95505060206139d98882890161346f565b94505060406139ea8882890161346f565b935050606086013567ffffffffffffffff811115613a0757600080fd5b613a138882890161342a565b925050608086013567ffffffffffffffff811115613a3057600080fd5b613a3c88828901613400565b9150509295509295909350565b60008060408385031215613a5c57600080fd5b600083013567ffffffffffffffff811115613a7657600080fd5b613a82858286016132e4565b925050602083013567ffffffffffffffff811115613a9f57600080fd5b613aab85828601613382565b9150509250929050565b600060208284031215613ac757600080fd5b6000613ad5848285016133c1565b91505092915050565b600060208284031215613af057600080fd5b6000613afe848285016133d6565b91505092915050565b600060208284031215613b1957600080fd5b6000613b27848285016133eb565b91505092915050565b600060208284031215613b4257600080fd5b600082013567ffffffffffffffff811115613b5c57600080fd5b613b6884828501613454565b91505092915050565b600060208284031215613b8357600080fd5b6000613b918482850161346f565b91505092915050565b600060208284031215613bac57600080fd5b6000613bba84828501613484565b91505092915050565b6000613bcf83836146a7565b60208301905092915050565b613be481614fb5565b82525050565b6000613bf582614ef3565b613bff8185614f21565b9350613c0a83614ee3565b8060005b83811015613c3b578151613c228882613bc3565b9750613c2d83614f14565b925050600181019050613c0e565b5085935050505092915050565b613c5181614fc7565b82525050565b613c6081614fd3565b82525050565b613c77613c7282614fd3565b6150fd565b82525050565b6000613c8882614efe565b613c928185614f32565b9350613ca281856020860161504f565b613cab81615194565b840191505092915050565b6000613cc182614f09565b613ccb8185614f43565b9350613cdb81856020860161504f565b613ce481615194565b840191505092915050565b6000613cfc601883614f43565b91507f45434453413a20696e76616c6964207369676e617475726500000000000000006000830152602082019050919050565b6000613d3c603483614f43565b91507f455243313135353a207472616e7366657220746f206e6f6e204552433131353560008301527f526563656976657220696d706c656d656e7465720000000000000000000000006020830152604082019050919050565b6000613da2602883614f43565b91507f455243313135353a204552433131353552656365697665722072656a6563746560008301527f6420746f6b656e730000000000000000000000000000000000000000000000006020830152604082019050919050565b6000613e08601f83614f43565b91507f45434453413a20696e76616c6964207369676e6174757265206c656e677468006000830152602082019050919050565b6000613e48602a83614f43565b91507f5742565253455243313135353a2049647320616e642055524973206c656e677460008301527f68206d69736d61746368000000000000000000000000000000000000000000006020830152604082019050919050565b6000613eae602b83614f43565b91507f455243313135353a2062616c616e636520717565727920666f7220746865207a60008301527f65726f20616464726573730000000000000000000000000000000000000000006020830152604082019050919050565b6000613f14601b83614f43565b91507f566f75636865722068617320616c7265616479206578706972656400000000006000830152602082019050919050565b6000613f54602683614f43565b91507f4f776e61626c653a206e6577206f776e657220697320746865207a65726f206160008301527f64647265737300000000000000000000000000000000000000000000000000006020830152604082019050919050565b6000613fba602c83614f43565b91507f57425652533a20417072726f76616c206e6f742073657420666f72205765626160008301527f76657273654552433131353500000000000000000000000000000000000000006020830152604082019050919050565b6000614020602483614f43565b91507f455243313135353a206275726e20616d6f756e7420657863656564732062616c60008301527f616e6365000000000000000000000000000000000000000000000000000000006020830152604082019050919050565b6000614086600283614f54565b91507f19010000000000000000000000000000000000000000000000000000000000006000830152600282019050919050565b60006140c6602983614f43565b91507f455243313135353a2063616c6c6572206973206e6f74206f776e6572206e6f7260008301527f20617070726f76656400000000000000000000000000000000000000000000006020830152604082019050919050565b600061412c602283614f43565b91507f45434453413a20696e76616c6964207369676e6174757265202773272076616c60008301527f75650000000000000000000000000000000000000000000000000000000000006020830152604082019050919050565b6000614192602c83614f43565b91507f5742565253455243313135353a2049647320616e642076616c756573206c656e60008301527f677468206d69736d6174636800000000000000000000000000000000000000006020830152604082019050919050565b60006141f8601383614f43565b91507f496e76616c6964206e6f6e63652076616c7565000000000000000000000000006000830152602082019050919050565b6000614238602583614f43565b91507f455243313135353a207472616e7366657220746f20746865207a65726f20616460008301527f64726573730000000000000000000000000000000000000000000000000000006020830152604082019050919050565b600061429e603283614f43565b91507f455243313135353a207472616e736665722063616c6c6572206973206e6f742060008301527f6f776e6572206e6f7220617070726f76656400000000000000000000000000006020830152604082019050919050565b6000614304602283614f43565b91507f45434453413a20696e76616c6964207369676e6174757265202776272076616c60008301527f75650000000000000000000000000000000000000000000000000000000000006020830152604082019050919050565b600061436a602e83614f43565b91507f57425652533a20417574686f72697a6174696f6e206661696c65643a20496e7660008301527f616c6964207369676e61747572650000000000000000000000000000000000006020830152604082019050919050565b60006143d0602383614f43565b91507f455243313135353a206275726e2066726f6d20746865207a65726f206164647260008301527f65737300000000000000000000000000000000000000000000000000000000006020830152604082019050919050565b6000614436602a83614f43565b91507f455243313135353a20696e73756666696369656e742062616c616e636520666f60008301527f72207472616e73666572000000000000000000000000000000000000000000006020830152604082019050919050565b600061449c602083614f43565b91507f4f776e61626c653a2063616c6c6572206973206e6f7420746865206f776e65726000830152602082019050919050565b60006144dc600483614f32565b91507f30583031000000000000000000000000000000000000000000000000000000006000830152602082019050919050565b600061451c602983614f43565b91507f455243313135353a2073657474696e6720617070726f76616c2073746174757360008301527f20666f722073656c6600000000000000000000000000000000000000000000006020830152604082019050919050565b6000614582602983614f43565b91507f455243313135353a206163636f756e747320616e6420696473206c656e67746860008301527f206d69736d6174636800000000000000000000000000000000000000000000006020830152604082019050919050565b60006145e8602883614f43565b91507f455243313135353a2069647320616e6420616d6f756e7473206c656e6774682060008301527f6d69736d617463680000000000000000000000000000000000000000000000006020830152604082019050919050565b600061464e602183614f43565b91507f455243313135353a206d696e7420746f20746865207a65726f2061646472657360008301527f73000000000000000000000000000000000000000000000000000000000000006020830152604082019050919050565b6146b081615029565b82525050565b6146bf81615029565b82525050565b6146ce81615033565b82525050565b60006146df82614079565b91506146eb8285613c66565b6020820191506146fb8284613c66565b6020820191508190509392505050565b60006020820190506147206000830184613bdb565b92915050565b600060408201905061473b6000830185613bdb565b6147486020830184613bdb565b9392505050565b600060a0820190506147646000830188613bdb565b6147716020830187613bdb565b81810360408301526147838186613bea565b905081810360608301526147978185613bea565b905081810360808301526147ab8184613c7d565b90509695505050505050565b600060a0820190506147cc6000830188613bdb565b6147d96020830187613bdb565b6147e660408301866146b6565b6147f360608301856146b6565b81810360808301526148058184613c7d565b90509695505050505050565b600060a0820190506148266000830187613bdb565b6148336020830186613bdb565b61484060408301856146b6565b61484d60608301846146b6565b818103608083015261485e816144cf565b905095945050505050565b600060408201905061487e6000830185613bdb565b61488b60208301846146b6565b9392505050565b600060208201905081810360008301526148ac8184613bea565b905092915050565b600060408201905081810360008301526148ce8185613bea565b905081810360208301526148e28184613bea565b90509392505050565b60006020820190506149006000830184613c48565b92915050565b600060a08201905061491b6000830188613c57565b6149286020830187613c57565b6149356040830186613c57565b61494260608301856146b6565b61494f6080830184613bdb565b9695505050505050565b600060a08201905061496e6000830188613c57565b61497b60208301876146b6565b61498860408301866146b6565b61499560608301856146b6565b6149a260808301846146b6565b9695505050505050565b60006080820190506149c16000830187613c57565b6149ce60208301866146c5565b6149db6040830185613c57565b6149e86060830184613c57565b95945050505050565b60006020820190508181036000830152614a0b8184613cb6565b905092915050565b60006020820190508181036000830152614a2c81613cef565b9050919050565b60006020820190508181036000830152614a4c81613d2f565b9050919050565b60006020820190508181036000830152614a6c81613d95565b9050919050565b60006020820190508181036000830152614a8c81613dfb565b9050919050565b60006020820190508181036000830152614aac81613e3b565b9050919050565b60006020820190508181036000830152614acc81613ea1565b9050919050565b60006020820190508181036000830152614aec81613f07565b9050919050565b60006020820190508181036000830152614b0c81613f47565b9050919050565b60006020820190508181036000830152614b2c81613fad565b9050919050565b60006020820190508181036000830152614b4c81614013565b9050919050565b60006020820190508181036000830152614b6c816140b9565b9050919050565b60006020820190508181036000830152614b8c8161411f565b9050919050565b60006020820190508181036000830152614bac81614185565b9050919050565b60006020820190508181036000830152614bcc816141eb565b9050919050565b60006020820190508181036000830152614bec8161422b565b9050919050565b60006020820190508181036000830152614c0c81614291565b9050919050565b60006020820190508181036000830152614c2c816142f7565b9050919050565b60006020820190508181036000830152614c4c8161435d565b9050919050565b60006020820190508181036000830152614c6c816143c3565b9050919050565b60006020820190508181036000830152614c8c81614429565b9050919050565b60006020820190508181036000830152614cac8161448f565b9050919050565b60006020820190508181036000830152614ccc8161450f565b9050919050565b60006020820190508181036000830152614cec81614575565b9050919050565b60006020820190508181036000830152614d0c816145db565b9050919050565b60006020820190508181036000830152614d2c81614641565b9050919050565b6000602082019050614d4860008301846146b6565b92915050565b6000604082019050614d6360008301856146b6565b614d7060208301846146b6565b9392505050565b60008083356001602003843603038112614d9057600080fd5b80840192508235915067ffffffffffffffff821115614dae57600080fd5b602083019250600182023603831315614dc657600080fd5b509250929050565b6000604051905081810181811067ffffffffffffffff82111715614df557614df4615165565b5b8060405250919050565b600067ffffffffffffffff821115614e1a57614e19615165565b5b602082029050602081019050919050565b600067ffffffffffffffff821115614e4657614e45615165565b5b602082029050602081019050919050565b600067ffffffffffffffff821115614e7257614e71615165565b5b602082029050602081019050919050565b600067ffffffffffffffff821115614e9e57614e9d615165565b5b601f19601f8301169050602081019050919050565b600067ffffffffffffffff821115614ece57614ecd615165565b5b601f19601f8301169050602081019050919050565b6000819050602082019050919050565b600081519050919050565b600081519050919050565b600081519050919050565b6000602082019050919050565b600082825260208201905092915050565b600082825260208201905092915050565b600082825260208201905092915050565b600081905092915050565b6000614f6a82615029565b9150614f7583615029565b9250827fffffffffffffffffffffffffffffffffffffffffffffffffffffffffffffffff03821115614faa57614fa9615107565b5b828201905092915050565b6000614fc082615009565b9050919050565b60008115159050919050565b6000819050919050565b60007fffffffff0000000000000000000000000000000000000000000000000000000082169050919050565b600073ffffffffffffffffffffffffffffffffffffffff82169050919050565b6000819050919050565b600060ff82169050919050565b82818337600083830152505050565b60005b8381101561506d578082015181840152602081019050615052565b8381111561507c576000848401525b50505050565b6000600282049050600182168061509a57607f821691505b602082108114156150ae576150ad615136565b5b50919050565b60006150bf82615029565b91507fffffffffffffffffffffffffffffffffffffffffffffffffffffffffffffffff8214156150f2576150f1615107565b5b600182019050919050565b6000819050919050565b7f4e487b7100000000000000000000000000000000000000000000000000000000600052601160045260246000fd5b7f4e487b7100000000000000000000000000000000000000000000000000000000600052602260045260246000fd5b7f4e487b7100000000000000000000000000000000000000000000000000000000600052604160045260246000fd5b6000601f19601f8301169050919050565b60008160e01c9050919050565b600060443d10156151c257615265565b60046000803e6151d36000516151a5565b6308c379a081146151e45750615265565b60405160043d036004823e80513d602482011167ffffffffffffffff8211171561521057505050615265565b808201805167ffffffffffffffff81111561522f575050505050615265565b8060208301013d850181111561524a57505050505050615265565b61525382615194565b60208401016040528296505050505050505b90565b61527181614fb5565b811461527c57600080fd5b50565b61528881614fc7565b811461529357600080fd5b50565b61529f81614fdd565b81146152aa57600080fd5b50565b6152b681615029565b81146152c157600080fd5b5056fea26469706673582212209c880933c4a7770846386d29b1d4f33f565b0fc2ceb993012fea2b0b07ad349464736f6c6343000800003368747470733a2f2f676174657761792e70696e6174612e636c6f75642f69706673",
  "linkReferences": {},
  "deployedLinkReferences": {}
}