{
  "_format": "hh-sol-artifact-1",
  "contractName": "WebaverseERC1155",
  "sourceName": "contracts/main/WebaverseERC1155.sol",
  "abi": [
    {
      "inputs": [
        {
          "internalType": "string",
          "name": "_uri",
          "type": "string"
        }
      ],
      "stateMutability": "nonpayable",
      "type": "constructor"
    },
    {
      "anonymous": false,
      "inputs": [
        {
          "indexed": true,
          "internalType": "address",
          "name": "account",
          "type": "address"
        },
        {
          "indexed": true,
          "internalType": "address",
          "name": "operator",
          "type": "address"
        },
        {
          "indexed": false,
          "internalType": "bool",
          "name": "approved",
          "type": "bool"
        }
      ],
      "name": "ApprovalForAll",
      "type": "event"
    },
    {
      "anonymous": false,
      "inputs": [
        {
          "indexed": true,
          "internalType": "address",
          "name": "previousOwner",
          "type": "address"
        },
        {
          "indexed": true,
          "internalType": "address",
          "name": "newOwner",
          "type": "address"
        }
      ],
      "name": "OwnershipTransferred",
      "type": "event"
    },
    {
      "anonymous": false,
      "inputs": [
        {
          "indexed": true,
          "internalType": "address",
          "name": "operator",
          "type": "address"
        },
        {
          "indexed": true,
          "internalType": "address",
          "name": "from",
          "type": "address"
        },
        {
          "indexed": true,
          "internalType": "address",
          "name": "to",
          "type": "address"
        },
        {
          "indexed": false,
          "internalType": "uint256[]",
          "name": "ids",
          "type": "uint256[]"
        },
        {
          "indexed": false,
          "internalType": "uint256[]",
          "name": "values",
          "type": "uint256[]"
        }
      ],
      "name": "TransferBatch",
      "type": "event"
    },
    {
      "anonymous": false,
      "inputs": [
        {
          "indexed": true,
          "internalType": "address",
          "name": "operator",
          "type": "address"
        },
        {
          "indexed": true,
          "internalType": "address",
          "name": "from",
          "type": "address"
        },
        {
          "indexed": true,
          "internalType": "address",
          "name": "to",
          "type": "address"
        },
        {
          "indexed": false,
          "internalType": "uint256",
          "name": "id",
          "type": "uint256"
        },
        {
          "indexed": false,
          "internalType": "uint256",
          "name": "value",
          "type": "uint256"
        }
      ],
      "name": "TransferSingle",
      "type": "event"
    },
    {
      "anonymous": false,
      "inputs": [
        {
          "indexed": false,
          "internalType": "string",
          "name": "value",
          "type": "string"
        },
        {
          "indexed": true,
          "internalType": "uint256",
          "name": "id",
          "type": "uint256"
        }
      ],
      "name": "URI",
      "type": "event"
    },
    {
      "inputs": [
        {
          "internalType": "address",
          "name": "account",
          "type": "address"
        },
        {
          "internalType": "uint256",
          "name": "id",
          "type": "uint256"
        }
      ],
      "name": "balanceOf",
      "outputs": [
        {
          "internalType": "uint256",
          "name": "",
          "type": "uint256"
        }
      ],
      "stateMutability": "view",
      "type": "function"
    },
    {
      "inputs": [
        {
          "internalType": "address[]",
          "name": "accounts",
          "type": "address[]"
        },
        {
          "internalType": "uint256[]",
          "name": "ids",
          "type": "uint256[]"
        }
      ],
      "name": "balanceOfBatch",
      "outputs": [
        {
          "internalType": "uint256[]",
          "name": "",
          "type": "uint256[]"
        }
      ],
      "stateMutability": "view",
      "type": "function"
    },
    {
      "inputs": [
        {
          "internalType": "address",
          "name": "owner",
          "type": "address"
        },
        {
          "internalType": "uint256",
          "name": "id",
          "type": "uint256"
        },
        {
          "internalType": "uint256",
          "name": "value",
          "type": "uint256"
        }
      ],
      "name": "burn",
      "outputs": [],
      "stateMutability": "nonpayable",
      "type": "function"
    },
    {
      "inputs": [
        {
          "internalType": "address",
          "name": "owner",
          "type": "address"
        },
        {
          "internalType": "uint256[]",
          "name": "ids",
          "type": "uint256[]"
        },
        {
          "internalType": "uint256[]",
          "name": "values",
          "type": "uint256[]"
        }
      ],
      "name": "burnBatch",
      "outputs": [],
      "stateMutability": "nonpayable",
      "type": "function"
    },
    {
      "inputs": [
        {
          "internalType": "uint256",
          "name": "",
          "type": "uint256"
        }
      ],
      "name": "burnedNonces",
      "outputs": [
        {
          "internalType": "bool",
          "name": "",
          "type": "bool"
        }
      ],
      "stateMutability": "view",
      "type": "function"
    },
    {
      "inputs": [
        {
          "internalType": "address",
          "name": "claimer",
          "type": "address"
        },
        {
          "components": [
            {
              "internalType": "uint256",
              "name": "tokenId",
              "type": "uint256"
            },
            {
              "internalType": "uint256",
              "name": "balance",
              "type": "uint256"
            },
            {
              "internalType": "uint256",
              "name": "nonce",
              "type": "uint256"
            },
            {
              "internalType": "uint256",
              "name": "expiry",
              "type": "uint256"
            },
            {
              "internalType": "bytes",
              "name": "signature",
              "type": "bytes"
            }
          ],
          "internalType": "struct WBVRSVoucher.NFTVoucher",
          "name": "voucher",
          "type": "tuple"
        }
      ],
      "name": "claim",
      "outputs": [
        {
          "internalType": "uint256",
          "name": "",
          "type": "uint256"
        }
      ],
      "stateMutability": "nonpayable",
      "type": "function"
    },
    {
      "inputs": [],
      "name": "currentTokenID",
      "outputs": [
        {
          "internalType": "uint256",
          "name": "",
          "type": "uint256"
        }
      ],
      "stateMutability": "view",
      "type": "function"
    },
    {
      "inputs": [
        {
          "internalType": "address",
          "name": "claimer",
          "type": "address"
        },
        {
          "internalType": "address",
          "name": "contractAddress",
          "type": "address"
        },
        {
          "components": [
            {
              "internalType": "uint256",
              "name": "tokenId",
              "type": "uint256"
            },
            {
              "internalType": "uint256",
              "name": "balance",
              "type": "uint256"
            },
            {
              "internalType": "uint256",
              "name": "nonce",
              "type": "uint256"
            },
            {
              "internalType": "uint256",
              "name": "expiry",
              "type": "uint256"
            },
            {
              "internalType": "bytes",
              "name": "signature",
              "type": "bytes"
            }
          ],
          "internalType": "struct WBVRSVoucher.NFTVoucher",
          "name": "voucher",
          "type": "tuple"
        }
      ],
      "name": "externalClaim",
      "outputs": [
        {
          "internalType": "uint256",
          "name": "",
          "type": "uint256"
        }
      ],
      "stateMutability": "nonpayable",
      "type": "function"
    },
    {
      "inputs": [
        {
          "internalType": "address",
          "name": "account",
          "type": "address"
        },
        {
          "internalType": "address",
          "name": "operator",
          "type": "address"
        }
      ],
      "name": "isApprovedForAll",
      "outputs": [
        {
          "internalType": "bool",
          "name": "",
          "type": "bool"
        }
      ],
      "stateMutability": "view",
      "type": "function"
    },
    {
      "inputs": [
        {
          "internalType": "address",
          "name": "account",
          "type": "address"
        },
        {
          "internalType": "uint256",
          "name": "amount",
          "type": "uint256"
        },
        {
          "internalType": "string",
          "name": "_uri",
          "type": "string"
        },
        {
          "internalType": "bytes",
          "name": "data",
          "type": "bytes"
        }
      ],
      "name": "mint",
      "outputs": [],
      "stateMutability": "nonpayable",
      "type": "function"
    },
    {
      "inputs": [
        {
          "internalType": "address",
          "name": "to",
          "type": "address"
        },
        {
          "internalType": "uint256",
          "name": "tokenCount",
          "type": "uint256"
        },
        {
          "internalType": "uint256[]",
          "name": "values",
          "type": "uint256[]"
        },
        {
          "internalType": "string[]",
          "name": "uris",
          "type": "string[]"
        },
        {
          "internalType": "bytes",
          "name": "data",
          "type": "bytes"
        }
      ],
      "name": "mintBatch",
      "outputs": [],
      "stateMutability": "nonpayable",
      "type": "function"
    },
    {
      "inputs": [],
      "name": "owner",
      "outputs": [
        {
          "internalType": "address",
          "name": "",
          "type": "address"
        }
      ],
      "stateMutability": "view",
      "type": "function"
    },
    {
      "inputs": [],
      "name": "renounceOwnership",
      "outputs": [],
      "stateMutability": "nonpayable",
      "type": "function"
    },
    {
      "inputs": [
        {
          "internalType": "address",
          "name": "from",
          "type": "address"
        },
        {
          "internalType": "address",
          "name": "to",
          "type": "address"
        },
        {
          "internalType": "uint256[]",
          "name": "ids",
          "type": "uint256[]"
        },
        {
          "internalType": "uint256[]",
          "name": "amounts",
          "type": "uint256[]"
        },
        {
          "internalType": "bytes",
          "name": "data",
          "type": "bytes"
        }
      ],
      "name": "safeBatchTransferFrom",
      "outputs": [],
      "stateMutability": "nonpayable",
      "type": "function"
    },
    {
      "inputs": [
        {
          "internalType": "address",
          "name": "to",
          "type": "address"
        },
        {
          "internalType": "uint256",
          "name": "id",
          "type": "uint256"
        },
        {
          "internalType": "uint256",
          "name": "amount",
          "type": "uint256"
        },
        {
          "internalType": "bytes",
          "name": "data",
          "type": "bytes"
        }
      ],
      "name": "safeTransfer",
      "outputs": [],
      "stateMutability": "nonpayable",
      "type": "function"
    },
    {
      "inputs": [
        {
          "internalType": "address",
          "name": "from",
          "type": "address"
        },
        {
          "internalType": "address",
          "name": "to",
          "type": "address"
        },
        {
          "internalType": "uint256",
          "name": "id",
          "type": "uint256"
        },
        {
          "internalType": "uint256",
          "name": "amount",
          "type": "uint256"
        },
        {
          "internalType": "bytes",
          "name": "data",
          "type": "bytes"
        }
      ],
      "name": "safeTransferFrom",
      "outputs": [],
      "stateMutability": "nonpayable",
      "type": "function"
    },
    {
      "inputs": [
        {
          "internalType": "address",
          "name": "operator",
          "type": "address"
        },
        {
          "internalType": "bool",
          "name": "approved",
          "type": "bool"
        }
      ],
      "name": "setApprovalForAll",
      "outputs": [],
      "stateMutability": "nonpayable",
      "type": "function"
    },
    {
      "inputs": [
        {
          "internalType": "bytes4",
          "name": "interfaceId",
          "type": "bytes4"
        }
      ],
      "name": "supportsInterface",
      "outputs": [
        {
          "internalType": "bool",
          "name": "",
          "type": "bool"
        }
      ],
      "stateMutability": "view",
      "type": "function"
    },
    {
      "inputs": [
        {
          "internalType": "address",
          "name": "newOwner",
          "type": "address"
        }
      ],
      "name": "transferOwnership",
      "outputs": [],
      "stateMutability": "nonpayable",
      "type": "function"
    },
    {
      "inputs": [
        {
          "internalType": "uint256",
          "name": "_id",
          "type": "uint256"
        }
      ],
      "name": "uri",
      "outputs": [
        {
          "internalType": "string",
          "name": "",
          "type": "string"
        }
      ],
      "stateMutability": "view",
      "type": "function"
    },
    {
      "inputs": [
        {
          "components": [
            {
              "internalType": "uint256",
              "name": "tokenId",
              "type": "uint256"
            },
            {
              "internalType": "uint256",
              "name": "balance",
              "type": "uint256"
            },
            {
              "internalType": "uint256",
              "name": "nonce",
              "type": "uint256"
            },
            {
              "internalType": "uint256",
              "name": "expiry",
              "type": "uint256"
            },
            {
              "internalType": "bytes",
              "name": "signature",
              "type": "bytes"
            }
          ],
          "internalType": "struct WBVRSVoucher.NFTVoucher",
          "name": "voucher",
          "type": "tuple"
        }
      ],
      "name": "verifyVoucher",
      "outputs": [
        {
          "internalType": "address",
          "name": "",
          "type": "address"
        }
      ],
      "stateMutability": "nonpayable",
      "type": "function"
    }
  ],
  "bytecode": "0x61012060405260006006553480156200001757600080fd5b50604051620059013803806200590183398181016040528101906200003d9190620003a8565b6040518060400160405280601181526020017f5765626176657273652d766f75636865720000000000000000000000000000008152506040518060400160405280600181526020017f310000000000000000000000000000000000000000000000000000000000000081525082620000bb816200016060201b60201c565b5060008280519060200120905060008280519060200120905060007f8b73c3c69bb8fe3d512ecc4cf759cc79239f7b179b0ffacaa9a75d522b39400f90508260c081815250508160e081815250504660a08181525050620001248184846200017c60201b60201c565b608081815250508061010081815250505050505050620001596200014d620001b860201b60201c565b620001c060201b60201c565b50620005f6565b80600290805190602001906200017892919062000286565b5050565b600083838346306040516020016200019995949392919062000420565b6040516020818303038152906040528051906020012090509392505050565b600033905090565b6000600460009054906101000a900473ffffffffffffffffffffffffffffffffffffffff16905081600460006101000a81548173ffffffffffffffffffffffffffffffffffffffff021916908373ffffffffffffffffffffffffffffffffffffffff1602179055508173ffffffffffffffffffffffffffffffffffffffff168173ffffffffffffffffffffffffffffffffffffffff167f8be0079c531659141344cd1fd0a4f28419497f9722a3daafe3b4186f6b6457e060405160405180910390a35050565b828054620002949062000562565b90600052602060002090601f016020900481019282620002b8576000855562000304565b82601f10620002d357805160ff191683800117855562000304565b8280016001018555821562000304579182015b8281111562000303578251825591602001919060010190620002e6565b5b50905062000313919062000317565b5090565b5b808211156200033257600081600090555060010162000318565b5090565b60006200034d6200034784620004b1565b6200047d565b9050828152602081018484840111156200036657600080fd5b620003738482856200052c565b509392505050565b600082601f8301126200038d57600080fd5b81516200039f84826020860162000336565b91505092915050565b600060208284031215620003bb57600080fd5b600082015167ffffffffffffffff811115620003d657600080fd5b620003e4848285016200037b565b91505092915050565b620003f881620004e4565b82525050565b6200040981620004f8565b82525050565b6200041a8162000522565b82525050565b600060a082019050620004376000830188620003fe565b620004466020830187620003fe565b620004556040830186620003fe565b6200046460608301856200040f565b620004736080830184620003ed565b9695505050505050565b6000604051905081810181811067ffffffffffffffff82111715620004a757620004a6620005c7565b5b8060405250919050565b600067ffffffffffffffff821115620004cf57620004ce620005c7565b5b601f19601f8301169050602081019050919050565b6000620004f18262000502565b9050919050565b6000819050919050565b600073ffffffffffffffffffffffffffffffffffffffff82169050919050565b6000819050919050565b60005b838110156200054c5780820151818401526020810190506200052f565b838111156200055c576000848401525b50505050565b600060028204905060018216806200057b57607f821691505b6020821081141562000592576200059162000598565b5b50919050565b7f4e487b7100000000000000000000000000000000000000000000000000000000600052602260045260246000fd5b7f4e487b7100000000000000000000000000000000000000000000000000000000600052604160045260246000fd5b60805160a05160c05160e051610100516152c66200063b6000396000612f9801526000612fda01526000612fb901526000612f4501526000612f6d01526152c66000f3fe608060405234801561001057600080fd5b50600436106101365760003560e01c80639468f2ca116100b8578063bb62115e1161007c578063bb62115e1461036f578063d2b04fd61461038d578063e985e9c5146103a9578063f242432a146103d9578063f2fde38b146103f5578063f5298aca1461041157610136565b80639468f2ca146102a7578063a22cb465146102d7578063a8689ce2146102f3578063ad637e6714610323578063ae28b68c1461035357610136565b80636b20c454116100ff5780636b20c45414610217578063715018a614610233578063778ae16a1461023d5780637e2499cc146102595780638da5cb5b1461028957610136565b8062fdd58e1461013b57806301ffc9a71461016b5780630e89341c1461019b5780632eb2c2d6146101cb5780634e1273f4146101e7575b600080fd5b610155600480360381019061015091906138c9565b61042d565b6040516101629190614cff565b60405180910390f35b61018560048036038101906101809190613bb6565b6104f6565b60405161019291906148f7565b60405180910390f35b6101b560048036038101906101b09190613c49565b6105d8565b6040516101c291906149fd565b60405180910390f35b6101e560048036038101906101e09190613605565b61067d565b005b61020160048036038101906101fc9190613b21565b61071e565b60405161020e919061489e565b60405180910390f35b610231600480360381019061022c91906137ba565b6108cf565b005b61023b61095b565b005b61025760048036038101906102529190613905565b6109e3565b005b610273600480360381019061026e9190613c49565b610b04565b60405161028091906148f7565b60405180910390f35b610291610b24565b60405161029e9190614717565b60405180910390f35b6102c160048036038101906102bc9190613875565b610b4e565b6040516102ce9190614cff565b60405180910390f35b6102f160048036038101906102ec9190613839565b610c10565b005b61030d600480360381019061030891906136c4565b610d91565b60405161031a9190614cff565b60405180910390f35b61033d60048036038101906103389190613c08565b610fc7565b60405161034a9190614717565b60405180910390f35b61036d60048036038101906103689190613aa6565b6110c1565b005b6103776110db565b6040516103849190614cff565b60405180910390f35b6103a760048036038101906103a291906139c4565b6110e1565b005b6103c360048036038101906103be91906135c9565b611113565b6040516103d091906148f7565b60405180910390f35b6103f360048036038101906103ee919061372b565b6111a7565b005b61040f600480360381019061040a91906135a0565b611248565b005b61042b60048036038101906104269190613a57565b611340565b005b60008073ffffffffffffffffffffffffffffffffffffffff168373ffffffffffffffffffffffffffffffffffffffff16141561049e576040517f08c379a000000000000000000000000000000000000000000000000000000000815260040161049590614a9f565b60405180910390fd5b60008083815260200190815260200160002060008473ffffffffffffffffffffffffffffffffffffffff1673ffffffffffffffffffffffffffffffffffffffff16815260200190815260200160002054905092915050565b60007fd9b67a26000000000000000000000000000000000000000000000000000000007bffffffffffffffffffffffffffffffffffffffffffffffffffffffff1916827bffffffffffffffffffffffffffffffffffffffffffffffffffffffff191614806105c157507f0e89341c000000000000000000000000000000000000000000000000000000007bffffffffffffffffffffffffffffffffffffffffffffffffffffffff1916827bffffffffffffffffffffffffffffffffffffffffffffffffffffffff1916145b806105d157506105d0826113cc565b5b9050919050565b60606005600083815260200190815260200160002080546105f89061504e565b80601f01602080910402602001604051908101604052809291908181526020018280546106249061504e565b80156106715780601f1061064657610100808354040283529160200191610671565b820191906000526020600020905b81548152906001019060200180831161065457829003601f168201915b50505050509050919050565b610685611436565b73ffffffffffffffffffffffffffffffffffffffff168573ffffffffffffffffffffffffffffffffffffffff1614806106cb57506106ca856106c5611436565b611113565b5b61070a576040517f08c379a000000000000000000000000000000000000000000000000000000000815260040161070190614bbf565b60405180910390fd5b610717858585858561143e565b5050505050565b60608151835114610764576040517f08c379a000000000000000000000000000000000000000000000000000000000815260040161075b90614c9f565b60405180910390fd5b6000835167ffffffffffffffff8111156107a7577f4e487b7100000000000000000000000000000000000000000000000000000000600052604160045260246000fd5b6040519080825280602002602001820160405280156107d55781602001602082028036833780820191505090505b50905060005b84518110156108c45761086e858281518110610820577f4e487b7100000000000000000000000000000000000000000000000000000000600052603260045260246000fd5b6020026020010151858381518110610861577f4e487b7100000000000000000000000000000000000000000000000000000000600052603260045260246000fd5b602002602001015161042d565b8282815181106108a7577f4e487b7100000000000000000000000000000000000000000000000000000000600052603260045260246000fd5b602002602001018181525050806108bd90615080565b90506107db565b508091505092915050565b6108d7611436565b73ffffffffffffffffffffffffffffffffffffffff166108f5610b24565b73ffffffffffffffffffffffffffffffffffffffff161461094b576040517f08c379a000000000000000000000000000000000000000000000000000000000815260040161094290614c5f565b60405180910390fd5b61095683838361179e565b505050565b610963611436565b73ffffffffffffffffffffffffffffffffffffffff16610981610b24565b73ffffffffffffffffffffffffffffffffffffffff16146109d7576040517f08c379a00000000000000000000000000000000000000000000000000000000081526004016109ce90614c5f565b60405180910390fd5b6109e16000611a9b565b565b825184146109f057600080fd5b606060005b85811015610aef57610a05611b61565b828281518110610a3e577f4e487b7100000000000000000000000000000000000000000000000000000000600052603260045260246000fd5b602002602001018181525050610ad4828281518110610a86577f4e487b7100000000000000000000000000000000000000000000000000000000600052603260045260246000fd5b6020026020010151858381518110610ac7577f4e487b7100000000000000000000000000000000000000000000000000000000600052603260045260246000fd5b6020026020010151611b77565b610adc611ba3565b8080610ae790615080565b9150506109f5565b50610afc86828685611bbd565b505050505050565b60036020528060005260406000206000915054906101000a900460ff1681565b6000600460009054906101000a900473ffffffffffffffffffffffffffffffffffffffff16905090565b600080610b5a83610fc7565b90506000610b6c82856000013561042d565b14610bac576040517f08c379a0000000000000000000000000000000000000000000000000000000008152600401610ba390614bff565b60405180910390fd5b610bb881306001611e27565b610c028185856000013586602001356040518060400160405280600481526020017f30783031000000000000000000000000000000000000000000000000000000008152506111a7565b826000013591505092915050565b8173ffffffffffffffffffffffffffffffffffffffff16610c2f611436565b73ffffffffffffffffffffffffffffffffffffffff161415610c86576040517f08c379a0000000000000000000000000000000000000000000000000000000008152600401610c7d90614c7f565b60405180910390fd5b8060016000610c93611436565b73ffffffffffffffffffffffffffffffffffffffff1673ffffffffffffffffffffffffffffffffffffffff16815260200190815260200160002060008473ffffffffffffffffffffffffffffffffffffffff1673ffffffffffffffffffffffffffffffffffffffff16815260200190815260200160002060006101000a81548160ff0219169083151502179055508173ffffffffffffffffffffffffffffffffffffffff16610d40611436565b73ffffffffffffffffffffffffffffffffffffffff167f17307eab39ab6107e8899845ad3d59bd9653f200f220920489ca2b5937696c3183604051610d8591906148f7565b60405180910390a35050565b6000808390506000610da284610fc7565b905060008273ffffffffffffffffffffffffffffffffffffffff1662fdd58e8387600001356040518363ffffffff1660e01b8152600401610de4929190614875565b60206040518083038186803b158015610dfc57600080fd5b505afa158015610e10573d6000803e3d6000fd5b505050506040513d601f19601f82011682018060405250810190610e349190613c72565b14610e74576040517f08c379a0000000000000000000000000000000000000000000000000000000008152600401610e6b90614bff565b60405180910390fd5b8173ffffffffffffffffffffffffffffffffffffffff1663e985e9c587306040518363ffffffff1660e01b8152600401610eaf929190614732565b60206040518083038186803b158015610ec757600080fd5b505afa158015610edb573d6000803e3d6000fd5b505050506040513d601f19601f82011682018060405250810190610eff9190613b8d565b610f3e576040517f08c379a0000000000000000000000000000000000000000000000000000000008152600401610f3590614aff565b60405180910390fd5b8173ffffffffffffffffffffffffffffffffffffffff1663f242432a8288876000013588602001356040518563ffffffff1660e01b8152600401610f85949392919061481d565b600060405180830381600087803b158015610f9f57600080fd5b505af1158015610fb3573d6000803e3d6000fd5b505050508360000135925050509392505050565b60008160600135421115611010576040517f08c379a000000000000000000000000000000000000000000000000000000000815260040161100790614abf565b60405180910390fd5b60001515600360008460400135815260200190815260200160002060009054906101000a900460ff1615151461107b576040517f08c379a000000000000000000000000000000000000000000000000000000000815260040161107290614b7f565b60405180910390fd5b6001600360008460400135815260200190815260200160002060006101000a81548160ff02191690831515021790555060006110b683611f94565b905080915050919050565b6110d56110cc611436565b858585856111a7565b50505050565b60065481565b6110f4846110ed611b61565b8584612006565b6111056110ff611b61565b83611b77565b61110d611ba3565b50505050565b6000600160008473ffffffffffffffffffffffffffffffffffffffff1673ffffffffffffffffffffffffffffffffffffffff16815260200190815260200160002060008373ffffffffffffffffffffffffffffffffffffffff1673ffffffffffffffffffffffffffffffffffffffff16815260200190815260200160002060009054906101000a900460ff16905092915050565b6111af611436565b73ffffffffffffffffffffffffffffffffffffffff168573ffffffffffffffffffffffffffffffffffffffff1614806111f557506111f4856111ef611436565b611113565b5b611234576040517f08c379a000000000000000000000000000000000000000000000000000000000815260040161122b90614b3f565b60405180910390fd5b611241858585858561219c565b5050505050565b611250611436565b73ffffffffffffffffffffffffffffffffffffffff1661126e610b24565b73ffffffffffffffffffffffffffffffffffffffff16146112c4576040517f08c379a00000000000000000000000000000000000000000000000000000000081526004016112bb90614c5f565b60405180910390fd5b600073ffffffffffffffffffffffffffffffffffffffff168173ffffffffffffffffffffffffffffffffffffffff161415611334576040517f08c379a000000000000000000000000000000000000000000000000000000000815260040161132b90614adf565b60405180910390fd5b61133d81611a9b565b50565b611348611436565b73ffffffffffffffffffffffffffffffffffffffff16611366610b24565b73ffffffffffffffffffffffffffffffffffffffff16146113bc576040517f08c379a00000000000000000000000000000000000000000000000000000000081526004016113b390614c5f565b60405180910390fd5b6113c783838361241e565b505050565b60007f01ffc9a7000000000000000000000000000000000000000000000000000000007bffffffffffffffffffffffffffffffffffffffffffffffffffffffff1916827bffffffffffffffffffffffffffffffffffffffffffffffffffffffff1916149050919050565b600033905090565b8151835114611482576040517f08c379a000000000000000000000000000000000000000000000000000000000815260040161147990614cbf565b60405180910390fd5b600073ffffffffffffffffffffffffffffffffffffffff168473ffffffffffffffffffffffffffffffffffffffff1614156114f2576040517f08c379a00000000000000000000000000000000000000000000000000000000081526004016114e990614b9f565b60405180910390fd5b60006114fc611436565b905061150c81878787878761263b565b60005b8451811015611709576000858281518110611553577f4e487b7100000000000000000000000000000000000000000000000000000000600052603260045260246000fd5b602002602001015190506000858381518110611598577f4e487b7100000000000000000000000000000000000000000000000000000000600052603260045260246000fd5b60200260200101519050600080600084815260200190815260200160002060008b73ffffffffffffffffffffffffffffffffffffffff1673ffffffffffffffffffffffffffffffffffffffff16815260200190815260200160002054905081811015611639576040517f08c379a000000000000000000000000000000000000000000000000000000000815260040161163090614c3f565b60405180910390fd5b81810360008085815260200190815260200160002060008c73ffffffffffffffffffffffffffffffffffffffff1673ffffffffffffffffffffffffffffffffffffffff168152602001908152602001600020819055508160008085815260200190815260200160002060008b73ffffffffffffffffffffffffffffffffffffffff1673ffffffffffffffffffffffffffffffffffffffff16815260200190815260200160002060008282546116ee9190614f2b565b925050819055505050508061170290615080565b905061150f565b508473ffffffffffffffffffffffffffffffffffffffff168673ffffffffffffffffffffffffffffffffffffffff168273ffffffffffffffffffffffffffffffffffffffff167f4a39dc06d4c0dbc64b70af90fd698a233a518aa5d07e595d983b8c0526c8f7fb87876040516117809291906148c0565b60405180910390a4611796818787878787612643565b505050505050565b600073ffffffffffffffffffffffffffffffffffffffff168373ffffffffffffffffffffffffffffffffffffffff16141561180e576040517f08c379a000000000000000000000000000000000000000000000000000000000815260040161180590614c1f565b60405180910390fd5b8051825114611852576040517f08c379a000000000000000000000000000000000000000000000000000000000815260040161184990614cbf565b60405180910390fd5b600061185c611436565b905061187c8185600086866040518060200160405280600081525061263b565b60005b8351811015611a155760008482815181106118c3577f4e487b7100000000000000000000000000000000000000000000000000000000600052603260045260246000fd5b602002602001015190506000848381518110611908577f4e487b7100000000000000000000000000000000000000000000000000000000600052603260045260246000fd5b60200260200101519050600080600084815260200190815260200160002060008973ffffffffffffffffffffffffffffffffffffffff1673ffffffffffffffffffffffffffffffffffffffff168152602001908152602001600020549050818110156119a9576040517f08c379a00000000000000000000000000000000000000000000000000000000081526004016119a090614b1f565b60405180910390fd5b81810360008085815260200190815260200160002060008a73ffffffffffffffffffffffffffffffffffffffff1673ffffffffffffffffffffffffffffffffffffffff168152602001908152602001600020819055505050508080611a0d90615080565b91505061187f565b50600073ffffffffffffffffffffffffffffffffffffffff168473ffffffffffffffffffffffffffffffffffffffff168273ffffffffffffffffffffffffffffffffffffffff167f4a39dc06d4c0dbc64b70af90fd698a233a518aa5d07e595d983b8c0526c8f7fb8686604051611a8d9291906148c0565b60405180910390a450505050565b6000600460009054906101000a900473ffffffffffffffffffffffffffffffffffffffff16905081600460006101000a81548173ffffffffffffffffffffffffffffffffffffffff021916908373ffffffffffffffffffffffffffffffffffffffff1602179055508173ffffffffffffffffffffffffffffffffffffffff168173ffffffffffffffffffffffffffffffffffffffff167f8be0079c531659141344cd1fd0a4f28419497f9722a3daafe3b4186f6b6457e060405160405180910390a35050565b60006001600654611b729190614f2b565b905090565b80600560008481526020019081526020016000209080519060200190611b9e9291906131cc565b505050565b60066000815480929190611bb690615080565b9190505550565b600073ffffffffffffffffffffffffffffffffffffffff168473ffffffffffffffffffffffffffffffffffffffff161415611c2d576040517f08c379a0000000000000000000000000000000000000000000000000000000008152600401611c2490614cdf565b60405180910390fd5b8151835114611c71576040517f08c379a0000000000000000000000000000000000000000000000000000000008152600401611c6890614cbf565b60405180910390fd5b6000611c7b611436565b9050611c8c8160008787878761263b565b60005b8451811015611d9157838181518110611cd1577f4e487b7100000000000000000000000000000000000000000000000000000000600052603260045260246000fd5b6020026020010151600080878481518110611d15577f4e487b7100000000000000000000000000000000000000000000000000000000600052603260045260246000fd5b6020026020010151815260200190815260200160002060008873ffffffffffffffffffffffffffffffffffffffff1673ffffffffffffffffffffffffffffffffffffffff1681526020019081526020016000206000828254611d779190614f2b565b925050819055508080611d8990615080565b915050611c8f565b508473ffffffffffffffffffffffffffffffffffffffff16600073ffffffffffffffffffffffffffffffffffffffff168273ffffffffffffffffffffffffffffffffffffffff167f4a39dc06d4c0dbc64b70af90fd698a233a518aa5d07e595d983b8c0526c8f7fb8787604051611e099291906148c0565b60405180910390a4611e2081600087878787612643565b5050505050565b8173ffffffffffffffffffffffffffffffffffffffff168373ffffffffffffffffffffffffffffffffffffffff161415611e96576040517f08c379a0000000000000000000000000000000000000000000000000000000008152600401611e8d90614c7f565b60405180910390fd5b80600160008573ffffffffffffffffffffffffffffffffffffffff1673ffffffffffffffffffffffffffffffffffffffff16815260200190815260200160002060008473ffffffffffffffffffffffffffffffffffffffff1673ffffffffffffffffffffffffffffffffffffffff16815260200190815260200160002060006101000a81548160ff0219169083151502179055508173ffffffffffffffffffffffffffffffffffffffff168373ffffffffffffffffffffffffffffffffffffffff167f17307eab39ab6107e8899845ad3d59bd9653f200f220920489ca2b5937696c3183604051611f8791906148f7565b60405180910390a3505050565b600080611fa083612813565b9050611ffe81848060800190611fb69190614d43565b8080601f016020809104026020016040519081016040528093929190818152602001838380828437600081840152601f19601f82011690508083019250505050505050612883565b915050919050565b600073ffffffffffffffffffffffffffffffffffffffff168473ffffffffffffffffffffffffffffffffffffffff161415612076576040517f08c379a000000000000000000000000000000000000000000000000000000000815260040161206d90614cdf565b60405180910390fd5b6000612080611436565b90506120a181600087612092886128aa565b61209b886128aa565b8761263b565b8260008086815260200190815260200160002060008773ffffffffffffffffffffffffffffffffffffffff1673ffffffffffffffffffffffffffffffffffffffff16815260200190815260200160002060008282546121009190614f2b565b925050819055508473ffffffffffffffffffffffffffffffffffffffff16600073ffffffffffffffffffffffffffffffffffffffff168273ffffffffffffffffffffffffffffffffffffffff167fc3d58168c5ae7397731d063d5bbf3d657854427343f4c083240f7aacaa2d0f62878760405161217e929190614d1a565b60405180910390a461219581600087878787612970565b5050505050565b600073ffffffffffffffffffffffffffffffffffffffff168473ffffffffffffffffffffffffffffffffffffffff16141561220c576040517f08c379a000000000000000000000000000000000000000000000000000000000815260040161220390614b9f565b60405180910390fd5b6000612216611436565b9050612236818787612227886128aa565b612230886128aa565b8761263b565b600080600086815260200190815260200160002060008873ffffffffffffffffffffffffffffffffffffffff1673ffffffffffffffffffffffffffffffffffffffff168152602001908152602001600020549050838110156122cd576040517f08c379a00000000000000000000000000000000000000000000000000000000081526004016122c490614c3f565b60405180910390fd5b83810360008087815260200190815260200160002060008973ffffffffffffffffffffffffffffffffffffffff1673ffffffffffffffffffffffffffffffffffffffff168152602001908152602001600020819055508360008087815260200190815260200160002060008873ffffffffffffffffffffffffffffffffffffffff1673ffffffffffffffffffffffffffffffffffffffff16815260200190815260200160002060008282546123829190614f2b565b925050819055508573ffffffffffffffffffffffffffffffffffffffff168773ffffffffffffffffffffffffffffffffffffffff168373ffffffffffffffffffffffffffffffffffffffff167fc3d58168c5ae7397731d063d5bbf3d657854427343f4c083240f7aacaa2d0f6288886040516123ff929190614d1a565b60405180910390a4612415828888888888612970565b50505050505050565b600073ffffffffffffffffffffffffffffffffffffffff168373ffffffffffffffffffffffffffffffffffffffff16141561248e576040517f08c379a000000000000000000000000000000000000000000000000000000000815260040161248590614c1f565b60405180910390fd5b6000612498611436565b90506124c8818560006124aa876128aa565b6124b3876128aa565b6040518060200160405280600081525061263b565b600080600085815260200190815260200160002060008673ffffffffffffffffffffffffffffffffffffffff1673ffffffffffffffffffffffffffffffffffffffff1681526020019081526020016000205490508281101561255f576040517f08c379a000000000000000000000000000000000000000000000000000000000815260040161255690614b1f565b60405180910390fd5b82810360008086815260200190815260200160002060008773ffffffffffffffffffffffffffffffffffffffff1673ffffffffffffffffffffffffffffffffffffffff16815260200190815260200160002081905550600073ffffffffffffffffffffffffffffffffffffffff168573ffffffffffffffffffffffffffffffffffffffff168373ffffffffffffffffffffffffffffffffffffffff167fc3d58168c5ae7397731d063d5bbf3d657854427343f4c083240f7aacaa2d0f62878760405161262c929190614d1a565b60405180910390a45050505050565b505050505050565b6126628473ffffffffffffffffffffffffffffffffffffffff16612b40565b1561280b578373ffffffffffffffffffffffffffffffffffffffff1663bc197c8187878686866040518663ffffffff1660e01b81526004016126a895949392919061475b565b602060405180830381600087803b1580156126c257600080fd5b505af19250505080156126f357506040513d601f19601f820116820180604052508101906126f09190613bdf565b60015b612782576126ff61517e565b8061270a5750612747565b806040517f08c379a000000000000000000000000000000000000000000000000000000000815260040161273e91906149fd565b60405180910390fd5b6040517f08c379a000000000000000000000000000000000000000000000000000000000815260040161277990614a3f565b60405180910390fd5b63bc197c8160e01b7bffffffffffffffffffffffffffffffffffffffffffffffffffffffff1916817bffffffffffffffffffffffffffffffffffffffffffffffffffffffff191614612809576040517f08c379a000000000000000000000000000000000000000000000000000000000815260040161280090614a5f565b60405180910390fd5b505b505050505050565b600061287c7f9351747b1e9d1d5ecc2259decffb60239f521e243e85645e0762ed1d775876778360000135846020013585604001358660600135604051602001612861959493929190614965565b60405160208183030381529060405280519060200120612b53565b9050919050565b60008060006128928585612b6d565b9150915061289f81612bf0565b819250505092915050565b60606000600167ffffffffffffffff8111156128ef577f4e487b7100000000000000000000000000000000000000000000000000000000600052604160045260246000fd5b60405190808252806020026020018201604052801561291d5781602001602082028036833780820191505090505b509050828160008151811061295b577f4e487b7100000000000000000000000000000000000000000000000000000000600052603260045260246000fd5b60200260200101818152505080915050919050565b61298f8473ffffffffffffffffffffffffffffffffffffffff16612b40565b15612b38578373ffffffffffffffffffffffffffffffffffffffff1663f23a6e6187878686866040518663ffffffff1660e01b81526004016129d59594939291906147c3565b602060405180830381600087803b1580156129ef57600080fd5b505af1925050508015612a2057506040513d601f19601f82011682018060405250810190612a1d9190613bdf565b60015b612aaf57612a2c61517e565b80612a375750612a74565b806040517f08c379a0000000000000000000000000000000000000000000000000000000008152600401612a6b91906149fd565b60405180910390fd5b6040517f08c379a0000000000000000000000000000000000000000000000000000000008152600401612aa690614a3f565b60405180910390fd5b63f23a6e6160e01b7bffffffffffffffffffffffffffffffffffffffffffffffffffffffff1916817bffffffffffffffffffffffffffffffffffffffffffffffffffffffff191614612b36576040517f08c379a0000000000000000000000000000000000000000000000000000000008152600401612b2d90614a5f565b60405180910390fd5b505b505050505050565b600080823b905060008111915050919050565b6000612b66612b60612f41565b83613004565b9050919050565b600080604183511415612baf5760008060006020860151925060408601519150606086015160001a9050612ba387828585613037565b94509450505050612be9565b604083511415612be0576000806020850151915060408501519050612bd5868383613144565b935093505050612be9565b60006002915091505b9250929050565b60006004811115612c2a577f4e487b7100000000000000000000000000000000000000000000000000000000600052602160045260246000fd5b816004811115612c63577f4e487b7100000000000000000000000000000000000000000000000000000000600052602160045260246000fd5b1415612c6e57612f3e565b60016004811115612ca8577f4e487b7100000000000000000000000000000000000000000000000000000000600052602160045260246000fd5b816004811115612ce1577f4e487b7100000000000000000000000000000000000000000000000000000000600052602160045260246000fd5b1415612d22576040517f08c379a0000000000000000000000000000000000000000000000000000000008152600401612d1990614a1f565b60405180910390fd5b60026004811115612d5c577f4e487b7100000000000000000000000000000000000000000000000000000000600052602160045260246000fd5b816004811115612d95577f4e487b7100000000000000000000000000000000000000000000000000000000600052602160045260246000fd5b1415612dd6576040517f08c379a0000000000000000000000000000000000000000000000000000000008152600401612dcd90614a7f565b60405180910390fd5b60036004811115612e10577f4e487b7100000000000000000000000000000000000000000000000000000000600052602160045260246000fd5b816004811115612e49577f4e487b7100000000000000000000000000000000000000000000000000000000600052602160045260246000fd5b1415612e8a576040517f08c379a0000000000000000000000000000000000000000000000000000000008152600401612e8190614b5f565b60405180910390fd5b600480811115612ec3577f4e487b7100000000000000000000000000000000000000000000000000000000600052602160045260246000fd5b816004811115612efc577f4e487b7100000000000000000000000000000000000000000000000000000000600052602160045260246000fd5b1415612f3d576040517f08c379a0000000000000000000000000000000000000000000000000000000008152600401612f3490614bdf565b60405180910390fd5b5b50565b60007f0000000000000000000000000000000000000000000000000000000000000000461415612f93577f00000000000000000000000000000000000000000000000000000000000000009050613001565b612ffe7f00000000000000000000000000000000000000000000000000000000000000007f00000000000000000000000000000000000000000000000000000000000000007f0000000000000000000000000000000000000000000000000000000000000000613192565b90505b90565b600082826040516020016130199291906146e0565b60405160208183030381529060405280519060200120905092915050565b6000807f7fffffffffffffffffffffffffffffff5d576e7357a4501ddfe92f46681b20a08360001c111561307257600060039150915061313b565b601b8560ff161415801561308a5750601c8560ff1614155b1561309c57600060049150915061313b565b6000600187878787604051600081526020016040526040516130c194939291906149b8565b6020604051602081039080840390855afa1580156130e3573d6000803e3d6000fd5b505050602060405103519050600073ffffffffffffffffffffffffffffffffffffffff168173ffffffffffffffffffffffffffffffffffffffff1614156131325760006001925092505061313b565b80600092509250505b94509492505050565b6000806000807f7fffffffffffffffffffffffffffffffffffffffffffffffffffffffffffffff85169150601b8560ff1c01905061318487828885613037565b935093505050935093915050565b600083838346306040516020016131ad959493929190614912565b6040516020818303038152906040528051906020012090509392505050565b8280546131d89061504e565b90600052602060002090601f0160209004810192826131fa5760008555613241565b82601f1061321357805160ff1916838001178555613241565b82800160010185558215613241579182015b82811115613240578251825591602001919060010190613225565b5b50905061324e9190613252565b5090565b5b8082111561326b576000816000905550600101613253565b5090565b600061328261327d84614dcb565b614d9a565b905080838252602082019050828560208602820111156132a157600080fd5b60005b858110156132d157816132b78882613420565b8452602084019350602083019250506001810190506132a4565b5050509392505050565b60006132ee6132e984614df7565b614d9a565b9050808382526020820190508260005b8581101561332e57813585016133148882613531565b8452602084019350602083019250506001810190506132fe565b5050509392505050565b600061334b61334684614e23565b614d9a565b9050808382526020820190508285602086028201111561336a57600080fd5b60005b8581101561339a57816133808882613576565b84526020840193506020830192505060018101905061336d565b5050509392505050565b60006133b76133b284614e4f565b614d9a565b9050828152602081018484840111156133cf57600080fd5b6133da84828561500c565b509392505050565b60006133f56133f084614e7f565b614d9a565b90508281526020810184848401111561340d57600080fd5b61341884828561500c565b509392505050565b60008135905061342f81615234565b92915050565b600082601f83011261344657600080fd5b813561345684826020860161326f565b91505092915050565b600082601f83011261347057600080fd5b81356134808482602086016132db565b91505092915050565b600082601f83011261349a57600080fd5b81356134aa848260208601613338565b91505092915050565b6000813590506134c28161524b565b92915050565b6000815190506134d78161524b565b92915050565b6000813590506134ec81615262565b92915050565b60008151905061350181615262565b92915050565b600082601f83011261351857600080fd5b81356135288482602086016133a4565b91505092915050565b600082601f83011261354257600080fd5b81356135528482602086016133e2565b91505092915050565b600060a0828403121561356d57600080fd5b81905092915050565b60008135905061358581615279565b92915050565b60008151905061359a81615279565b92915050565b6000602082840312156135b257600080fd5b60006135c084828501613420565b91505092915050565b600080604083850312156135dc57600080fd5b60006135ea85828601613420565b92505060206135fb85828601613420565b9150509250929050565b600080600080600060a0868803121561361d57600080fd5b600061362b88828901613420565b955050602061363c88828901613420565b945050604086013567ffffffffffffffff81111561365957600080fd5b61366588828901613489565b935050606086013567ffffffffffffffff81111561368257600080fd5b61368e88828901613489565b925050608086013567ffffffffffffffff8111156136ab57600080fd5b6136b788828901613507565b9150509295509295909350565b6000806000606084860312156136d957600080fd5b60006136e786828701613420565b93505060206136f886828701613420565b925050604084013567ffffffffffffffff81111561371557600080fd5b6137218682870161355b565b9150509250925092565b600080600080600060a0868803121561374357600080fd5b600061375188828901613420565b955050602061376288828901613420565b945050604061377388828901613576565b935050606061378488828901613576565b925050608086013567ffffffffffffffff8111156137a157600080fd5b6137ad88828901613507565b9150509295509295909350565b6000806000606084860312156137cf57600080fd5b60006137dd86828701613420565b935050602084013567ffffffffffffffff8111156137fa57600080fd5b61380686828701613489565b925050604084013567ffffffffffffffff81111561382357600080fd5b61382f86828701613489565b9150509250925092565b6000806040838503121561384c57600080fd5b600061385a85828601613420565b925050602061386b858286016134b3565b9150509250929050565b6000806040838503121561388857600080fd5b600061389685828601613420565b925050602083013567ffffffffffffffff8111156138b357600080fd5b6138bf8582860161355b565b9150509250929050565b600080604083850312156138dc57600080fd5b60006138ea85828601613420565b92505060206138fb85828601613576565b9150509250929050565b600080600080600060a0868803121561391d57600080fd5b600061392b88828901613420565b955050602061393c88828901613576565b945050604086013567ffffffffffffffff81111561395957600080fd5b61396588828901613489565b935050606086013567ffffffffffffffff81111561398257600080fd5b61398e8882890161345f565b925050608086013567ffffffffffffffff8111156139ab57600080fd5b6139b788828901613507565b9150509295509295909350565b600080600080608085870312156139da57600080fd5b60006139e887828801613420565b94505060206139f987828801613576565b935050604085013567ffffffffffffffff811115613a1657600080fd5b613a2287828801613531565b925050606085013567ffffffffffffffff811115613a3f57600080fd5b613a4b87828801613507565b91505092959194509250565b600080600060608486031215613a6c57600080fd5b6000613a7a86828701613420565b9350506020613a8b86828701613576565b9250506040613a9c86828701613576565b9150509250925092565b60008060008060808587031215613abc57600080fd5b6000613aca87828801613420565b9450506020613adb87828801613576565b9350506040613aec87828801613576565b925050606085013567ffffffffffffffff811115613b0957600080fd5b613b1587828801613507565b91505092959194509250565b60008060408385031215613b3457600080fd5b600083013567ffffffffffffffff811115613b4e57600080fd5b613b5a85828601613435565b925050602083013567ffffffffffffffff811115613b7757600080fd5b613b8385828601613489565b9150509250929050565b600060208284031215613b9f57600080fd5b6000613bad848285016134c8565b91505092915050565b600060208284031215613bc857600080fd5b6000613bd6848285016134dd565b91505092915050565b600060208284031215613bf157600080fd5b6000613bff848285016134f2565b91505092915050565b600060208284031215613c1a57600080fd5b600082013567ffffffffffffffff811115613c3457600080fd5b613c408482850161355b565b91505092915050565b600060208284031215613c5b57600080fd5b6000613c6984828501613576565b91505092915050565b600060208284031215613c8457600080fd5b6000613c928482850161358b565b91505092915050565b6000613ca783836146b3565b60208301905092915050565b613cbc81614f81565b82525050565b6000613ccd82614ebf565b613cd78185614eed565b9350613ce283614eaf565b8060005b83811015613d13578151613cfa8882613c9b565b9750613d0583614ee0565b925050600181019050613ce6565b5085935050505092915050565b613d2981614f93565b82525050565b613d3881614f9f565b82525050565b613d4f613d4a82614f9f565b6150c9565b82525050565b6000613d6082614eca565b613d6a8185614efe565b9350613d7a81856020860161501b565b613d8381615160565b840191505092915050565b6000613d9982614ed5565b613da38185614f0f565b9350613db381856020860161501b565b613dbc81615160565b840191505092915050565b6000613dd4601883614f0f565b91507f45434453413a20696e76616c6964207369676e617475726500000000000000006000830152602082019050919050565b6000613e14603483614f0f565b91507f455243313135353a207472616e7366657220746f206e6f6e204552433131353560008301527f526563656976657220696d706c656d656e7465720000000000000000000000006020830152604082019050919050565b6000613e7a602883614f0f565b91507f455243313135353a204552433131353552656365697665722072656a6563746560008301527f6420746f6b656e730000000000000000000000000000000000000000000000006020830152604082019050919050565b6000613ee0601f83614f0f565b91507f45434453413a20696e76616c6964207369676e6174757265206c656e677468006000830152602082019050919050565b6000613f20602b83614f0f565b91507f455243313135353a2062616c616e636520717565727920666f7220746865207a60008301527f65726f20616464726573730000000000000000000000000000000000000000006020830152604082019050919050565b6000613f86601b83614f0f565b91507f566f75636865722068617320616c7265616479206578706972656400000000006000830152602082019050919050565b6000613fc6602683614f0f565b91507f4f776e61626c653a206e6577206f776e657220697320746865207a65726f206160008301527f64647265737300000000000000000000000000000000000000000000000000006020830152604082019050919050565b600061402c602c83614f0f565b91507f57425652533a20417072726f76616c206e6f742073657420666f72205765626160008301527f76657273654552433131353500000000000000000000000000000000000000006020830152604082019050919050565b6000614092602483614f0f565b91507f455243313135353a206275726e20616d6f756e7420657863656564732062616c60008301527f616e6365000000000000000000000000000000000000000000000000000000006020830152604082019050919050565b60006140f8600283614f20565b91507f19010000000000000000000000000000000000000000000000000000000000006000830152600282019050919050565b6000614138602983614f0f565b91507f455243313135353a2063616c6c6572206973206e6f74206f776e6572206e6f7260008301527f20617070726f76656400000000000000000000000000000000000000000000006020830152604082019050919050565b600061419e602283614f0f565b91507f45434453413a20696e76616c6964207369676e6174757265202773272076616c60008301527f75650000000000000000000000000000000000000000000000000000000000006020830152604082019050919050565b6000614204601383614f0f565b91507f496e76616c6964206e6f6e63652076616c7565000000000000000000000000006000830152602082019050919050565b6000614244602583614f0f565b91507f455243313135353a207472616e7366657220746f20746865207a65726f20616460008301527f64726573730000000000000000000000000000000000000000000000000000006020830152604082019050919050565b60006142aa603283614f0f565b91507f455243313135353a207472616e736665722063616c6c6572206973206e6f742060008301527f6f776e6572206e6f7220617070726f76656400000000000000000000000000006020830152604082019050919050565b6000614310602283614f0f565b91507f45434453413a20696e76616c6964207369676e6174757265202776272076616c60008301527f75650000000000000000000000000000000000000000000000000000000000006020830152604082019050919050565b6000614376602e83614f0f565b91507f57425652533a20417574686f72697a6174696f6e206661696c65643a20496e7660008301527f616c6964207369676e61747572650000000000000000000000000000000000006020830152604082019050919050565b60006143dc602383614f0f565b91507f455243313135353a206275726e2066726f6d20746865207a65726f206164647260008301527f65737300000000000000000000000000000000000000000000000000000000006020830152604082019050919050565b6000614442602a83614f0f565b91507f455243313135353a20696e73756666696369656e742062616c616e636520666f60008301527f72207472616e73666572000000000000000000000000000000000000000000006020830152604082019050919050565b60006144a8602083614f0f565b91507f4f776e61626c653a2063616c6c6572206973206e6f7420746865206f776e65726000830152602082019050919050565b60006144e8600483614efe565b91507f30583031000000000000000000000000000000000000000000000000000000006000830152602082019050919050565b6000614528602983614f0f565b91507f455243313135353a2073657474696e6720617070726f76616c2073746174757360008301527f20666f722073656c6600000000000000000000000000000000000000000000006020830152604082019050919050565b600061458e602983614f0f565b91507f455243313135353a206163636f756e747320616e6420696473206c656e67746860008301527f206d69736d6174636800000000000000000000000000000000000000000000006020830152604082019050919050565b60006145f4602883614f0f565b91507f455243313135353a2069647320616e6420616d6f756e7473206c656e6774682060008301527f6d69736d617463680000000000000000000000000000000000000000000000006020830152604082019050919050565b600061465a602183614f0f565b91507f455243313135353a206d696e7420746f20746865207a65726f2061646472657360008301527f73000000000000000000000000000000000000000000000000000000000000006020830152604082019050919050565b6146bc81614ff5565b82525050565b6146cb81614ff5565b82525050565b6146da81614fff565b82525050565b60006146eb826140eb565b91506146f78285613d3e565b6020820191506147078284613d3e565b6020820191508190509392505050565b600060208201905061472c6000830184613cb3565b92915050565b60006040820190506147476000830185613cb3565b6147546020830184613cb3565b9392505050565b600060a0820190506147706000830188613cb3565b61477d6020830187613cb3565b818103604083015261478f8186613cc2565b905081810360608301526147a38185613cc2565b905081810360808301526147b78184613d55565b90509695505050505050565b600060a0820190506147d86000830188613cb3565b6147e56020830187613cb3565b6147f260408301866146c2565b6147ff60608301856146c2565b81810360808301526148118184613d55565b90509695505050505050565b600060a0820190506148326000830187613cb3565b61483f6020830186613cb3565b61484c60408301856146c2565b61485960608301846146c2565b818103608083015261486a816144db565b905095945050505050565b600060408201905061488a6000830185613cb3565b61489760208301846146c2565b9392505050565b600060208201905081810360008301526148b88184613cc2565b905092915050565b600060408201905081810360008301526148da8185613cc2565b905081810360208301526148ee8184613cc2565b90509392505050565b600060208201905061490c6000830184613d20565b92915050565b600060a0820190506149276000830188613d2f565b6149346020830187613d2f565b6149416040830186613d2f565b61494e60608301856146c2565b61495b6080830184613cb3565b9695505050505050565b600060a08201905061497a6000830188613d2f565b61498760208301876146c2565b61499460408301866146c2565b6149a160608301856146c2565b6149ae60808301846146c2565b9695505050505050565b60006080820190506149cd6000830187613d2f565b6149da60208301866146d1565b6149e76040830185613d2f565b6149f46060830184613d2f565b95945050505050565b60006020820190508181036000830152614a178184613d8e565b905092915050565b60006020820190508181036000830152614a3881613dc7565b9050919050565b60006020820190508181036000830152614a5881613e07565b9050919050565b60006020820190508181036000830152614a7881613e6d565b9050919050565b60006020820190508181036000830152614a9881613ed3565b9050919050565b60006020820190508181036000830152614ab881613f13565b9050919050565b60006020820190508181036000830152614ad881613f79565b9050919050565b60006020820190508181036000830152614af881613fb9565b9050919050565b60006020820190508181036000830152614b188161401f565b9050919050565b60006020820190508181036000830152614b3881614085565b9050919050565b60006020820190508181036000830152614b588161412b565b9050919050565b60006020820190508181036000830152614b7881614191565b9050919050565b60006020820190508181036000830152614b98816141f7565b9050919050565b60006020820190508181036000830152614bb881614237565b9050919050565b60006020820190508181036000830152614bd88161429d565b9050919050565b60006020820190508181036000830152614bf881614303565b9050919050565b60006020820190508181036000830152614c1881614369565b9050919050565b60006020820190508181036000830152614c38816143cf565b9050919050565b60006020820190508181036000830152614c5881614435565b9050919050565b60006020820190508181036000830152614c788161449b565b9050919050565b60006020820190508181036000830152614c988161451b565b9050919050565b60006020820190508181036000830152614cb881614581565b9050919050565b60006020820190508181036000830152614cd8816145e7565b9050919050565b60006020820190508181036000830152614cf88161464d565b9050919050565b6000602082019050614d1460008301846146c2565b92915050565b6000604082019050614d2f60008301856146c2565b614d3c60208301846146c2565b9392505050565b60008083356001602003843603038112614d5c57600080fd5b80840192508235915067ffffffffffffffff821115614d7a57600080fd5b602083019250600182023603831315614d9257600080fd5b509250929050565b6000604051905081810181811067ffffffffffffffff82111715614dc157614dc0615131565b5b8060405250919050565b600067ffffffffffffffff821115614de657614de5615131565b5b602082029050602081019050919050565b600067ffffffffffffffff821115614e1257614e11615131565b5b602082029050602081019050919050565b600067ffffffffffffffff821115614e3e57614e3d615131565b5b602082029050602081019050919050565b600067ffffffffffffffff821115614e6a57614e69615131565b5b601f19601f8301169050602081019050919050565b600067ffffffffffffffff821115614e9a57614e99615131565b5b601f19601f8301169050602081019050919050565b6000819050602082019050919050565b600081519050919050565b600081519050919050565b600081519050919050565b6000602082019050919050565b600082825260208201905092915050565b600082825260208201905092915050565b600082825260208201905092915050565b600081905092915050565b6000614f3682614ff5565b9150614f4183614ff5565b9250827fffffffffffffffffffffffffffffffffffffffffffffffffffffffffffffffff03821115614f7657614f756150d3565b5b828201905092915050565b6000614f8c82614fd5565b9050919050565b60008115159050919050565b6000819050919050565b60007fffffffff0000000000000000000000000000000000000000000000000000000082169050919050565b600073ffffffffffffffffffffffffffffffffffffffff82169050919050565b6000819050919050565b600060ff82169050919050565b82818337600083830152505050565b60005b8381101561503957808201518184015260208101905061501e565b83811115615048576000848401525b50505050565b6000600282049050600182168061506657607f821691505b6020821081141561507a57615079615102565b5b50919050565b600061508b82614ff5565b91507fffffffffffffffffffffffffffffffffffffffffffffffffffffffffffffffff8214156150be576150bd6150d3565b5b600182019050919050565b6000819050919050565b7f4e487b7100000000000000000000000000000000000000000000000000000000600052601160045260246000fd5b7f4e487b7100000000000000000000000000000000000000000000000000000000600052602260045260246000fd5b7f4e487b7100000000000000000000000000000000000000000000000000000000600052604160045260246000fd5b6000601f19601f8301169050919050565b60008160e01c9050919050565b600060443d101561518e57615231565b60046000803e61519f600051615171565b6308c379a081146151b05750615231565b60405160043d036004823e80513d602482011167ffffffffffffffff821117156151dc57505050615231565b808201805167ffffffffffffffff8111156151fb575050505050615231565b8060208301013d850181111561521657505050505050615231565b61521f82615160565b60208401016040528296505050505050505b90565b61523d81614f81565b811461524857600080fd5b50565b61525481614f93565b811461525f57600080fd5b50565b61526b81614fa9565b811461527657600080fd5b50565b61528281614ff5565b811461528d57600080fd5b5056fea2646970667358221220daba14a6d13d82b387280d2c2eefa3c8b2bc30d878549da1267c95a103bfe7e664736f6c63430008000033",
  "linkReferences": {},
  "deployedLinkReferences": {}
}