{
  "_format": "hh-sol-artifact-1",
  "contractName": "WBVRSVoucher",
  "sourceName": "contracts/utils/WBVRSVoucher.sol",
  "abi": [
    {
      "inputs": [],
      "stateMutability": "nonpayable",
      "type": "constructor"
    },
    {
      "inputs": [
        {
          "internalType": "uint256",
          "name": "",
          "type": "uint256"
        }
      ],
      "name": "burnedNonces",
      "outputs": [
        {
          "internalType": "bool",
          "name": "",
          "type": "bool"
        }
      ],
      "stateMutability": "view",
      "type": "function"
    },
    {
      "inputs": [
        {
          "components": [
            {
              "internalType": "uint256",
              "name": "tokenId",
              "type": "uint256"
            },
            {
              "internalType": "uint256",
              "name": "nonce",
              "type": "uint256"
            },
            {
              "internalType": "uint256",
              "name": "expiry",
              "type": "uint256"
            },
            {
              "internalType": "bytes",
              "name": "signature",
              "type": "bytes"
            }
          ],
          "internalType": "struct WBVRSVoucher.NFTVoucher",
          "name": "voucher",
          "type": "tuple"
        }
      ],
      "name": "verifyVoucher",
      "outputs": [
        {
          "internalType": "address",
          "name": "",
          "type": "address"
        }
      ],
      "stateMutability": "nonpayable",
      "type": "function"
    }
  ],
  "bytecode": "0x6101206040523480156200001257600080fd5b506040518060400160405280601181526020017f5765626176657273652d766f75636865720000000000000000000000000000008152506040518060400160405280600181526020017f310000000000000000000000000000000000000000000000000000000000000081525060008280519060200120905060008280519060200120905060007f8b73c3c69bb8fe3d512ecc4cf759cc79239f7b179b0ffacaa9a75d522b39400f90508260c081815250508160e081815250504660a08181525050620000e78184846200010260201b60201c565b60808181525050806101008181525050505050505062000216565b600083838346306040516020016200011f95949392919062000171565b6040516020818303038152906040528051906020012090509392505050565b6200014981620001ce565b82525050565b6200015a81620001e2565b82525050565b6200016b816200020c565b82525050565b600060a0820190506200018860008301886200014f565b6200019760208301876200014f565b620001a660408301866200014f565b620001b5606083018562000160565b620001c460808301846200013e565b9695505050505050565b6000620001db82620001ec565b9050919050565b6000819050919050565b600073ffffffffffffffffffffffffffffffffffffffff82169050919050565b6000819050919050565b60805160a05160c05160e05161010051610f6a6200025b60003960006106fb0152600061073d0152600061071c015260006106a8015260006106d00152610f6a6000f3fe608060405234801561001057600080fd5b50600436106100365760003560e01c80637e2499cc1461003b5780638c390f521461006b575b600080fd5b610055600480360381019061005091906109a0565b61009b565b6040516100629190610c89565b60405180910390f35b6100856004803603810190610080919061095f565b6100bb565b6040516100929190610c6e565b60405180910390f35b60006020528060005260406000206000915054906101000a900460ff1681565b60008160400135421115610104576040517f08c379a00000000000000000000000000000000000000000000000000000000081526004016100fb90610dc1565b60405180910390fd5b600015156000808460200135815260200190815260200160002060009054906101000a900460ff1615151461016e576040517f08c379a000000000000000000000000000000000000000000000000000000000815260040161016590610e01565b60405180910390fd5b60016000808460200135815260200190815260200160002060006101000a81548160ff02191690831515021790555060006101a8836101b3565b905080915050919050565b6000806101bf83610225565b905061021d818480606001906101d59190610e41565b8080601f016020809104026020016040519081016040528093929190818152602001838380828437600081840152601f19601f8201169050808301925050505050505061028f565b915050919050565b60006102887fa71ded31e2bec61339bad6247783eb9b59b4ad6bc34cbc5a94eadbb2825c472283600001358460200135856040013560405160200161026d9493929190610cf7565b604051602081830303815290604052805190602001206102b6565b9050919050565b600080600061029e85856102d0565b915091506102ab81610353565b819250505092915050565b60006102c96102c36106a4565b83610767565b9050919050565b6000806041835114156103125760008060006020860151925060408601519150606086015160001a90506103068782858561079a565b9450945050505061034c565b6040835114156103435760008060208501519150604085015190506103388683836108a7565b93509350505061034c565b60006002915091505b9250929050565b6000600481111561038d577f4e487b7100000000000000000000000000000000000000000000000000000000600052602160045260246000fd5b8160048111156103c6577f4e487b7100000000000000000000000000000000000000000000000000000000600052602160045260246000fd5b14156103d1576106a1565b6001600481111561040b577f4e487b7100000000000000000000000000000000000000000000000000000000600052602160045260246000fd5b816004811115610444577f4e487b7100000000000000000000000000000000000000000000000000000000600052602160045260246000fd5b1415610485576040517f08c379a000000000000000000000000000000000000000000000000000000000815260040161047c90610d81565b60405180910390fd5b600260048111156104bf577f4e487b7100000000000000000000000000000000000000000000000000000000600052602160045260246000fd5b8160048111156104f8577f4e487b7100000000000000000000000000000000000000000000000000000000600052602160045260246000fd5b1415610539576040517f08c379a000000000000000000000000000000000000000000000000000000000815260040161053090610da1565b60405180910390fd5b60036004811115610573577f4e487b7100000000000000000000000000000000000000000000000000000000600052602160045260246000fd5b8160048111156105ac577f4e487b7100000000000000000000000000000000000000000000000000000000600052602160045260246000fd5b14156105ed576040517f08c379a00000000000000000000000000000000000000000000000000000000081526004016105e490610de1565b60405180910390fd5b600480811115610626577f4e487b7100000000000000000000000000000000000000000000000000000000600052602160045260246000fd5b81600481111561065f577f4e487b7100000000000000000000000000000000000000000000000000000000600052602160045260246000fd5b14156106a0576040517f08c379a000000000000000000000000000000000000000000000000000000000815260040161069790610e21565b60405180910390fd5b5b50565b60007f00000000000000000000000000000000000000000000000000000000000000004614156106f6577f00000000000000000000000000000000000000000000000000000000000000009050610764565b6107617f00000000000000000000000000000000000000000000000000000000000000007f00000000000000000000000000000000000000000000000000000000000000007f00000000000000000000000000000000000000000000000000000000000000006108f5565b90505b90565b6000828260405160200161077c929190610c37565b60405160208183030381529060405280519060200120905092915050565b6000807f7fffffffffffffffffffffffffffffff5d576e7357a4501ddfe92f46681b20a08360001c11156107d557600060039150915061089e565b601b8560ff16141580156107ed5750601c8560ff1614155b156107ff57600060049150915061089e565b6000600187878787604051600081526020016040526040516108249493929190610d3c565b6020604051602081039080840390855afa158015610846573d6000803e3d6000fd5b505050602060405103519050600073ffffffffffffffffffffffffffffffffffffffff168173ffffffffffffffffffffffffffffffffffffffff1614156108955760006001925092505061089e565b80600092509250505b94509492505050565b6000806000807f7fffffffffffffffffffffffffffffffffffffffffffffffffffffffffffffff85169150601b8560ff1c0190506108e78782888561079a565b935093505050935093915050565b60008383834630604051602001610910959493929190610ca4565b6040516020818303038152906040528051906020012090509392505050565b60006080828403121561094157600080fd5b81905092915050565b60008135905061095981610f1d565b92915050565b60006020828403121561097157600080fd5b600082013567ffffffffffffffff81111561098b57600080fd5b6109978482850161092f565b91505092915050565b6000602082840312156109b257600080fd5b60006109c08482850161094a565b91505092915050565b6109d281610eb4565b82525050565b6109e181610ec6565b82525050565b6109f081610ed2565b82525050565b610a07610a0282610ed2565b610f13565b82525050565b6000610a1a601883610e98565b91507f45434453413a20696e76616c6964207369676e617475726500000000000000006000830152602082019050919050565b6000610a5a601f83610e98565b91507f45434453413a20696e76616c6964207369676e6174757265206c656e677468006000830152602082019050919050565b6000610a9a601b83610e98565b91507f566f75636865722068617320616c7265616479206578706972656400000000006000830152602082019050919050565b6000610ada600283610ea9565b91507f19010000000000000000000000000000000000000000000000000000000000006000830152600282019050919050565b6000610b1a602283610e98565b91507f45434453413a20696e76616c6964207369676e6174757265202773272076616c60008301527f75650000000000000000000000000000000000000000000000000000000000006020830152604082019050919050565b6000610b80601383610e98565b91507f496e76616c6964206e6f6e63652076616c7565000000000000000000000000006000830152602082019050919050565b6000610bc0602283610e98565b91507f45434453413a20696e76616c6964207369676e6174757265202776272076616c60008301527f75650000000000000000000000000000000000000000000000000000000000006020830152604082019050919050565b610c2281610efc565b82525050565b610c3181610f06565b82525050565b6000610c4282610acd565b9150610c4e82856109f6565b602082019150610c5e82846109f6565b6020820191508190509392505050565b6000602082019050610c8360008301846109c9565b92915050565b6000602082019050610c9e60008301846109d8565b92915050565b600060a082019050610cb960008301886109e7565b610cc660208301876109e7565b610cd360408301866109e7565b610ce06060830185610c19565b610ced60808301846109c9565b9695505050505050565b6000608082019050610d0c60008301876109e7565b610d196020830186610c19565b610d266040830185610c19565b610d336060830184610c19565b95945050505050565b6000608082019050610d5160008301876109e7565b610d5e6020830186610c28565b610d6b60408301856109e7565b610d7860608301846109e7565b95945050505050565b60006020820190508181036000830152610d9a81610a0d565b9050919050565b60006020820190508181036000830152610dba81610a4d565b9050919050565b60006020820190508181036000830152610dda81610a8d565b9050919050565b60006020820190508181036000830152610dfa81610b0d565b9050919050565b60006020820190508181036000830152610e1a81610b73565b9050919050565b60006020820190508181036000830152610e3a81610bb3565b9050919050565b60008083356001602003843603038112610e5a57600080fd5b80840192508235915067ffffffffffffffff821115610e7857600080fd5b602083019250600182023603831315610e9057600080fd5b509250929050565b600082825260208201905092915050565b600081905092915050565b6000610ebf82610edc565b9050919050565b60008115159050919050565b6000819050919050565b600073ffffffffffffffffffffffffffffffffffffffff82169050919050565b6000819050919050565b600060ff82169050919050565b6000819050919050565b610f2681610efc565b8114610f3157600080fd5b5056fea2646970667358221220bd621d7bbabdd087398b4ec1f0c57d869f5ce16c0a2310bbdd64f11b0895a38464736f6c63430008000033",
  "linkReferences": {},
  "deployedLinkReferences": {}
}