{
  "_format": "hh-sol-artifact-1",
  "contractName": "WBVRSVoucher",
  "sourceName": "contracts/utils/WBVRSVoucher.sol",
  "abi": [
    {
      "inputs": [],
      "stateMutability": "nonpayable",
      "type": "constructor"
    },
    {
      "inputs": [
        {
          "internalType": "uint256",
          "name": "",
          "type": "uint256"
        }
      ],
      "name": "burnedNonces",
      "outputs": [
        {
          "internalType": "bool",
          "name": "",
          "type": "bool"
        }
      ],
      "stateMutability": "view",
      "type": "function"
    },
    {
      "inputs": [
        {
          "components": [
            {
              "internalType": "uint256",
              "name": "tokenId",
              "type": "uint256"
            },
            {
              "internalType": "uint256",
              "name": "balance",
              "type": "uint256"
            },
            {
              "internalType": "uint256",
              "name": "nonce",
              "type": "uint256"
            },
            {
              "internalType": "uint256",
              "name": "expiry",
              "type": "uint256"
            },
            {
              "internalType": "bytes",
              "name": "signature",
              "type": "bytes"
            }
          ],
          "internalType": "struct WBVRSVoucher.NFTVoucher",
          "name": "voucher",
          "type": "tuple"
        }
      ],
      "name": "verifyVoucher",
      "outputs": [
        {
          "internalType": "address",
          "name": "",
          "type": "address"
        }
      ],
      "stateMutability": "nonpayable",
      "type": "function"
    }
  ],
  "bytecode": "0x6101206040523480156200001257600080fd5b506040518060400160405280601181526020017f5765626176657273652d766f75636865720000000000000000000000000000008152506040518060400160405280600181526020017f310000000000000000000000000000000000000000000000000000000000000081525060008280519060200120905060008280519060200120905060007f8b73c3c69bb8fe3d512ecc4cf759cc79239f7b179b0ffacaa9a75d522b39400f90508260c081815250508160e081815250504660a08181525050620000e78184846200010260201b60201c565b60808181525050806101008181525050505050505062000216565b600083838346306040516020016200011f95949392919062000171565b6040516020818303038152906040528051906020012090509392505050565b6200014981620001ce565b82525050565b6200015a81620001e2565b82525050565b6200016b816200020c565b82525050565b600060a0820190506200018860008301886200014f565b6200019760208301876200014f565b620001a660408301866200014f565b620001b5606083018562000160565b620001c460808301846200013e565b9695505050505050565b6000620001db82620001ec565b9050919050565b6000819050919050565b600073ffffffffffffffffffffffffffffffffffffffff82169050919050565b6000819050919050565b60805160a05160c05160e05161010051610f7e6200025b60003960006107010152600061074301526000610722015260006106ae015260006106d60152610f7e6000f3fe608060405234801561001057600080fd5b50600436106100365760003560e01c80637e2499cc1461003b578063ad637e671461006b575b600080fd5b610055600480360381019061005091906109a6565b61009b565b6040516100629190610c8f565b60405180910390f35b61008560048036038101906100809190610965565b6100bb565b6040516100929190610c74565b60405180910390f35b60006020528060005260406000206000915054906101000a900460ff1681565b60008160600135421115610104576040517f08c379a00000000000000000000000000000000000000000000000000000000081526004016100fb90610dd5565b60405180910390fd5b600015156000808460400135815260200190815260200160002060009054906101000a900460ff1615151461016e576040517f08c379a000000000000000000000000000000000000000000000000000000000815260040161016590610e15565b60405180910390fd5b60016000808460400135815260200190815260200160002060006101000a81548160ff02191690831515021790555060006101a8836101b3565b905080915050919050565b6000806101bf83610225565b905061021d818480608001906101d59190610e55565b8080601f016020809104026020016040519081016040528093929190818152602001838380828437600081840152601f19601f82011690508083019250505050505050610295565b915050919050565b600061028e7f9351747b1e9d1d5ecc2259decffb60239f521e243e85645e0762ed1d775876778360000135846020013585604001358660600135604051602001610273959493929190610cfd565b604051602081830303815290604052805190602001206102bc565b9050919050565b60008060006102a485856102d6565b915091506102b181610359565b819250505092915050565b60006102cf6102c96106aa565b8361076d565b9050919050565b6000806041835114156103185760008060006020860151925060408601519150606086015160001a905061030c878285856107a0565b94509450505050610352565b60408351141561034957600080602085015191506040850151905061033e8683836108ad565b935093505050610352565b60006002915091505b9250929050565b60006004811115610393577f4e487b7100000000000000000000000000000000000000000000000000000000600052602160045260246000fd5b8160048111156103cc577f4e487b7100000000000000000000000000000000000000000000000000000000600052602160045260246000fd5b14156103d7576106a7565b60016004811115610411577f4e487b7100000000000000000000000000000000000000000000000000000000600052602160045260246000fd5b81600481111561044a577f4e487b7100000000000000000000000000000000000000000000000000000000600052602160045260246000fd5b141561048b576040517f08c379a000000000000000000000000000000000000000000000000000000000815260040161048290610d95565b60405180910390fd5b600260048111156104c5577f4e487b7100000000000000000000000000000000000000000000000000000000600052602160045260246000fd5b8160048111156104fe577f4e487b7100000000000000000000000000000000000000000000000000000000600052602160045260246000fd5b141561053f576040517f08c379a000000000000000000000000000000000000000000000000000000000815260040161053690610db5565b60405180910390fd5b60036004811115610579577f4e487b7100000000000000000000000000000000000000000000000000000000600052602160045260246000fd5b8160048111156105b2577f4e487b7100000000000000000000000000000000000000000000000000000000600052602160045260246000fd5b14156105f3576040517f08c379a00000000000000000000000000000000000000000000000000000000081526004016105ea90610df5565b60405180910390fd5b60048081111561062c577f4e487b7100000000000000000000000000000000000000000000000000000000600052602160045260246000fd5b816004811115610665577f4e487b7100000000000000000000000000000000000000000000000000000000600052602160045260246000fd5b14156106a6576040517f08c379a000000000000000000000000000000000000000000000000000000000815260040161069d90610e35565b60405180910390fd5b5b50565b60007f00000000000000000000000000000000000000000000000000000000000000004614156106fc577f0000000000000000000000000000000000000000000000000000000000000000905061076a565b6107677f00000000000000000000000000000000000000000000000000000000000000007f00000000000000000000000000000000000000000000000000000000000000007f00000000000000000000000000000000000000000000000000000000000000006108fb565b90505b90565b60008282604051602001610782929190610c3d565b60405160208183030381529060405280519060200120905092915050565b6000807f7fffffffffffffffffffffffffffffff5d576e7357a4501ddfe92f46681b20a08360001c11156107db5760006003915091506108a4565b601b8560ff16141580156107f35750601c8560ff1614155b156108055760006004915091506108a4565b60006001878787876040516000815260200160405260405161082a9493929190610d50565b6020604051602081039080840390855afa15801561084c573d6000803e3d6000fd5b505050602060405103519050600073ffffffffffffffffffffffffffffffffffffffff168173ffffffffffffffffffffffffffffffffffffffff16141561089b576000600192509250506108a4565b80600092509250505b94509492505050565b6000806000807f7fffffffffffffffffffffffffffffffffffffffffffffffffffffffffffffff85169150601b8560ff1c0190506108ed878288856107a0565b935093505050935093915050565b60008383834630604051602001610916959493929190610caa565b6040516020818303038152906040528051906020012090509392505050565b600060a0828403121561094757600080fd5b81905092915050565b60008135905061095f81610f31565b92915050565b60006020828403121561097757600080fd5b600082013567ffffffffffffffff81111561099157600080fd5b61099d84828501610935565b91505092915050565b6000602082840312156109b857600080fd5b60006109c684828501610950565b91505092915050565b6109d881610ec8565b82525050565b6109e781610eda565b82525050565b6109f681610ee6565b82525050565b610a0d610a0882610ee6565b610f27565b82525050565b6000610a20601883610eac565b91507f45434453413a20696e76616c6964207369676e617475726500000000000000006000830152602082019050919050565b6000610a60601f83610eac565b91507f45434453413a20696e76616c6964207369676e6174757265206c656e677468006000830152602082019050919050565b6000610aa0601b83610eac565b91507f566f75636865722068617320616c7265616479206578706972656400000000006000830152602082019050919050565b6000610ae0600283610ebd565b91507f19010000000000000000000000000000000000000000000000000000000000006000830152600282019050919050565b6000610b20602283610eac565b91507f45434453413a20696e76616c6964207369676e6174757265202773272076616c60008301527f75650000000000000000000000000000000000000000000000000000000000006020830152604082019050919050565b6000610b86601383610eac565b91507f496e76616c6964206e6f6e63652076616c7565000000000000000000000000006000830152602082019050919050565b6000610bc6602283610eac565b91507f45434453413a20696e76616c6964207369676e6174757265202776272076616c60008301527f75650000000000000000000000000000000000000000000000000000000000006020830152604082019050919050565b610c2881610f10565b82525050565b610c3781610f1a565b82525050565b6000610c4882610ad3565b9150610c5482856109fc565b602082019150610c6482846109fc565b6020820191508190509392505050565b6000602082019050610c8960008301846109cf565b92915050565b6000602082019050610ca460008301846109de565b92915050565b600060a082019050610cbf60008301886109ed565b610ccc60208301876109ed565b610cd960408301866109ed565b610ce66060830185610c1f565b610cf360808301846109cf565b9695505050505050565b600060a082019050610d1260008301886109ed565b610d1f6020830187610c1f565b610d2c6040830186610c1f565b610d396060830185610c1f565b610d466080830184610c1f565b9695505050505050565b6000608082019050610d6560008301876109ed565b610d726020830186610c2e565b610d7f60408301856109ed565b610d8c60608301846109ed565b95945050505050565b60006020820190508181036000830152610dae81610a13565b9050919050565b60006020820190508181036000830152610dce81610a53565b9050919050565b60006020820190508181036000830152610dee81610a93565b9050919050565b60006020820190508181036000830152610e0e81610b13565b9050919050565b60006020820190508181036000830152610e2e81610b79565b9050919050565b60006020820190508181036000830152610e4e81610bb9565b9050919050565b60008083356001602003843603038112610e6e57600080fd5b80840192508235915067ffffffffffffffff821115610e8c57600080fd5b602083019250600182023603831315610ea457600080fd5b509250929050565b600082825260208201905092915050565b600081905092915050565b6000610ed382610ef0565b9050919050565b60008115159050919050565b6000819050919050565b600073ffffffffffffffffffffffffffffffffffffffff82169050919050565b6000819050919050565b600060ff82169050919050565b6000819050919050565b610f3a81610f10565b8114610f4557600080fd5b5056fea2646970667358221220633ba65b45177518f0e66ef08e6f9ec9c5f9953a3d7ed455c488562eb2c9488364736f6c63430008000033",
  "linkReferences": {},
  "deployedLinkReferences": {}
}