{
  "_format": "hh-sol-artifact-1",
  "contractName": "ERC20Mock",
  "sourceName": "contracts/mock/ERC20Mock.sol",
  "abi": [
    {
      "inputs": [
        {
          "internalType": "string",
          "name": "name",
          "type": "string"
        },
        {
          "internalType": "string",
          "name": "symbol",
          "type": "string"
        },
        {
          "internalType": "address",
          "name": "initialAccount",
          "type": "address"
        },
        {
          "internalType": "uint256",
          "name": "initialBalance",
          "type": "uint256"
        }
      ],
      "stateMutability": "payable",
      "type": "constructor"
    },
    {
      "anonymous": false,
      "inputs": [
        {
          "indexed": true,
          "internalType": "address",
          "name": "owner",
          "type": "address"
        },
        {
          "indexed": true,
          "internalType": "address",
          "name": "spender",
          "type": "address"
        },
        {
          "indexed": false,
          "internalType": "uint256",
          "name": "value",
          "type": "uint256"
        }
      ],
      "name": "Approval",
      "type": "event"
    },
    {
      "anonymous": false,
      "inputs": [
        {
          "indexed": true,
          "internalType": "address",
          "name": "from",
          "type": "address"
        },
        {
          "indexed": true,
          "internalType": "address",
          "name": "to",
          "type": "address"
        },
        {
          "indexed": false,
          "internalType": "uint256",
          "name": "value",
          "type": "uint256"
        }
      ],
      "name": "Transfer",
      "type": "event"
    },
    {
      "inputs": [
        {
          "internalType": "address",
          "name": "owner",
          "type": "address"
        },
        {
          "internalType": "address",
          "name": "spender",
          "type": "address"
        }
      ],
      "name": "allowance",
      "outputs": [
        {
          "internalType": "uint256",
          "name": "",
          "type": "uint256"
        }
      ],
      "stateMutability": "view",
      "type": "function"
    },
    {
      "inputs": [
        {
          "internalType": "address",
          "name": "spender",
          "type": "address"
        },
        {
          "internalType": "uint256",
          "name": "amount",
          "type": "uint256"
        }
      ],
      "name": "approve",
      "outputs": [
        {
          "internalType": "bool",
          "name": "",
          "type": "bool"
        }
      ],
      "stateMutability": "nonpayable",
      "type": "function"
    },
    {
      "inputs": [
        {
          "internalType": "address",
          "name": "owner",
          "type": "address"
        },
        {
          "internalType": "address",
          "name": "spender",
          "type": "address"
        },
        {
          "internalType": "uint256",
          "name": "value",
          "type": "uint256"
        }
      ],
      "name": "approveInternal",
      "outputs": [],
      "stateMutability": "nonpayable",
      "type": "function"
    },
    {
      "inputs": [
        {
          "internalType": "address",
          "name": "account",
          "type": "address"
        }
      ],
      "name": "balanceOf",
      "outputs": [
        {
          "internalType": "uint256",
          "name": "",
          "type": "uint256"
        }
      ],
      "stateMutability": "view",
      "type": "function"
    },
    {
      "inputs": [
        {
          "internalType": "address",
          "name": "account",
          "type": "address"
        },
        {
          "internalType": "uint256",
          "name": "amount",
          "type": "uint256"
        }
      ],
      "name": "burn",
      "outputs": [],
      "stateMutability": "nonpayable",
      "type": "function"
    },
    {
      "inputs": [],
      "name": "decimals",
      "outputs": [
        {
          "internalType": "uint8",
          "name": "",
          "type": "uint8"
        }
      ],
      "stateMutability": "view",
      "type": "function"
    },
    {
      "inputs": [
        {
          "internalType": "address",
          "name": "spender",
          "type": "address"
        },
        {
          "internalType": "uint256",
          "name": "subtractedValue",
          "type": "uint256"
        }
      ],
      "name": "decreaseAllowance",
      "outputs": [
        {
          "internalType": "bool",
          "name": "",
          "type": "bool"
        }
      ],
      "stateMutability": "nonpayable",
      "type": "function"
    },
    {
      "inputs": [
        {
          "internalType": "address",
          "name": "spender",
          "type": "address"
        },
        {
          "internalType": "uint256",
          "name": "addedValue",
          "type": "uint256"
        }
      ],
      "name": "increaseAllowance",
      "outputs": [
        {
          "internalType": "bool",
          "name": "",
          "type": "bool"
        }
      ],
      "stateMutability": "nonpayable",
      "type": "function"
    },
    {
      "inputs": [
        {
          "internalType": "address",
          "name": "account",
          "type": "address"
        },
        {
          "internalType": "uint256",
          "name": "amount",
          "type": "uint256"
        }
      ],
      "name": "mint",
      "outputs": [],
      "stateMutability": "nonpayable",
      "type": "function"
    },
    {
      "inputs": [],
      "name": "name",
      "outputs": [
        {
          "internalType": "string",
          "name": "",
          "type": "string"
        }
      ],
      "stateMutability": "view",
      "type": "function"
    },
    {
      "inputs": [],
      "name": "symbol",
      "outputs": [
        {
          "internalType": "string",
          "name": "",
          "type": "string"
        }
      ],
      "stateMutability": "view",
      "type": "function"
    },
    {
      "inputs": [],
      "name": "totalSupply",
      "outputs": [
        {
          "internalType": "uint256",
          "name": "",
          "type": "uint256"
        }
      ],
      "stateMutability": "view",
      "type": "function"
    },
    {
      "inputs": [
        {
          "internalType": "address",
          "name": "recipient",
          "type": "address"
        },
        {
          "internalType": "uint256",
          "name": "amount",
          "type": "uint256"
        }
      ],
      "name": "transfer",
      "outputs": [
        {
          "internalType": "bool",
          "name": "",
          "type": "bool"
        }
      ],
      "stateMutability": "nonpayable",
      "type": "function"
    },
    {
      "inputs": [
        {
          "internalType": "address",
          "name": "sender",
          "type": "address"
        },
        {
          "internalType": "address",
          "name": "recipient",
          "type": "address"
        },
        {
          "internalType": "uint256",
          "name": "amount",
          "type": "uint256"
        }
      ],
      "name": "transferFrom",
      "outputs": [
        {
          "internalType": "bool",
          "name": "",
          "type": "bool"
        }
      ],
      "stateMutability": "nonpayable",
      "type": "function"
    },
    {
      "inputs": [
        {
          "internalType": "address",
          "name": "from",
          "type": "address"
        },
        {
          "internalType": "address",
          "name": "to",
          "type": "address"
        },
        {
          "internalType": "uint256",
          "name": "value",
          "type": "uint256"
        }
      ],
      "name": "transferInternal",
      "outputs": [],
      "stateMutability": "nonpayable",
      "type": "function"
    }
  ],
  "bytecode": "0x608060405260405162001fde38038062001fde83398181016040528101906200002991906200034e565b8383816003908051906020019062000043929190620001fe565b5080600490805190602001906200005c929190620001fe565b5050506200007182826200007b60201b60201c565b50505050620006be565b600073ffffffffffffffffffffffffffffffffffffffff168273ffffffffffffffffffffffffffffffffffffffff161415620000ee576040517f08c379a0000000000000000000000000000000000000000000000000000000008152600401620000e5906200043f565b60405180910390fd5b6200010260008383620001f460201b60201c565b8060026000828254620001169190620004f6565b92505081905550806000808473ffffffffffffffffffffffffffffffffffffffff1673ffffffffffffffffffffffffffffffffffffffff16815260200190815260200160002060008282546200016d9190620004f6565b925050819055508173ffffffffffffffffffffffffffffffffffffffff16600073ffffffffffffffffffffffffffffffffffffffff167fddf252ad1be2c89b69c2b068fc378daa952ba7f163c4a11628f55a4df523b3ef83604051620001d4919062000461565b60405180910390a3620001f060008383620001f960201b60201c565b5050565b505050565b505050565b8280546200020c90620005c7565b90600052602060002090601f0160209004810192826200023057600085556200027c565b82601f106200024b57805160ff19168380011785556200027c565b828001600101855582156200027c579182015b828111156200027b5782518255916020019190600101906200025e565b5b5090506200028b91906200028f565b5090565b5b80821115620002aa57600081600090555060010162000290565b5090565b6000620002c5620002bf84620004b2565b6200047e565b905082815260208101848484011115620002de57600080fd5b620002eb84828562000591565b509392505050565b60008151905062000304816200068a565b92915050565b600082601f8301126200031c57600080fd5b81516200032e848260208601620002ae565b91505092915050565b6000815190506200034881620006a4565b92915050565b600080600080608085870312156200036557600080fd5b600085015167ffffffffffffffff8111156200038057600080fd5b6200038e878288016200030a565b945050602085015167ffffffffffffffff811115620003ac57600080fd5b620003ba878288016200030a565b9350506040620003cd87828801620002f3565b9250506060620003e08782880162000337565b91505092959194509250565b6000620003fb601f83620004e5565b91507f45524332303a206d696e7420746f20746865207a65726f2061646472657373006000830152602082019050919050565b620004398162000587565b82525050565b600060208201905081810360008301526200045a81620003ec565b9050919050565b60006020820190506200047860008301846200042e565b92915050565b6000604051905081810181811067ffffffffffffffff82111715620004a857620004a76200065b565b5b8060405250919050565b600067ffffffffffffffff821115620004d057620004cf6200065b565b5b601f19601f8301169050602081019050919050565b600082825260208201905092915050565b6000620005038262000587565b9150620005108362000587565b9250827fffffffffffffffffffffffffffffffffffffffffffffffffffffffffffffffff03821115620005485762000547620005fd565b5b828201905092915050565b6000620005608262000567565b9050919050565b600073ffffffffffffffffffffffffffffffffffffffff82169050919050565b6000819050919050565b60005b83811015620005b157808201518184015260208101905062000594565b83811115620005c1576000848401525b50505050565b60006002820490506001821680620005e057607f821691505b60208210811415620005f757620005f66200062c565b5b50919050565b7f4e487b7100000000000000000000000000000000000000000000000000000000600052601160045260246000fd5b7f4e487b7100000000000000000000000000000000000000000000000000000000600052602260045260246000fd5b7f4e487b7100000000000000000000000000000000000000000000000000000000600052604160045260246000fd5b620006958162000553565b8114620006a157600080fd5b50565b620006af8162000587565b8114620006bb57600080fd5b50565b61191080620006ce6000396000f3fe608060405234801561001057600080fd5b50600436106100f55760003560e01c806340c10f19116100975780639dc29fac116100665780639dc29fac14610286578063a457c2d7146102a2578063a9059cbb146102d2578063dd62ed3e14610302576100f5565b806340c10f191461020057806356189cb41461021c57806370a082311461023857806395d89b4114610268576100f5565b8063222f5be0116100d3578063222f5be01461016657806323b872dd14610182578063313ce567146101b257806339509351146101d0576100f5565b806306fdde03146100fa578063095ea7b31461011857806318160ddd14610148575b600080fd5b610102610332565b60405161010f9190611545565b60405180910390f35b610132600480360381019061012d91906110b2565b6103c4565b60405161013f919061152a565b60405180910390f35b6101506103e2565b60405161015d91906116a7565b60405180910390f35b610180600480360381019061017b9190611063565b6103ec565b005b61019c60048036038101906101979190611063565b6103fc565b6040516101a9919061152a565b60405180910390f35b6101ba6104f4565b6040516101c791906116c2565b60405180910390f35b6101ea60048036038101906101e591906110b2565b6104fd565b6040516101f7919061152a565b60405180910390f35b61021a600480360381019061021591906110b2565b6105a9565b005b61023660048036038101906102319190611063565b6105b7565b005b610252600480360381019061024d9190610ffe565b6105c7565b60405161025f91906116a7565b60405180910390f35b61027061060f565b60405161027d9190611545565b60405180910390f35b6102a0600480360381019061029b91906110b2565b6106a1565b005b6102bc60048036038101906102b791906110b2565b6106af565b6040516102c9919061152a565b60405180910390f35b6102ec60048036038101906102e791906110b2565b61079a565b6040516102f9919061152a565b60405180910390f35b61031c60048036038101906103179190611027565b6107b8565b60405161032991906116a7565b60405180910390f35b6060600380546103419061180b565b80601f016020809104026020016040519081016040528092919081815260200182805461036d9061180b565b80156103ba5780601f1061038f576101008083540402835291602001916103ba565b820191906000526020600020905b81548152906001019060200180831161039d57829003601f168201915b5050505050905090565b60006103d86103d161083f565b8484610847565b6001905092915050565b6000600254905090565b6103f7838383610a12565b505050565b6000610409848484610a12565b6000600160008673ffffffffffffffffffffffffffffffffffffffff1673ffffffffffffffffffffffffffffffffffffffff168152602001908152602001600020600061045461083f565b73ffffffffffffffffffffffffffffffffffffffff1673ffffffffffffffffffffffffffffffffffffffff168152602001908152602001600020549050828110156104d4576040517f08c379a00000000000000000000000000000000000000000000000000000000081526004016104cb906115e7565b60405180910390fd5b6104e8856104e061083f565b858403610847565b60019150509392505050565b60006012905090565b600061059f61050a61083f565b84846001600061051861083f565b73ffffffffffffffffffffffffffffffffffffffff1673ffffffffffffffffffffffffffffffffffffffff16815260200190815260200160002060008873ffffffffffffffffffffffffffffffffffffffff1673ffffffffffffffffffffffffffffffffffffffff1681526020019081526020016000205461059a91906116f9565b610847565b6001905092915050565b6105b38282610c93565b5050565b6105c2838383610847565b505050565b60008060008373ffffffffffffffffffffffffffffffffffffffff1673ffffffffffffffffffffffffffffffffffffffff168152602001908152602001600020549050919050565b60606004805461061e9061180b565b80601f016020809104026020016040519081016040528092919081815260200182805461064a9061180b565b80156106975780601f1061066c57610100808354040283529160200191610697565b820191906000526020600020905b81548152906001019060200180831161067a57829003601f168201915b5050505050905090565b6106ab8282610df3565b5050565b600080600160006106be61083f565b73ffffffffffffffffffffffffffffffffffffffff1673ffffffffffffffffffffffffffffffffffffffff16815260200190815260200160002060008573ffffffffffffffffffffffffffffffffffffffff1673ffffffffffffffffffffffffffffffffffffffff1681526020019081526020016000205490508281101561077b576040517f08c379a000000000000000000000000000000000000000000000000000000000815260040161077290611667565b60405180910390fd5b61078f61078661083f565b85858403610847565b600191505092915050565b60006107ae6107a761083f565b8484610a12565b6001905092915050565b6000600160008473ffffffffffffffffffffffffffffffffffffffff1673ffffffffffffffffffffffffffffffffffffffff16815260200190815260200160002060008373ffffffffffffffffffffffffffffffffffffffff1673ffffffffffffffffffffffffffffffffffffffff16815260200190815260200160002054905092915050565b600033905090565b600073ffffffffffffffffffffffffffffffffffffffff168373ffffffffffffffffffffffffffffffffffffffff1614156108b7576040517f08c379a00000000000000000000000000000000000000000000000000000000081526004016108ae90611647565b60405180910390fd5b600073ffffffffffffffffffffffffffffffffffffffff168273ffffffffffffffffffffffffffffffffffffffff161415610927576040517f08c379a000000000000000000000000000000000000000000000000000000000815260040161091e906115a7565b60405180910390fd5b80600160008573ffffffffffffffffffffffffffffffffffffffff1673ffffffffffffffffffffffffffffffffffffffff16815260200190815260200160002060008473ffffffffffffffffffffffffffffffffffffffff1673ffffffffffffffffffffffffffffffffffffffff168152602001908152602001600020819055508173ffffffffffffffffffffffffffffffffffffffff168373ffffffffffffffffffffffffffffffffffffffff167f8c5be1e5ebec7d5bd14f71427d1e84f3dd0314c0f7b2291e5b200ac8c7c3b92583604051610a0591906116a7565b60405180910390a3505050565b600073ffffffffffffffffffffffffffffffffffffffff168373ffffffffffffffffffffffffffffffffffffffff161415610a82576040517f08c379a0000000000000000000000000000000000000000000000000000000008152600401610a7990611627565b60405180910390fd5b600073ffffffffffffffffffffffffffffffffffffffff168273ffffffffffffffffffffffffffffffffffffffff161415610af2576040517f08c379a0000000000000000000000000000000000000000000000000000000008152600401610ae990611567565b60405180910390fd5b610afd838383610fca565b60008060008573ffffffffffffffffffffffffffffffffffffffff1673ffffffffffffffffffffffffffffffffffffffff16815260200190815260200160002054905081811015610b83576040517f08c379a0000000000000000000000000000000000000000000000000000000008152600401610b7a906115c7565b60405180910390fd5b8181036000808673ffffffffffffffffffffffffffffffffffffffff1673ffffffffffffffffffffffffffffffffffffffff16815260200190815260200160002081905550816000808573ffffffffffffffffffffffffffffffffffffffff1673ffffffffffffffffffffffffffffffffffffffff1681526020019081526020016000206000828254610c1691906116f9565b925050819055508273ffffffffffffffffffffffffffffffffffffffff168473ffffffffffffffffffffffffffffffffffffffff167fddf252ad1be2c89b69c2b068fc378daa952ba7f163c4a11628f55a4df523b3ef84604051610c7a91906116a7565b60405180910390a3610c8d848484610fcf565b50505050565b600073ffffffffffffffffffffffffffffffffffffffff168273ffffffffffffffffffffffffffffffffffffffff161415610d03576040517f08c379a0000000000000000000000000000000000000000000000000000000008152600401610cfa90611687565b60405180910390fd5b610d0f60008383610fca565b8060026000828254610d2191906116f9565b92505081905550806000808473ffffffffffffffffffffffffffffffffffffffff1673ffffffffffffffffffffffffffffffffffffffff1681526020019081526020016000206000828254610d7691906116f9565b925050819055508173ffffffffffffffffffffffffffffffffffffffff16600073ffffffffffffffffffffffffffffffffffffffff167fddf252ad1be2c89b69c2b068fc378daa952ba7f163c4a11628f55a4df523b3ef83604051610ddb91906116a7565b60405180910390a3610def60008383610fcf565b5050565b600073ffffffffffffffffffffffffffffffffffffffff168273ffffffffffffffffffffffffffffffffffffffff161415610e63576040517f08c379a0000000000000000000000000000000000000000000000000000000008152600401610e5a90611607565b60405180910390fd5b610e6f82600083610fca565b60008060008473ffffffffffffffffffffffffffffffffffffffff1673ffffffffffffffffffffffffffffffffffffffff16815260200190815260200160002054905081811015610ef5576040517f08c379a0000000000000000000000000000000000000000000000000000000008152600401610eec90611587565b60405180910390fd5b8181036000808573ffffffffffffffffffffffffffffffffffffffff1673ffffffffffffffffffffffffffffffffffffffff168152602001908152602001600020819055508160026000828254610f4c919061174f565b92505081905550600073ffffffffffffffffffffffffffffffffffffffff168373ffffffffffffffffffffffffffffffffffffffff167fddf252ad1be2c89b69c2b068fc378daa952ba7f163c4a11628f55a4df523b3ef84604051610fb191906116a7565b60405180910390a3610fc583600084610fcf565b505050565b505050565b505050565b600081359050610fe3816118ac565b92915050565b600081359050610ff8816118c3565b92915050565b60006020828403121561101057600080fd5b600061101e84828501610fd4565b91505092915050565b6000806040838503121561103a57600080fd5b600061104885828601610fd4565b925050602061105985828601610fd4565b9150509250929050565b60008060006060848603121561107857600080fd5b600061108686828701610fd4565b935050602061109786828701610fd4565b92505060406110a886828701610fe9565b9150509250925092565b600080604083850312156110c557600080fd5b60006110d385828601610fd4565b92505060206110e485828601610fe9565b9150509250929050565b6110f781611795565b82525050565b6000611108826116dd565b61111281856116e8565b93506111228185602086016117d8565b61112b8161189b565b840191505092915050565b60006111436023836116e8565b91507f45524332303a207472616e7366657220746f20746865207a65726f206164647260008301527f65737300000000000000000000000000000000000000000000000000000000006020830152604082019050919050565b60006111a96022836116e8565b91507f45524332303a206275726e20616d6f756e7420657863656564732062616c616e60008301527f63650000000000000000000000000000000000000000000000000000000000006020830152604082019050919050565b600061120f6022836116e8565b91507f45524332303a20617070726f766520746f20746865207a65726f20616464726560008301527f73730000000000000000000000000000000000000000000000000000000000006020830152604082019050919050565b60006112756026836116e8565b91507f45524332303a207472616e7366657220616d6f756e742065786365656473206260008301527f616c616e636500000000000000000000000000000000000000000000000000006020830152604082019050919050565b60006112db6028836116e8565b91507f45524332303a207472616e7366657220616d6f756e742065786365656473206160008301527f6c6c6f77616e63650000000000000000000000000000000000000000000000006020830152604082019050919050565b60006113416021836116e8565b91507f45524332303a206275726e2066726f6d20746865207a65726f2061646472657360008301527f73000000000000000000000000000000000000000000000000000000000000006020830152604082019050919050565b60006113a76025836116e8565b91507f45524332303a207472616e736665722066726f6d20746865207a65726f20616460008301527f64726573730000000000000000000000000000000000000000000000000000006020830152604082019050919050565b600061140d6024836116e8565b91507f45524332303a20617070726f76652066726f6d20746865207a65726f2061646460008301527f72657373000000000000000000000000000000000000000000000000000000006020830152604082019050919050565b60006114736025836116e8565b91507f45524332303a2064656372656173656420616c6c6f77616e63652062656c6f7760008301527f207a65726f0000000000000000000000000000000000000000000000000000006020830152604082019050919050565b60006114d9601f836116e8565b91507f45524332303a206d696e7420746f20746865207a65726f2061646472657373006000830152602082019050919050565b611515816117c1565b82525050565b611524816117cb565b82525050565b600060208201905061153f60008301846110ee565b92915050565b6000602082019050818103600083015261155f81846110fd565b905092915050565b6000602082019050818103600083015261158081611136565b9050919050565b600060208201905081810360008301526115a08161119c565b9050919050565b600060208201905081810360008301526115c081611202565b9050919050565b600060208201905081810360008301526115e081611268565b9050919050565b60006020820190508181036000830152611600816112ce565b9050919050565b6000602082019050818103600083015261162081611334565b9050919050565b600060208201905081810360008301526116408161139a565b9050919050565b6000602082019050818103600083015261166081611400565b9050919050565b6000602082019050818103600083015261168081611466565b9050919050565b600060208201905081810360008301526116a0816114cc565b9050919050565b60006020820190506116bc600083018461150c565b92915050565b60006020820190506116d7600083018461151b565b92915050565b600081519050919050565b600082825260208201905092915050565b6000611704826117c1565b915061170f836117c1565b9250827fffffffffffffffffffffffffffffffffffffffffffffffffffffffffffffffff038211156117445761174361183d565b5b828201905092915050565b600061175a826117c1565b9150611765836117c1565b9250828210156117785761177761183d565b5b828203905092915050565b600061178e826117a1565b9050919050565b60008115159050919050565b600073ffffffffffffffffffffffffffffffffffffffff82169050919050565b6000819050919050565b600060ff82169050919050565b60005b838110156117f65780820151818401526020810190506117db565b83811115611805576000848401525b50505050565b6000600282049050600182168061182357607f821691505b602082108114156118375761183661186c565b5b50919050565b7f4e487b7100000000000000000000000000000000000000000000000000000000600052601160045260246000fd5b7f4e487b7100000000000000000000000000000000000000000000000000000000600052602260045260246000fd5b6000601f19601f8301169050919050565b6118b581611783565b81146118c057600080fd5b50565b6118cc816117c1565b81146118d757600080fd5b5056fea26469706673582212209813de47fe61799a92becadb18aabb378fd8da58a230abc88e39ab1b05f92b4664736f6c63430008000033",
  "linkReferences": {},
  "deployedLinkReferences": {}
}