{
  "_format": "hh-sol-artifact-1",
  "contractName": "WebaverseNFT",
  "sourceName": "contracts/main/Webaverse.sol",
  "abi": [
    {
      "inputs": [],
      "stateMutability": "nonpayable",
      "type": "constructor"
    },
    {
      "anonymous": false,
      "inputs": [
        {
          "indexed": true,
          "internalType": "address",
          "name": "owner",
          "type": "address"
        },
        {
          "indexed": true,
          "internalType": "address",
          "name": "approved",
          "type": "address"
        },
        {
          "indexed": true,
          "internalType": "uint256",
          "name": "tokenId",
          "type": "uint256"
        }
      ],
      "name": "Approval",
      "type": "event"
    },
    {
      "anonymous": false,
      "inputs": [
        {
          "indexed": true,
          "internalType": "address",
          "name": "owner",
          "type": "address"
        },
        {
          "indexed": true,
          "internalType": "address",
          "name": "operator",
          "type": "address"
        },
        {
          "indexed": false,
          "internalType": "bool",
          "name": "approved",
          "type": "bool"
        }
      ],
      "name": "ApprovalForAll",
      "type": "event"
    },
    {
      "anonymous": false,
      "inputs": [
        {
          "indexed": true,
          "internalType": "address",
          "name": "from",
          "type": "address"
        },
        {
          "indexed": true,
          "internalType": "address",
          "name": "to",
          "type": "address"
        },
        {
          "indexed": true,
          "internalType": "uint256",
          "name": "tokenId",
          "type": "uint256"
        }
      ],
      "name": "Transfer",
      "type": "event"
    },
    {
      "inputs": [
        {
          "internalType": "address",
          "name": "to",
          "type": "address"
        },
        {
          "internalType": "uint256",
          "name": "tokenId",
          "type": "uint256"
        }
      ],
      "name": "approve",
      "outputs": [],
      "stateMutability": "nonpayable",
      "type": "function"
    },
    {
      "inputs": [
        {
          "internalType": "address",
          "name": "owner",
          "type": "address"
        }
      ],
      "name": "balanceOf",
      "outputs": [
        {
          "internalType": "uint256",
          "name": "",
          "type": "uint256"
        }
      ],
      "stateMutability": "view",
      "type": "function"
    },
    {
      "inputs": [
        {
          "internalType": "uint256",
          "name": "",
          "type": "uint256"
        }
      ],
      "name": "burnedNonces",
      "outputs": [
        {
          "internalType": "bool",
          "name": "",
          "type": "bool"
        }
      ],
      "stateMutability": "view",
      "type": "function"
    },
    {
      "inputs": [
        {
          "internalType": "address",
          "name": "claimer",
          "type": "address"
        },
        {
          "components": [
            {
              "internalType": "uint256",
              "name": "tokenId",
              "type": "uint256"
            },
            {
              "internalType": "uint256",
              "name": "nonce",
              "type": "uint256"
            },
            {
              "internalType": "uint256",
              "name": "expiry",
              "type": "uint256"
            },
            {
              "internalType": "bytes",
              "name": "signature",
              "type": "bytes"
            }
          ],
          "internalType": "struct WBVRSVoucher.NFTVoucher",
          "name": "voucher",
          "type": "tuple"
        }
      ],
      "name": "claim",
      "outputs": [
        {
          "internalType": "uint256",
          "name": "",
          "type": "uint256"
        }
      ],
      "stateMutability": "nonpayable",
      "type": "function"
    },
    {
      "inputs": [
        {
          "internalType": "address",
          "name": "claimer",
          "type": "address"
        },
        {
          "internalType": "address",
          "name": "contractAddress",
          "type": "address"
        },
        {
          "components": [
            {
              "internalType": "uint256",
              "name": "tokenId",
              "type": "uint256"
            },
            {
              "internalType": "uint256",
              "name": "nonce",
              "type": "uint256"
            },
            {
              "internalType": "uint256",
              "name": "expiry",
              "type": "uint256"
            },
            {
              "internalType": "bytes",
              "name": "signature",
              "type": "bytes"
            }
          ],
          "internalType": "struct WBVRSVoucher.NFTVoucher",
          "name": "voucher",
          "type": "tuple"
        }
      ],
      "name": "externalClaim",
      "outputs": [
        {
          "internalType": "uint256",
          "name": "",
          "type": "uint256"
        }
      ],
      "stateMutability": "nonpayable",
      "type": "function"
    },
    {
      "inputs": [
        {
          "internalType": "uint256",
          "name": "tokenId",
          "type": "uint256"
        }
      ],
      "name": "getApproved",
      "outputs": [
        {
          "internalType": "address",
          "name": "",
          "type": "address"
        }
      ],
      "stateMutability": "view",
      "type": "function"
    },
    {
      "inputs": [],
      "name": "getChainID",
      "outputs": [
        {
          "internalType": "uint256",
          "name": "",
          "type": "uint256"
        }
      ],
      "stateMutability": "view",
      "type": "function"
    },
    {
      "inputs": [
        {
          "internalType": "address",
          "name": "owner",
          "type": "address"
        },
        {
          "internalType": "address",
          "name": "operator",
          "type": "address"
        }
      ],
      "name": "isApprovedForAll",
      "outputs": [
        {
          "internalType": "bool",
          "name": "",
          "type": "bool"
        }
      ],
      "stateMutability": "view",
      "type": "function"
    },
    {
      "inputs": [
        {
          "internalType": "address",
          "name": "account",
          "type": "address"
        },
        {
          "internalType": "uint256",
          "name": "tokenId",
          "type": "uint256"
        },
        {
          "internalType": "string",
          "name": "uri",
          "type": "string"
        }
      ],
      "name": "mint",
      "outputs": [],
      "stateMutability": "nonpayable",
      "type": "function"
    },
    {
      "inputs": [],
      "name": "name",
      "outputs": [
        {
          "internalType": "string",
          "name": "",
          "type": "string"
        }
      ],
      "stateMutability": "view",
      "type": "function"
    },
    {
      "inputs": [
        {
          "internalType": "uint256",
          "name": "tokenId",
          "type": "uint256"
        }
      ],
      "name": "ownerOf",
      "outputs": [
        {
          "internalType": "address",
          "name": "",
          "type": "address"
        }
      ],
      "stateMutability": "view",
      "type": "function"
    },
    {
      "inputs": [
        {
          "internalType": "address",
          "name": "from",
          "type": "address"
        },
        {
          "internalType": "address",
          "name": "to",
          "type": "address"
        },
        {
          "internalType": "uint256",
          "name": "tokenId",
          "type": "uint256"
        }
      ],
      "name": "safeTransferFrom",
      "outputs": [],
      "stateMutability": "nonpayable",
      "type": "function"
    },
    {
      "inputs": [
        {
          "internalType": "address",
          "name": "from",
          "type": "address"
        },
        {
          "internalType": "address",
          "name": "to",
          "type": "address"
        },
        {
          "internalType": "uint256",
          "name": "tokenId",
          "type": "uint256"
        },
        {
          "internalType": "bytes",
          "name": "_data",
          "type": "bytes"
        }
      ],
      "name": "safeTransferFrom",
      "outputs": [],
      "stateMutability": "nonpayable",
      "type": "function"
    },
    {
      "inputs": [
        {
          "internalType": "address",
          "name": "operator",
          "type": "address"
        },
        {
          "internalType": "bool",
          "name": "approved",
          "type": "bool"
        }
      ],
      "name": "setApprovalForAll",
      "outputs": [],
      "stateMutability": "nonpayable",
      "type": "function"
    },
    {
      "inputs": [
        {
          "internalType": "bytes4",
          "name": "interfaceId",
          "type": "bytes4"
        }
      ],
      "name": "supportsInterface",
      "outputs": [
        {
          "internalType": "bool",
          "name": "",
          "type": "bool"
        }
      ],
      "stateMutability": "view",
      "type": "function"
    },
    {
      "inputs": [],
      "name": "symbol",
      "outputs": [
        {
          "internalType": "string",
          "name": "",
          "type": "string"
        }
      ],
      "stateMutability": "view",
      "type": "function"
    },
    {
      "inputs": [
        {
          "internalType": "uint256",
          "name": "tokenId",
          "type": "uint256"
        }
      ],
      "name": "tokenURI",
      "outputs": [
        {
          "internalType": "string",
          "name": "",
          "type": "string"
        }
      ],
      "stateMutability": "view",
      "type": "function"
    },
    {
      "inputs": [
        {
          "internalType": "address",
          "name": "from",
          "type": "address"
        },
        {
          "internalType": "address",
          "name": "to",
          "type": "address"
        },
        {
          "internalType": "uint256",
          "name": "tokenId",
          "type": "uint256"
        }
      ],
      "name": "transferFrom",
      "outputs": [],
      "stateMutability": "nonpayable",
      "type": "function"
    },
    {
      "inputs": [
        {
          "components": [
            {
              "internalType": "uint256",
              "name": "tokenId",
              "type": "uint256"
            },
            {
              "internalType": "uint256",
              "name": "nonce",
              "type": "uint256"
            },
            {
              "internalType": "uint256",
              "name": "expiry",
              "type": "uint256"
            },
            {
              "internalType": "bytes",
              "name": "signature",
              "type": "bytes"
            }
          ],
          "internalType": "struct WBVRSVoucher.NFTVoucher",
          "name": "voucher",
          "type": "tuple"
        }
      ],
      "name": "verifyVoucher",
      "outputs": [
        {
          "internalType": "address",
          "name": "",
          "type": "address"
        }
      ],
      "stateMutability": "nonpayable",
      "type": "function"
    }
  ],
  "bytecode": "0x6101206040523480156200001257600080fd5b506040518060400160405280600c81526020017f5765626176657273654e465400000000000000000000000000000000000000008152506040518060400160405280600581526020017f57425652530000000000000000000000000000000000000000000000000000008152506040518060400160405280601181526020017f5765626176657273652d766f75636865720000000000000000000000000000008152506040518060400160405280600181526020017f310000000000000000000000000000000000000000000000000000000000000081525060008280519060200120905060008280519060200120905060007f8b73c3c69bb8fe3d512ecc4cf759cc79239f7b179b0ffacaa9a75d522b39400f90508260c081815250508160e081815250504660a0818152505062000153818484620001a260201b60201c565b608081815250508061010081815250505050505050816001908051906020019062000180929190620001de565b50806002908051906020019062000199929190620001de565b505050620003cb565b60008383834630604051602001620001bf959493929190620002c1565b6040516020818303038152906040528051906020012090509392505050565b828054620001ec9062000366565b90600052602060002090601f0160209004810192826200021057600085556200025c565b82601f106200022b57805160ff19168380011785556200025c565b828001600101855582156200025c579182015b828111156200025b5782518255916020019190600101906200023e565b5b5090506200026b91906200026f565b5090565b5b808211156200028a57600081600090555060010162000270565b5090565b62000299816200031e565b82525050565b620002aa8162000332565b82525050565b620002bb816200035c565b82525050565b600060a082019050620002d860008301886200029f565b620002e760208301876200029f565b620002f660408301866200029f565b620003056060830185620002b0565b6200031460808301846200028e565b9695505050505050565b60006200032b826200033c565b9050919050565b6000819050919050565b600073ffffffffffffffffffffffffffffffffffffffff82169050919050565b6000819050919050565b600060028204905060018216806200037f57607f821691505b602082108114156200039657620003956200039c565b5b50919050565b7f4e487b7100000000000000000000000000000000000000000000000000000000600052602260045260246000fd5b60805160a05160c05160e05161010051613c2b6200041060003960006120eb0152600061212d0152600061210c01526000612098015260006120c00152613c2b6000f3fe608060405234801561001057600080fd5b50600436106101215760003560e01c80636eb26346116100ad578063a22cb46511610071578063a22cb46514610354578063b88d4fde14610370578063c87b56dd1461038c578063d3fc9864146103bc578063e985e9c5146103d857610121565b80636eb263461461027657806370a08231146102a65780637e2499cc146102d65780638c390f521461030657806395d89b411461033657610121565b806323b872dd116100f457806323b872dd146101c057806337d74fa6146101dc57806342842e0e1461020c578063564b81ef146102285780636352211e1461024657610121565b806301ffc9a71461012657806306fdde0314610156578063081812fc14610174578063095ea7b3146101a4575b600080fd5b610140600480360381019061013b919061281d565b610408565b60405161014d91906133c8565b60405180910390f35b61015e61041a565b60405161016b91906134c0565b60405180910390f35b61018e600480360381019061018991906128b0565b6104ac565b60405161019b919061332a565b60405180910390f35b6101be60048036038101906101b9919061277a565b610531565b005b6101da60048036038101906101d59190612620565b610649565b005b6101f660048036038101906101f191906125b9565b6106a9565b6040516102039190613822565b60405180910390f35b61022660048036038101906102219190612620565b610933565b005b610230610953565b60405161023d9190613822565b60405180910390f35b610260600480360381019061025b91906128b0565b610960565b60405161026d919061332a565b60405180910390f35b610290600480360381019061028b9190612726565b610a12565b60405161029d9190613822565b60405180910390f35b6102c060048036038101906102bb919061252b565b610ab7565b6040516102cd9190613822565b60405180910390f35b6102f060048036038101906102eb91906128b0565b610b6f565b6040516102fd91906133c8565b60405180910390f35b610320600480360381019061031b919061286f565b610b8f565b60405161032d919061332a565b60405180910390f35b61033e610c87565b60405161034b91906134c0565b60405180910390f35b61036e600480360381019061036991906126ea565b610d19565b005b61038a6004803603810190610385919061266f565b610e9a565b005b6103a660048036038101906103a191906128b0565b610efc565b6040516103b391906134c0565b60405180910390f35b6103d660048036038101906103d191906127b6565b61104b565b005b6103f260048036038101906103ed919061257d565b6110ad565b6040516103ff91906133c8565b60405180910390f35b600061041382611141565b9050919050565b60606001805461042990613abf565b80601f016020809104026020016040519081016040528092919081815260200182805461045590613abf565b80156104a25780601f10610477576101008083540402835291602001916104a2565b820191906000526020600020905b81548152906001019060200180831161048557829003601f168201915b5050505050905090565b60006104b782611223565b6104f6576040517f08c379a00000000000000000000000000000000000000000000000000000000081526004016104ed90613762565b60405180910390fd5b6005600083815260200190815260200160002060009054906101000a900473ffffffffffffffffffffffffffffffffffffffff169050919050565b600061053c82610960565b90508073ffffffffffffffffffffffffffffffffffffffff168373ffffffffffffffffffffffffffffffffffffffff1614156105ad576040517f08c379a00000000000000000000000000000000000000000000000000000000081526004016105a4906137c2565b60405180910390fd5b8073ffffffffffffffffffffffffffffffffffffffff166105cc61128f565b73ffffffffffffffffffffffffffffffffffffffff1614806105fb57506105fa816105f561128f565b6110ad565b5b61063a576040517f08c379a0000000000000000000000000000000000000000000000000000000008152600401610631906136a2565b60405180910390fd5b6106448383611297565b505050565b61065a61065461128f565b82611350565b610699576040517f08c379a000000000000000000000000000000000000000000000000000000000815260040161069090613802565b60405180910390fd5b6106a483838361142e565b505050565b60008083905060006106ba84610b8f565b90508173ffffffffffffffffffffffffffffffffffffffff16636352211e85600001356040518263ffffffff1660e01b81526004016106f99190613822565b60206040518083038186803b15801561071157600080fd5b505afa158015610725573d6000803e3d6000fd5b505050506040513d601f19601f820116820180604052508101906107499190612554565b73ffffffffffffffffffffffffffffffffffffffff168173ffffffffffffffffffffffffffffffffffffffff16146107b6576040517f08c379a00000000000000000000000000000000000000000000000000000000081526004016107ad906137e2565b60405180910390fd5b3073ffffffffffffffffffffffffffffffffffffffff168273ffffffffffffffffffffffffffffffffffffffff1663081812fc86600001356040518263ffffffff1660e01b815260040161080a9190613822565b60206040518083038186803b15801561082257600080fd5b505afa158015610836573d6000803e3d6000fd5b505050506040513d601f19601f8201168201806040525081019061085a9190612554565b73ffffffffffffffffffffffffffffffffffffffff16146108b0576040517f08c379a00000000000000000000000000000000000000000000000000000000081526004016108a7906137a2565b60405180910390fd5b8173ffffffffffffffffffffffffffffffffffffffff166323b872dd828887600001356040518463ffffffff1660e01b81526004016108f193929190613345565b600060405180830381600087803b15801561090b57600080fd5b505af115801561091f573d6000803e3d6000fd5b505050508360000135925050509392505050565b61094e83838360405180602001604052806000815250610e9a565b505050565b6000804690508091505090565b6000806003600084815260200190815260200160002060009054906101000a900473ffffffffffffffffffffffffffffffffffffffff169050600073ffffffffffffffffffffffffffffffffffffffff168173ffffffffffffffffffffffffffffffffffffffff161415610a09576040517f08c379a0000000000000000000000000000000000000000000000000000000008152600401610a0090613702565b60405180910390fd5b80915050919050565b600080610a1e83610b8f565b9050610a2d8360000135610960565b73ffffffffffffffffffffffffffffffffffffffff168173ffffffffffffffffffffffffffffffffffffffff1614610a9a576040517f08c379a0000000000000000000000000000000000000000000000000000000008152600401610a91906137e2565b60405180910390fd5b610aa98185856000013561142e565b826000013591505092915050565b60008073ffffffffffffffffffffffffffffffffffffffff168273ffffffffffffffffffffffffffffffffffffffff161415610b28576040517f08c379a0000000000000000000000000000000000000000000000000000000008152600401610b1f906136e2565b60405180910390fd5b600460008373ffffffffffffffffffffffffffffffffffffffff1673ffffffffffffffffffffffffffffffffffffffff168152602001908152602001600020549050919050565b60006020528060005260406000206000915054906101000a900460ff1681565b60008160400135421115610bd8576040517f08c379a0000000000000000000000000000000000000000000000000000000008152600401610bcf90613562565b60405180910390fd5b600015156000808460200135815260200190815260200160002060009054906101000a900460ff16151514610c42576040517f08c379a0000000000000000000000000000000000000000000000000000000008152600401610c3990613682565b60405180910390fd5b60016000808460200135815260200190815260200160002060006101000a81548160ff0219169083151502179055506000610c7c8361168a565b905080915050919050565b606060028054610c9690613abf565b80601f0160208091040260200160405190810160405280929190818152602001828054610cc290613abf565b8015610d0f5780601f10610ce457610100808354040283529160200191610d0f565b820191906000526020600020905b815481529060010190602001808311610cf257829003601f168201915b5050505050905090565b610d2161128f565b73ffffffffffffffffffffffffffffffffffffffff168273ffffffffffffffffffffffffffffffffffffffff161415610d8f576040517f08c379a0000000000000000000000000000000000000000000000000000000008152600401610d86906135e2565b60405180910390fd5b8060066000610d9c61128f565b73ffffffffffffffffffffffffffffffffffffffff1673ffffffffffffffffffffffffffffffffffffffff16815260200190815260200160002060008473ffffffffffffffffffffffffffffffffffffffff1673ffffffffffffffffffffffffffffffffffffffff16815260200190815260200160002060006101000a81548160ff0219169083151502179055508173ffffffffffffffffffffffffffffffffffffffff16610e4961128f565b73ffffffffffffffffffffffffffffffffffffffff167f17307eab39ab6107e8899845ad3d59bd9653f200f220920489ca2b5937696c3183604051610e8e91906133c8565b60405180910390a35050565b610eab610ea561128f565b83611350565b610eea576040517f08c379a0000000000000000000000000000000000000000000000000000000008152600401610ee190613802565b60405180910390fd5b610ef6848484846116fc565b50505050565b6060610f0782611223565b610f46576040517f08c379a0000000000000000000000000000000000000000000000000000000008152600401610f3d90613522565b60405180910390fd5b6000600860008481526020019081526020016000208054610f6690613abf565b905011610fa8576040517f08c379a0000000000000000000000000000000000000000000000000000000008152600401610f9f90613602565b60405180910390fd5b600860008381526020019081526020016000208054610fc690613abf565b80601f0160208091040260200160405190810160405280929190818152602001828054610ff290613abf565b801561103f5780601f106110145761010080835404028352916020019161103f565b820191906000526020600020905b81548152906001019060200180831161102257829003601f168201915b50505050509050919050565b61105482611223565b15611094576040517f08c379a000000000000000000000000000000000000000000000000000000000815260040161108b906136c2565b60405180910390fd5b61109e8383611758565b6110a88282611926565b505050565b6000600660008473ffffffffffffffffffffffffffffffffffffffff1673ffffffffffffffffffffffffffffffffffffffff16815260200190815260200160002060008373ffffffffffffffffffffffffffffffffffffffff1673ffffffffffffffffffffffffffffffffffffffff16815260200190815260200160002060009054906101000a900460ff16905092915050565b60007f80ac58cd000000000000000000000000000000000000000000000000000000007bffffffffffffffffffffffffffffffffffffffffffffffffffffffff1916827bffffffffffffffffffffffffffffffffffffffffffffffffffffffff1916148061120c57507f5b5e139f000000000000000000000000000000000000000000000000000000007bffffffffffffffffffffffffffffffffffffffffffffffffffffffff1916827bffffffffffffffffffffffffffffffffffffffffffffffffffffffff1916145b8061121c575061121b826119fc565b5b9050919050565b60008073ffffffffffffffffffffffffffffffffffffffff166003600084815260200190815260200160002060009054906101000a900473ffffffffffffffffffffffffffffffffffffffff1673ffffffffffffffffffffffffffffffffffffffff1614159050919050565b600033905090565b816005600083815260200190815260200160002060006101000a81548173ffffffffffffffffffffffffffffffffffffffff021916908373ffffffffffffffffffffffffffffffffffffffff160217905550808273ffffffffffffffffffffffffffffffffffffffff1661130a83610960565b73ffffffffffffffffffffffffffffffffffffffff167f8c5be1e5ebec7d5bd14f71427d1e84f3dd0314c0f7b2291e5b200ac8c7c3b92560405160405180910390a45050565b600061135b82611223565b61139a576040517f08c379a000000000000000000000000000000000000000000000000000000000815260040161139190613642565b60405180910390fd5b60006113a583610960565b90508073ffffffffffffffffffffffffffffffffffffffff168473ffffffffffffffffffffffffffffffffffffffff16148061141457508373ffffffffffffffffffffffffffffffffffffffff166113fc846104ac565b73ffffffffffffffffffffffffffffffffffffffff16145b80611425575061142481856110ad565b5b91505092915050565b8273ffffffffffffffffffffffffffffffffffffffff1661144e82610960565b73ffffffffffffffffffffffffffffffffffffffff16146114a4576040517f08c379a000000000000000000000000000000000000000000000000000000000815260040161149b90613782565b60405180910390fd5b600073ffffffffffffffffffffffffffffffffffffffff168273ffffffffffffffffffffffffffffffffffffffff161415611514576040517f08c379a000000000000000000000000000000000000000000000000000000000815260040161150b906135c2565b60405180910390fd5b61151f838383611a66565b61152a600082611297565b6001600460008573ffffffffffffffffffffffffffffffffffffffff1673ffffffffffffffffffffffffffffffffffffffff168152602001908152602001600020600082825461157a91906139be565b925050819055506001600460008473ffffffffffffffffffffffffffffffffffffffff1673ffffffffffffffffffffffffffffffffffffffff16815260200190815260200160002060008282546115d19190613968565b92505081905550816003600083815260200190815260200160002060006101000a81548173ffffffffffffffffffffffffffffffffffffffff021916908373ffffffffffffffffffffffffffffffffffffffff160217905550808273ffffffffffffffffffffffffffffffffffffffff168473ffffffffffffffffffffffffffffffffffffffff167fddf252ad1be2c89b69c2b068fc378daa952ba7f163c4a11628f55a4df523b3ef60405160405180910390a4505050565b60008061169683611a6b565b90506116f4818480606001906116ac919061383d565b8080601f016020809104026020016040519081016040528093929190818152602001838380828437600081840152601f19601f82011690508083019250505050505050611ad5565b915050919050565b61170784848461142e565b61171384848484611afc565b611752576040517f08c379a000000000000000000000000000000000000000000000000000000000815260040161174990613542565b60405180910390fd5b50505050565b600073ffffffffffffffffffffffffffffffffffffffff168273ffffffffffffffffffffffffffffffffffffffff1614156117c8576040517f08c379a00000000000000000000000000000000000000000000000000000000081526004016117bf90613742565b60405180910390fd5b6117d181611223565b15611811576040517f08c379a000000000000000000000000000000000000000000000000000000000815260040161180890613582565b60405180910390fd5b61181d60008383611a66565b6001600460008473ffffffffffffffffffffffffffffffffffffffff1673ffffffffffffffffffffffffffffffffffffffff168152602001908152602001600020600082825461186d9190613968565b92505081905550816003600083815260200190815260200160002060006101000a81548173ffffffffffffffffffffffffffffffffffffffff021916908373ffffffffffffffffffffffffffffffffffffffff160217905550808273ffffffffffffffffffffffffffffffffffffffff16600073ffffffffffffffffffffffffffffffffffffffff167fddf252ad1be2c89b69c2b068fc378daa952ba7f163c4a11628f55a4df523b3ef60405160405180910390a45050565b61192f82611223565b61196e576040517f08c379a0000000000000000000000000000000000000000000000000000000008152600401611965906135a2565b60405180910390fd5b600060086000848152602001908152602001600020805461198e90613abf565b9050146119d0576040517f08c379a00000000000000000000000000000000000000000000000000000000081526004016119c790613662565b60405180910390fd5b806008600084815260200190815260200160002090805190602001906119f792919061231f565b505050565b60007f01ffc9a7000000000000000000000000000000000000000000000000000000007bffffffffffffffffffffffffffffffffffffffffffffffffffffffff1916827bffffffffffffffffffffffffffffffffffffffffffffffffffffffff1916149050919050565b505050565b6000611ace7fa71ded31e2bec61339bad6247783eb9b59b4ad6bc34cbc5a94eadbb2825c4722836000013584602001358560400135604051602001611ab39493929190613436565b60405160208183030381529060405280519060200120611c93565b9050919050565b6000806000611ae48585611cad565b91509150611af181611d30565b819250505092915050565b6000611b1d8473ffffffffffffffffffffffffffffffffffffffff16612081565b15611c86578373ffffffffffffffffffffffffffffffffffffffff1663150b7a02611b4661128f565b8786866040518563ffffffff1660e01b8152600401611b68949392919061337c565b602060405180830381600087803b158015611b8257600080fd5b505af1925050508015611bb357506040513d601f19601f82011682018060405250810190611bb09190612846565b60015b611c36573d8060008114611be3576040519150601f19603f3d011682016040523d82523d6000602084013e611be8565b606091505b50600081511415611c2e576040517f08c379a0000000000000000000000000000000000000000000000000000000008152600401611c2590613542565b60405180910390fd5b805181602001fd5b63150b7a0260e01b7bffffffffffffffffffffffffffffffffffffffffffffffffffffffff1916817bffffffffffffffffffffffffffffffffffffffffffffffffffffffff191614915050611c8b565b600190505b949350505050565b6000611ca6611ca0612094565b83612157565b9050919050565b600080604183511415611cef5760008060006020860151925060408601519150606086015160001a9050611ce38782858561218a565b94509450505050611d29565b604083511415611d20576000806020850151915060408501519050611d15868383612297565b935093505050611d29565b60006002915091505b9250929050565b60006004811115611d6a577f4e487b7100000000000000000000000000000000000000000000000000000000600052602160045260246000fd5b816004811115611da3577f4e487b7100000000000000000000000000000000000000000000000000000000600052602160045260246000fd5b1415611dae5761207e565b60016004811115611de8577f4e487b7100000000000000000000000000000000000000000000000000000000600052602160045260246000fd5b816004811115611e21577f4e487b7100000000000000000000000000000000000000000000000000000000600052602160045260246000fd5b1415611e62576040517f08c379a0000000000000000000000000000000000000000000000000000000008152600401611e59906134e2565b60405180910390fd5b60026004811115611e9c577f4e487b7100000000000000000000000000000000000000000000000000000000600052602160045260246000fd5b816004811115611ed5577f4e487b7100000000000000000000000000000000000000000000000000000000600052602160045260246000fd5b1415611f16576040517f08c379a0000000000000000000000000000000000000000000000000000000008152600401611f0d90613502565b60405180910390fd5b60036004811115611f50577f4e487b7100000000000000000000000000000000000000000000000000000000600052602160045260246000fd5b816004811115611f89577f4e487b7100000000000000000000000000000000000000000000000000000000600052602160045260246000fd5b1415611fca576040517f08c379a0000000000000000000000000000000000000000000000000000000008152600401611fc190613622565b60405180910390fd5b600480811115612003577f4e487b7100000000000000000000000000000000000000000000000000000000600052602160045260246000fd5b81600481111561203c577f4e487b7100000000000000000000000000000000000000000000000000000000600052602160045260246000fd5b141561207d576040517f08c379a000000000000000000000000000000000000000000000000000000000815260040161207490613722565b60405180910390fd5b5b50565b600080823b905060008111915050919050565b60007f00000000000000000000000000000000000000000000000000000000000000004614156120e6577f00000000000000000000000000000000000000000000000000000000000000009050612154565b6121517f00000000000000000000000000000000000000000000000000000000000000007f00000000000000000000000000000000000000000000000000000000000000007f00000000000000000000000000000000000000000000000000000000000000006122e5565b90505b90565b6000828260405160200161216c9291906132f3565b60405160208183030381529060405280519060200120905092915050565b6000807f7fffffffffffffffffffffffffffffff5d576e7357a4501ddfe92f46681b20a08360001c11156121c557600060039150915061228e565b601b8560ff16141580156121dd5750601c8560ff1614155b156121ef57600060049150915061228e565b600060018787878760405160008152602001604052604051612214949392919061347b565b6020604051602081039080840390855afa158015612236573d6000803e3d6000fd5b505050602060405103519050600073ffffffffffffffffffffffffffffffffffffffff168173ffffffffffffffffffffffffffffffffffffffff1614156122855760006001925092505061228e565b80600092509250505b94509492505050565b6000806000807f7fffffffffffffffffffffffffffffffffffffffffffffffffffffffffffffff85169150601b8560ff1c0190506122d78782888561218a565b935093505050935093915050565b600083838346306040516020016123009594939291906133e3565b6040516020818303038152906040528051906020012090509392505050565b82805461232b90613abf565b90600052602060002090601f01602090048101928261234d5760008555612394565b82601f1061236657805160ff1916838001178555612394565b82800160010185558215612394579182015b82811115612393578251825591602001919060010190612378565b5b5090506123a191906123a5565b5090565b5b808211156123be5760008160009055506001016123a6565b5090565b60006123d56123d0846138c5565b613894565b9050828152602081018484840111156123ed57600080fd5b6123f8848285613a7d565b509392505050565b600061241361240e846138f5565b613894565b90508281526020810184848401111561242b57600080fd5b612436848285613a7d565b509392505050565b60008135905061244d81613b99565b92915050565b60008151905061246281613b99565b92915050565b60008135905061247781613bb0565b92915050565b60008135905061248c81613bc7565b92915050565b6000815190506124a181613bc7565b92915050565b600082601f8301126124b857600080fd5b81356124c88482602086016123c2565b91505092915050565b600082601f8301126124e257600080fd5b81356124f2848260208601612400565b91505092915050565b60006080828403121561250d57600080fd5b81905092915050565b60008135905061252581613bde565b92915050565b60006020828403121561253d57600080fd5b600061254b8482850161243e565b91505092915050565b60006020828403121561256657600080fd5b600061257484828501612453565b91505092915050565b6000806040838503121561259057600080fd5b600061259e8582860161243e565b92505060206125af8582860161243e565b9150509250929050565b6000806000606084860312156125ce57600080fd5b60006125dc8682870161243e565b93505060206125ed8682870161243e565b925050604084013567ffffffffffffffff81111561260a57600080fd5b612616868287016124fb565b9150509250925092565b60008060006060848603121561263557600080fd5b60006126438682870161243e565b93505060206126548682870161243e565b925050604061266586828701612516565b9150509250925092565b6000806000806080858703121561268557600080fd5b60006126938782880161243e565b94505060206126a48782880161243e565b93505060406126b587828801612516565b925050606085013567ffffffffffffffff8111156126d257600080fd5b6126de878288016124a7565b91505092959194509250565b600080604083850312156126fd57600080fd5b600061270b8582860161243e565b925050602061271c85828601612468565b9150509250929050565b6000806040838503121561273957600080fd5b60006127478582860161243e565b925050602083013567ffffffffffffffff81111561276457600080fd5b612770858286016124fb565b9150509250929050565b6000806040838503121561278d57600080fd5b600061279b8582860161243e565b92505060206127ac85828601612516565b9150509250929050565b6000806000606084860312156127cb57600080fd5b60006127d98682870161243e565b93505060206127ea86828701612516565b925050604084013567ffffffffffffffff81111561280757600080fd5b612813868287016124d1565b9150509250925092565b60006020828403121561282f57600080fd5b600061283d8482850161247d565b91505092915050565b60006020828403121561285857600080fd5b600061286684828501612492565b91505092915050565b60006020828403121561288157600080fd5b600082013567ffffffffffffffff81111561289b57600080fd5b6128a7848285016124fb565b91505092915050565b6000602082840312156128c257600080fd5b60006128d084828501612516565b91505092915050565b6128e2816139f2565b82525050565b6128f181613a04565b82525050565b61290081613a10565b82525050565b61291761291282613a10565b613af1565b82525050565b600061292882613925565b612932818561393b565b9350612942818560208601613a8c565b61294b81613b88565b840191505092915050565b600061296182613930565b61296b818561394c565b935061297b818560208601613a8c565b61298481613b88565b840191505092915050565b600061299c60188361394c565b91507f45434453413a20696e76616c6964207369676e617475726500000000000000006000830152602082019050919050565b60006129dc601f8361394c565b91507f45434453413a20696e76616c6964207369676e6174757265206c656e677468006000830152602082019050919050565b6000612a1c60268361394c565b91507f746f6b656e5552493a20517565727920666f72206e6f6e206578697374656e7460008301527f20746f6b656e00000000000000000000000000000000000000000000000000006020830152604082019050919050565b6000612a8260328361394c565b91507f4552433732313a207472616e7366657220746f206e6f6e20455243373231526560008301527f63656976657220696d706c656d656e74657200000000000000000000000000006020830152604082019050919050565b6000612ae8601b8361394c565b91507f566f75636865722068617320616c7265616479206578706972656400000000006000830152602082019050919050565b6000612b28601c8361394c565b91507f4552433732313a20746f6b656e20616c7265616479206d696e746564000000006000830152602082019050919050565b6000612b6860028361395d565b91507f19010000000000000000000000000000000000000000000000000000000000006000830152600282019050919050565b6000612ba8602e8361394c565b91507f53657474696e672055524920666f72206e6f6e2d6578697374656e7420746f6b60008301527f656e206e6f7420616c6c6f7765640000000000000000000000000000000000006020830152604082019050919050565b6000612c0e60248361394c565b91507f4552433732313a207472616e7366657220746f20746865207a65726f2061646460008301527f72657373000000000000000000000000000000000000000000000000000000006020830152604082019050919050565b6000612c7460198361394c565b91507f4552433732313a20617070726f766520746f2063616c6c6572000000000000006000830152602082019050919050565b6000612cb460238361394c565b91507f4572726f723a20555249206f66207468697320746f6b656e206973206e6f742060008301527f73657400000000000000000000000000000000000000000000000000000000006020830152604082019050919050565b6000612d1a60228361394c565b91507f45434453413a20696e76616c6964207369676e6174757265202773272076616c60008301527f75650000000000000000000000000000000000000000000000000000000000006020830152604082019050919050565b6000612d80602c8361394c565b91507f4552433732313a206f70657261746f7220717565727920666f72206e6f6e657860008301527f697374656e7420746f6b656e00000000000000000000000000000000000000006020830152604082019050919050565b6000612de6601f8361394c565b91507f5468697320746f6b656e27732055524920616c726561647920657869737473006000830152602082019050919050565b6000612e2660138361394c565b91507f496e76616c6964206e6f6e63652076616c7565000000000000000000000000006000830152602082019050919050565b6000612e6660388361394c565b91507f4552433732313a20617070726f76652063616c6c6572206973206e6f74206f7760008301527f6e6572206e6f7220617070726f76656420666f7220616c6c00000000000000006020830152604082019050919050565b6000612ecc601b8361394c565b91507f4572726f723a20546f6b656e20616c72656164792065786973747300000000006000830152602082019050919050565b6000612f0c602a8361394c565b91507f4552433732313a2062616c616e636520717565727920666f7220746865207a6560008301527f726f2061646472657373000000000000000000000000000000000000000000006020830152604082019050919050565b6000612f7260298361394c565b91507f4552433732313a206f776e657220717565727920666f72206e6f6e657869737460008301527f656e7420746f6b656e00000000000000000000000000000000000000000000006020830152604082019050919050565b6000612fd860228361394c565b91507f45434453413a20696e76616c6964207369676e6174757265202776272076616c60008301527f75650000000000000000000000000000000000000000000000000000000000006020830152604082019050919050565b600061303e60208361394c565b91507f4552433732313a206d696e7420746f20746865207a65726f20616464726573736000830152602082019050919050565b600061307e602c8361394c565b91507f4552433732313a20617070726f76656420717565727920666f72206e6f6e657860008301527f697374656e7420746f6b656e00000000000000000000000000000000000000006020830152604082019050919050565b60006130e460298361394c565b91507f4552433732313a207472616e73666572206f6620746f6b656e2074686174206960008301527f73206e6f74206f776e00000000000000000000000000000000000000000000006020830152604082019050919050565b600061314a602c8361394c565b91507f5468697320636f6e747261637420686173206e6f20617070726f76616c20666f60008301527f72207468697320746f6b656e00000000000000000000000000000000000000006020830152604082019050919050565b60006131b060218361394c565b91507f4552433732313a20617070726f76616c20746f2063757272656e74206f776e6560008301527f72000000000000000000000000000000000000000000000000000000000000006020830152604082019050919050565b600061321660278361394c565b91507f417574686f72697a6174696f6e206661696c65643a20496e76616c696420736960008301527f676e6174757265000000000000000000000000000000000000000000000000006020830152604082019050919050565b600061327c60318361394c565b91507f4552433732313a207472616e736665722063616c6c6572206973206e6f74206f60008301527f776e6572206e6f7220617070726f7665640000000000000000000000000000006020830152604082019050919050565b6132de81613a66565b82525050565b6132ed81613a70565b82525050565b60006132fe82612b5b565b915061330a8285612906565b60208201915061331a8284612906565b6020820191508190509392505050565b600060208201905061333f60008301846128d9565b92915050565b600060608201905061335a60008301866128d9565b61336760208301856128d9565b61337460408301846132d5565b949350505050565b600060808201905061339160008301876128d9565b61339e60208301866128d9565b6133ab60408301856132d5565b81810360608301526133bd818461291d565b905095945050505050565b60006020820190506133dd60008301846128e8565b92915050565b600060a0820190506133f860008301886128f7565b61340560208301876128f7565b61341260408301866128f7565b61341f60608301856132d5565b61342c60808301846128d9565b9695505050505050565b600060808201905061344b60008301876128f7565b61345860208301866132d5565b61346560408301856132d5565b61347260608301846132d5565b95945050505050565b600060808201905061349060008301876128f7565b61349d60208301866132e4565b6134aa60408301856128f7565b6134b760608301846128f7565b95945050505050565b600060208201905081810360008301526134da8184612956565b905092915050565b600060208201905081810360008301526134fb8161298f565b9050919050565b6000602082019050818103600083015261351b816129cf565b9050919050565b6000602082019050818103600083015261353b81612a0f565b9050919050565b6000602082019050818103600083015261355b81612a75565b9050919050565b6000602082019050818103600083015261357b81612adb565b9050919050565b6000602082019050818103600083015261359b81612b1b565b9050919050565b600060208201905081810360008301526135bb81612b9b565b9050919050565b600060208201905081810360008301526135db81612c01565b9050919050565b600060208201905081810360008301526135fb81612c67565b9050919050565b6000602082019050818103600083015261361b81612ca7565b9050919050565b6000602082019050818103600083015261363b81612d0d565b9050919050565b6000602082019050818103600083015261365b81612d73565b9050919050565b6000602082019050818103600083015261367b81612dd9565b9050919050565b6000602082019050818103600083015261369b81612e19565b9050919050565b600060208201905081810360008301526136bb81612e59565b9050919050565b600060208201905081810360008301526136db81612ebf565b9050919050565b600060208201905081810360008301526136fb81612eff565b9050919050565b6000602082019050818103600083015261371b81612f65565b9050919050565b6000602082019050818103600083015261373b81612fcb565b9050919050565b6000602082019050818103600083015261375b81613031565b9050919050565b6000602082019050818103600083015261377b81613071565b9050919050565b6000602082019050818103600083015261379b816130d7565b9050919050565b600060208201905081810360008301526137bb8161313d565b9050919050565b600060208201905081810360008301526137db816131a3565b9050919050565b600060208201905081810360008301526137fb81613209565b9050919050565b6000602082019050818103600083015261381b8161326f565b9050919050565b600060208201905061383760008301846132d5565b92915050565b6000808335600160200384360303811261385657600080fd5b80840192508235915067ffffffffffffffff82111561387457600080fd5b60208301925060018202360383131561388c57600080fd5b509250929050565b6000604051905081810181811067ffffffffffffffff821117156138bb576138ba613b59565b5b8060405250919050565b600067ffffffffffffffff8211156138e0576138df613b59565b5b601f19601f8301169050602081019050919050565b600067ffffffffffffffff8211156139105761390f613b59565b5b601f19601f8301169050602081019050919050565b600081519050919050565b600081519050919050565b600082825260208201905092915050565b600082825260208201905092915050565b600081905092915050565b600061397382613a66565b915061397e83613a66565b9250827fffffffffffffffffffffffffffffffffffffffffffffffffffffffffffffffff038211156139b3576139b2613afb565b5b828201905092915050565b60006139c982613a66565b91506139d483613a66565b9250828210156139e7576139e6613afb565b5b828203905092915050565b60006139fd82613a46565b9050919050565b60008115159050919050565b6000819050919050565b60007fffffffff0000000000000000000000000000000000000000000000000000000082169050919050565b600073ffffffffffffffffffffffffffffffffffffffff82169050919050565b6000819050919050565b600060ff82169050919050565b82818337600083830152505050565b60005b83811015613aaa578082015181840152602081019050613a8f565b83811115613ab9576000848401525b50505050565b60006002820490506001821680613ad757607f821691505b60208210811415613aeb57613aea613b2a565b5b50919050565b6000819050919050565b7f4e487b7100000000000000000000000000000000000000000000000000000000600052601160045260246000fd5b7f4e487b7100000000000000000000000000000000000000000000000000000000600052602260045260246000fd5b7f4e487b7100000000000000000000000000000000000000000000000000000000600052604160045260246000fd5b6000601f19601f8301169050919050565b613ba2816139f2565b8114613bad57600080fd5b50565b613bb981613a04565b8114613bc457600080fd5b50565b613bd081613a1a565b8114613bdb57600080fd5b50565b613be781613a66565b8114613bf257600080fd5b5056fea26469706673582212202e007a93df6a9926092a17c1b4cf274df1826d5d0ebbc9c4fa7772c3b1aa7e6564736f6c63430008000033",
  "linkReferences": {},
  "deployedLinkReferences": {}
}