{
  "_format": "hh-sol-artifact-1",
  "contractName": "Webaverse",
  "sourceName": "contracts/main/Webaverse.sol",
  "abi": [
    {
      "inputs": [],
      "stateMutability": "nonpayable",
      "type": "constructor"
    },
    {
      "anonymous": false,
      "inputs": [
        {
          "indexed": true,
          "internalType": "address",
          "name": "owner",
          "type": "address"
        },
        {
          "indexed": true,
          "internalType": "address",
          "name": "approved",
          "type": "address"
        },
        {
          "indexed": true,
          "internalType": "uint256",
          "name": "tokenId",
          "type": "uint256"
        }
      ],
      "name": "Approval",
      "type": "event"
    },
    {
      "anonymous": false,
      "inputs": [
        {
          "indexed": true,
          "internalType": "address",
          "name": "owner",
          "type": "address"
        },
        {
          "indexed": true,
          "internalType": "address",
          "name": "operator",
          "type": "address"
        },
        {
          "indexed": false,
          "internalType": "bool",
          "name": "approved",
          "type": "bool"
        }
      ],
      "name": "ApprovalForAll",
      "type": "event"
    },
    {
      "anonymous": false,
      "inputs": [
        {
          "indexed": true,
          "internalType": "address",
          "name": "from",
          "type": "address"
        },
        {
          "indexed": true,
          "internalType": "address",
          "name": "to",
          "type": "address"
        },
        {
          "indexed": true,
          "internalType": "uint256",
          "name": "tokenId",
          "type": "uint256"
        }
      ],
      "name": "Transfer",
      "type": "event"
    },
    {
      "inputs": [
        {
          "internalType": "address",
          "name": "to",
          "type": "address"
        },
        {
          "internalType": "uint256",
          "name": "tokenId",
          "type": "uint256"
        }
      ],
      "name": "approve",
      "outputs": [],
      "stateMutability": "nonpayable",
      "type": "function"
    },
    {
      "inputs": [
        {
          "internalType": "address",
          "name": "owner",
          "type": "address"
        }
      ],
      "name": "balanceOf",
      "outputs": [
        {
          "internalType": "uint256",
          "name": "",
          "type": "uint256"
        }
      ],
      "stateMutability": "view",
      "type": "function"
    },
    {
      "inputs": [
        {
          "internalType": "uint256",
          "name": "",
          "type": "uint256"
        }
      ],
      "name": "burnedNonces",
      "outputs": [
        {
          "internalType": "bool",
          "name": "",
          "type": "bool"
        }
      ],
      "stateMutability": "view",
      "type": "function"
    },
    {
      "inputs": [
        {
          "internalType": "address",
          "name": "claimer",
          "type": "address"
        },
        {
          "components": [
            {
              "internalType": "uint256",
              "name": "tokenId",
              "type": "uint256"
            },
            {
              "internalType": "uint256",
              "name": "nonce",
              "type": "uint256"
            },
            {
              "internalType": "uint256",
              "name": "expiry",
              "type": "uint256"
            },
            {
              "internalType": "bytes",
              "name": "signature",
              "type": "bytes"
            }
          ],
          "internalType": "struct Webaverse.NFTVoucher",
          "name": "voucher",
          "type": "tuple"
        }
      ],
      "name": "claim",
      "outputs": [
        {
          "internalType": "uint256",
          "name": "",
          "type": "uint256"
        }
      ],
      "stateMutability": "nonpayable",
      "type": "function"
    },
    {
      "inputs": [
        {
          "internalType": "address",
          "name": "claimer",
          "type": "address"
        },
        {
          "internalType": "address",
          "name": "contractAddress",
          "type": "address"
        },
        {
          "components": [
            {
              "internalType": "uint256",
              "name": "tokenId",
              "type": "uint256"
            },
            {
              "internalType": "uint256",
              "name": "nonce",
              "type": "uint256"
            },
            {
              "internalType": "uint256",
              "name": "expiry",
              "type": "uint256"
            },
            {
              "internalType": "bytes",
              "name": "signature",
              "type": "bytes"
            }
          ],
          "internalType": "struct Webaverse.NFTVoucher",
          "name": "voucher",
          "type": "tuple"
        }
      ],
      "name": "externalClaim",
      "outputs": [
        {
          "internalType": "uint256",
          "name": "",
          "type": "uint256"
        }
      ],
      "stateMutability": "nonpayable",
      "type": "function"
    },
    {
      "inputs": [
        {
          "internalType": "uint256",
          "name": "tokenId",
          "type": "uint256"
        }
      ],
      "name": "getApproved",
      "outputs": [
        {
          "internalType": "address",
          "name": "",
          "type": "address"
        }
      ],
      "stateMutability": "view",
      "type": "function"
    },
    {
      "inputs": [],
      "name": "getChainID",
      "outputs": [
        {
          "internalType": "uint256",
          "name": "",
          "type": "uint256"
        }
      ],
      "stateMutability": "view",
      "type": "function"
    },
    {
      "inputs": [
        {
          "internalType": "address",
          "name": "owner",
          "type": "address"
        },
        {
          "internalType": "address",
          "name": "operator",
          "type": "address"
        }
      ],
      "name": "isApprovedForAll",
      "outputs": [
        {
          "internalType": "bool",
          "name": "",
          "type": "bool"
        }
      ],
      "stateMutability": "view",
      "type": "function"
    },
    {
      "inputs": [
        {
          "internalType": "address",
          "name": "account",
          "type": "address"
        },
        {
          "internalType": "uint256",
          "name": "tokenId",
          "type": "uint256"
        },
        {
          "internalType": "string",
          "name": "uri",
          "type": "string"
        }
      ],
      "name": "mint",
      "outputs": [],
      "stateMutability": "nonpayable",
      "type": "function"
    },
    {
      "inputs": [],
      "name": "name",
      "outputs": [
        {
          "internalType": "string",
          "name": "",
          "type": "string"
        }
      ],
      "stateMutability": "view",
      "type": "function"
    },
    {
      "inputs": [
        {
          "internalType": "uint256",
          "name": "tokenId",
          "type": "uint256"
        }
      ],
      "name": "ownerOf",
      "outputs": [
        {
          "internalType": "address",
          "name": "",
          "type": "address"
        }
      ],
      "stateMutability": "view",
      "type": "function"
    },
    {
      "inputs": [
        {
          "internalType": "address",
          "name": "from",
          "type": "address"
        },
        {
          "internalType": "address",
          "name": "to",
          "type": "address"
        },
        {
          "internalType": "uint256",
          "name": "tokenId",
          "type": "uint256"
        }
      ],
      "name": "safeTransferFrom",
      "outputs": [],
      "stateMutability": "nonpayable",
      "type": "function"
    },
    {
      "inputs": [
        {
          "internalType": "address",
          "name": "from",
          "type": "address"
        },
        {
          "internalType": "address",
          "name": "to",
          "type": "address"
        },
        {
          "internalType": "uint256",
          "name": "tokenId",
          "type": "uint256"
        },
        {
          "internalType": "bytes",
          "name": "_data",
          "type": "bytes"
        }
      ],
      "name": "safeTransferFrom",
      "outputs": [],
      "stateMutability": "nonpayable",
      "type": "function"
    },
    {
      "inputs": [
        {
          "internalType": "address",
          "name": "operator",
          "type": "address"
        },
        {
          "internalType": "bool",
          "name": "approved",
          "type": "bool"
        }
      ],
      "name": "setApprovalForAll",
      "outputs": [],
      "stateMutability": "nonpayable",
      "type": "function"
    },
    {
      "inputs": [
        {
          "internalType": "bytes4",
          "name": "interfaceId",
          "type": "bytes4"
        }
      ],
      "name": "supportsInterface",
      "outputs": [
        {
          "internalType": "bool",
          "name": "",
          "type": "bool"
        }
      ],
      "stateMutability": "view",
      "type": "function"
    },
    {
      "inputs": [],
      "name": "symbol",
      "outputs": [
        {
          "internalType": "string",
          "name": "",
          "type": "string"
        }
      ],
      "stateMutability": "view",
      "type": "function"
    },
    {
      "inputs": [
        {
          "internalType": "uint256",
          "name": "tokenId",
          "type": "uint256"
        }
      ],
      "name": "tokenURI",
      "outputs": [
        {
          "internalType": "string",
          "name": "",
          "type": "string"
        }
      ],
      "stateMutability": "view",
      "type": "function"
    },
    {
      "inputs": [
        {
          "internalType": "address",
          "name": "from",
          "type": "address"
        },
        {
          "internalType": "address",
          "name": "to",
          "type": "address"
        },
        {
          "internalType": "uint256",
          "name": "tokenId",
          "type": "uint256"
        }
      ],
      "name": "transferFrom",
      "outputs": [],
      "stateMutability": "nonpayable",
      "type": "function"
    }
  ],
  "bytecode": "0x6101206040523480156200001257600080fd5b506040518060400160405280601181526020017f5765626176657273652d766f75636865720000000000000000000000000000008152506040518060400160405280600181526020017f31000000000000000000000000000000000000000000000000000000000000008152506040518060400160405280600c81526020017f5765626176657273654e465400000000000000000000000000000000000000008152506040518060400160405280600481526020017f5756525300000000000000000000000000000000000000000000000000000000815250816000908051906020019062000103929190620001de565b5080600190805190602001906200011c929190620001de565b50505060008280519060200120905060008280519060200120905060007f8b73c3c69bb8fe3d512ecc4cf759cc79239f7b179b0ffacaa9a75d522b39400f90508260c081815250508160e081815250504660a0818152505062000187818484620001a260201b60201c565b608081815250508061010081815250505050505050620003cb565b60008383834630604051602001620001bf959493929190620002c1565b6040516020818303038152906040528051906020012090509392505050565b828054620001ec9062000366565b90600052602060002090601f0160209004810192826200021057600085556200025c565b82601f106200022b57805160ff19168380011785556200025c565b828001600101855582156200025c579182015b828111156200025b5782518255916020019190600101906200023e565b5b5090506200026b91906200026f565b5090565b5b808211156200028a57600081600090555060010162000270565b5090565b62000299816200031e565b82525050565b620002aa8162000332565b82525050565b620002bb816200035c565b82525050565b600060a082019050620002d860008301886200029f565b620002e760208301876200029f565b620002f660408301866200029f565b620003056060830185620002b0565b6200031460808301846200028e565b9695505050505050565b60006200032b826200033c565b9050919050565b6000819050919050565b600073ffffffffffffffffffffffffffffffffffffffff82169050919050565b6000819050919050565b600060028204905060018216806200037f57607f821691505b602082108114156200039657620003956200039c565b5b50919050565b7f4e487b7100000000000000000000000000000000000000000000000000000000600052602260045260246000fd5b60805160a05160c05160e05161010051613c75620004106000396000612176015260006121b801526000612197015260006121230152600061214b0152613c756000f3fe608060405234801561001057600080fd5b50600436106101165760003560e01c80636eb26346116100a2578063a22cb46511610071578063a22cb46514610319578063b88d4fde14610335578063c87b56dd14610351578063d3fc986414610381578063e985e9c51461039d57610116565b80636eb263461461026b57806370a082311461029b5780637e2499cc146102cb57806395d89b41146102fb57610116565b806323b872dd116100e957806323b872dd146101b557806337d74fa6146101d157806342842e0e14610201578063564b81ef1461021d5780636352211e1461023b57610116565b806301ffc9a71461011b57806306fdde031461014b578063081812fc14610169578063095ea7b314610199575b600080fd5b610135600480360381019061013091906128a8565b6103cd565b6040516101429190613412565b60405180910390f35b6101536103df565b604051610160919061350a565b60405180910390f35b610183600480360381019061017e91906128fa565b610471565b6040516101909190613374565b60405180910390f35b6101b360048036038101906101ae9190612805565b6104f6565b005b6101cf60048036038101906101ca91906126ab565b61060e565b005b6101eb60048036038101906101e69190612644565b61066e565b6040516101f8919061386c565b60405180910390f35b61021b600480360381019061021691906126ab565b6109d4565b005b6102256109f4565b604051610232919061386c565b60405180910390f35b610255600480360381019061025091906128fa565b610a01565b6040516102629190613374565b60405180910390f35b610285600480360381019061028091906127b1565b610ab3565b604051610292919061386c565b60405180910390f35b6102b560048036038101906102b091906125b6565b610c3a565b6040516102c2919061386c565b60405180910390f35b6102e560048036038101906102e091906128fa565b610cf2565b6040516102f29190613412565b60405180910390f35b610303610d12565b604051610310919061350a565b60405180910390f35b610333600480360381019061032e9190612775565b610da4565b005b61034f600480360381019061034a91906126fa565b610f25565b005b61036b600480360381019061036691906128fa565b610f87565b604051610378919061350a565b60405180910390f35b61039b60048036038101906103969190612841565b6110d6565b005b6103b760048036038101906103b29190612608565b611138565b6040516103c49190613412565b60405180910390f35b60006103d8826111cc565b9050919050565b6060600080546103ee90613b09565b80601f016020809104026020016040519081016040528092919081815260200182805461041a90613b09565b80156104675780601f1061043c57610100808354040283529160200191610467565b820191906000526020600020905b81548152906001019060200180831161044a57829003601f168201915b5050505050905090565b600061047c826112ae565b6104bb576040517f08c379a00000000000000000000000000000000000000000000000000000000081526004016104b2906137ac565b60405180910390fd5b6004600083815260200190815260200160002060009054906101000a900473ffffffffffffffffffffffffffffffffffffffff169050919050565b600061050182610a01565b90508073ffffffffffffffffffffffffffffffffffffffff168373ffffffffffffffffffffffffffffffffffffffff161415610572576040517f08c379a00000000000000000000000000000000000000000000000000000000081526004016105699061380c565b60405180910390fd5b8073ffffffffffffffffffffffffffffffffffffffff1661059161131a565b73ffffffffffffffffffffffffffffffffffffffff1614806105c057506105bf816105ba61131a565b611138565b5b6105ff576040517f08c379a00000000000000000000000000000000000000000000000000000000081526004016105f6906136ec565b60405180910390fd5b6106098383611322565b505050565b61061f61061961131a565b826113db565b61065e576040517f08c379a00000000000000000000000000000000000000000000000000000000081526004016106559061384c565b60405180910390fd5b6106698383836114b9565b505050565b600080839050600061067f84611715565b90508173ffffffffffffffffffffffffffffffffffffffff16636352211e85600001356040518263ffffffff1660e01b81526004016106be919061386c565b60206040518083038186803b1580156106d657600080fd5b505afa1580156106ea573d6000803e3d6000fd5b505050506040513d601f19601f8201168201806040525081019061070e91906125df565b73ffffffffffffffffffffffffffffffffffffffff168173ffffffffffffffffffffffffffffffffffffffff161461077b576040517f08c379a00000000000000000000000000000000000000000000000000000000081526004016107729061382c565b60405180910390fd5b3073ffffffffffffffffffffffffffffffffffffffff168273ffffffffffffffffffffffffffffffffffffffff1663081812fc86600001356040518263ffffffff1660e01b81526004016107cf919061386c565b60206040518083038186803b1580156107e757600080fd5b505afa1580156107fb573d6000803e3d6000fd5b505050506040513d601f19601f8201168201806040525081019061081f91906125df565b73ffffffffffffffffffffffffffffffffffffffff1614610875576040517f08c379a000000000000000000000000000000000000000000000000000000000815260040161086c906137ec565b60405180910390fd5b83604001354211156108bc576040517f08c379a00000000000000000000000000000000000000000000000000000000081526004016108b3906135ac565b60405180910390fd5b600760008560200135815260200190815260200160002060009054906101000a900460ff1615610921576040517f08c379a0000000000000000000000000000000000000000000000000000000008152600401610918906136cc565b60405180910390fd5b8173ffffffffffffffffffffffffffffffffffffffff166323b872dd828887600001356040518463ffffffff1660e01b81526004016109629392919061338f565b600060405180830381600087803b15801561097c57600080fd5b505af1158015610990573d6000803e3d6000fd5b505050506001600760008660200135815260200190815260200160002060006101000a81548160ff0219169083151502179055508360000135925050509392505050565b6109ef83838360405180602001604052806000815250610f25565b505050565b6000804690508091505090565b6000806002600084815260200190815260200160002060009054906101000a900473ffffffffffffffffffffffffffffffffffffffff169050600073ffffffffffffffffffffffffffffffffffffffff168173ffffffffffffffffffffffffffffffffffffffff161415610aaa576040517f08c379a0000000000000000000000000000000000000000000000000000000008152600401610aa19061374c565b60405180910390fd5b80915050919050565b600080610abf83611715565b9050610ace8360000135610a01565b73ffffffffffffffffffffffffffffffffffffffff168173ffffffffffffffffffffffffffffffffffffffff1614610b3b576040517f08c379a0000000000000000000000000000000000000000000000000000000008152600401610b329061382c565b60405180910390fd5b8260400135421115610b82576040517f08c379a0000000000000000000000000000000000000000000000000000000008152600401610b79906135ac565b60405180910390fd5b60001515600760008560200135815260200190815260200160002060009054906101000a900460ff16151514610bed576040517f08c379a0000000000000000000000000000000000000000000000000000000008152600401610be4906136cc565b60405180910390fd5b610bfc818585600001356114b9565b6001600760008560200135815260200190815260200160002060006101000a81548160ff021916908315150217905550826000013591505092915050565b60008073ffffffffffffffffffffffffffffffffffffffff168273ffffffffffffffffffffffffffffffffffffffff161415610cab576040517f08c379a0000000000000000000000000000000000000000000000000000000008152600401610ca29061372c565b60405180910390fd5b600360008373ffffffffffffffffffffffffffffffffffffffff1673ffffffffffffffffffffffffffffffffffffffff168152602001908152602001600020549050919050565b60076020528060005260406000206000915054906101000a900460ff1681565b606060018054610d2190613b09565b80601f0160208091040260200160405190810160405280929190818152602001828054610d4d90613b09565b8015610d9a5780601f10610d6f57610100808354040283529160200191610d9a565b820191906000526020600020905b815481529060010190602001808311610d7d57829003601f168201915b5050505050905090565b610dac61131a565b73ffffffffffffffffffffffffffffffffffffffff168273ffffffffffffffffffffffffffffffffffffffff161415610e1a576040517f08c379a0000000000000000000000000000000000000000000000000000000008152600401610e119061362c565b60405180910390fd5b8060056000610e2761131a565b73ffffffffffffffffffffffffffffffffffffffff1673ffffffffffffffffffffffffffffffffffffffff16815260200190815260200160002060008473ffffffffffffffffffffffffffffffffffffffff1673ffffffffffffffffffffffffffffffffffffffff16815260200190815260200160002060006101000a81548160ff0219169083151502179055508173ffffffffffffffffffffffffffffffffffffffff16610ed461131a565b73ffffffffffffffffffffffffffffffffffffffff167f17307eab39ab6107e8899845ad3d59bd9653f200f220920489ca2b5937696c3183604051610f199190613412565b60405180910390a35050565b610f36610f3061131a565b836113db565b610f75576040517f08c379a0000000000000000000000000000000000000000000000000000000008152600401610f6c9061384c565b60405180910390fd5b610f8184848484611787565b50505050565b6060610f92826112ae565b610fd1576040517f08c379a0000000000000000000000000000000000000000000000000000000008152600401610fc89061356c565b60405180910390fd5b6000600860008481526020019081526020016000208054610ff190613b09565b905011611033576040517f08c379a000000000000000000000000000000000000000000000000000000000815260040161102a9061364c565b60405180910390fd5b60086000838152602001908152602001600020805461105190613b09565b80601f016020809104026020016040519081016040528092919081815260200182805461107d90613b09565b80156110ca5780601f1061109f576101008083540402835291602001916110ca565b820191906000526020600020905b8154815290600101906020018083116110ad57829003601f168201915b50505050509050919050565b6110df826112ae565b1561111f576040517f08c379a00000000000000000000000000000000000000000000000000000000081526004016111169061370c565b60405180910390fd5b61112983836117e3565b61113382826119b1565b505050565b6000600560008473ffffffffffffffffffffffffffffffffffffffff1673ffffffffffffffffffffffffffffffffffffffff16815260200190815260200160002060008373ffffffffffffffffffffffffffffffffffffffff1673ffffffffffffffffffffffffffffffffffffffff16815260200190815260200160002060009054906101000a900460ff16905092915050565b60007f80ac58cd000000000000000000000000000000000000000000000000000000007bffffffffffffffffffffffffffffffffffffffffffffffffffffffff1916827bffffffffffffffffffffffffffffffffffffffffffffffffffffffff1916148061129757507f5b5e139f000000000000000000000000000000000000000000000000000000007bffffffffffffffffffffffffffffffffffffffffffffffffffffffff1916827bffffffffffffffffffffffffffffffffffffffffffffffffffffffff1916145b806112a757506112a682611a87565b5b9050919050565b60008073ffffffffffffffffffffffffffffffffffffffff166002600084815260200190815260200160002060009054906101000a900473ffffffffffffffffffffffffffffffffffffffff1673ffffffffffffffffffffffffffffffffffffffff1614159050919050565b600033905090565b816004600083815260200190815260200160002060006101000a81548173ffffffffffffffffffffffffffffffffffffffff021916908373ffffffffffffffffffffffffffffffffffffffff160217905550808273ffffffffffffffffffffffffffffffffffffffff1661139583610a01565b73ffffffffffffffffffffffffffffffffffffffff167f8c5be1e5ebec7d5bd14f71427d1e84f3dd0314c0f7b2291e5b200ac8c7c3b92560405160405180910390a45050565b60006113e6826112ae565b611425576040517f08c379a000000000000000000000000000000000000000000000000000000000815260040161141c9061368c565b60405180910390fd5b600061143083610a01565b90508073ffffffffffffffffffffffffffffffffffffffff168473ffffffffffffffffffffffffffffffffffffffff16148061149f57508373ffffffffffffffffffffffffffffffffffffffff1661148784610471565b73ffffffffffffffffffffffffffffffffffffffff16145b806114b057506114af8185611138565b5b91505092915050565b8273ffffffffffffffffffffffffffffffffffffffff166114d982610a01565b73ffffffffffffffffffffffffffffffffffffffff161461152f576040517f08c379a0000000000000000000000000000000000000000000000000000000008152600401611526906137cc565b60405180910390fd5b600073ffffffffffffffffffffffffffffffffffffffff168273ffffffffffffffffffffffffffffffffffffffff16141561159f576040517f08c379a00000000000000000000000000000000000000000000000000000000081526004016115969061360c565b60405180910390fd5b6115aa838383611af1565b6115b5600082611322565b6001600360008573ffffffffffffffffffffffffffffffffffffffff1673ffffffffffffffffffffffffffffffffffffffff16815260200190815260200160002060008282546116059190613a08565b925050819055506001600360008473ffffffffffffffffffffffffffffffffffffffff1673ffffffffffffffffffffffffffffffffffffffff168152602001908152602001600020600082825461165c91906139b2565b92505081905550816002600083815260200190815260200160002060006101000a81548173ffffffffffffffffffffffffffffffffffffffff021916908373ffffffffffffffffffffffffffffffffffffffff160217905550808273ffffffffffffffffffffffffffffffffffffffff168473ffffffffffffffffffffffffffffffffffffffff167fddf252ad1be2c89b69c2b068fc378daa952ba7f163c4a11628f55a4df523b3ef60405160405180910390a4505050565b60008061172183611af6565b905061177f818480606001906117379190613887565b8080601f016020809104026020016040519081016040528093929190818152602001838380828437600081840152601f19601f82011690508083019250505050505050611b60565b915050919050565b6117928484846114b9565b61179e84848484611b87565b6117dd576040517f08c379a00000000000000000000000000000000000000000000000000000000081526004016117d49061358c565b60405180910390fd5b50505050565b600073ffffffffffffffffffffffffffffffffffffffff168273ffffffffffffffffffffffffffffffffffffffff161415611853576040517f08c379a000000000000000000000000000000000000000000000000000000000815260040161184a9061378c565b60405180910390fd5b61185c816112ae565b1561189c576040517f08c379a0000000000000000000000000000000000000000000000000000000008152600401611893906135cc565b60405180910390fd5b6118a860008383611af1565b6001600360008473ffffffffffffffffffffffffffffffffffffffff1673ffffffffffffffffffffffffffffffffffffffff16815260200190815260200160002060008282546118f891906139b2565b92505081905550816002600083815260200190815260200160002060006101000a81548173ffffffffffffffffffffffffffffffffffffffff021916908373ffffffffffffffffffffffffffffffffffffffff160217905550808273ffffffffffffffffffffffffffffffffffffffff16600073ffffffffffffffffffffffffffffffffffffffff167fddf252ad1be2c89b69c2b068fc378daa952ba7f163c4a11628f55a4df523b3ef60405160405180910390a45050565b6119ba826112ae565b6119f9576040517f08c379a00000000000000000000000000000000000000000000000000000000081526004016119f0906135ec565b60405180910390fd5b6000600860008481526020019081526020016000208054611a1990613b09565b905014611a5b576040517f08c379a0000000000000000000000000000000000000000000000000000000008152600401611a52906136ac565b60405180910390fd5b80600860008481526020019081526020016000209080519060200190611a829291906123aa565b505050565b60007f01ffc9a7000000000000000000000000000000000000000000000000000000007bffffffffffffffffffffffffffffffffffffffffffffffffffffffff1916827bffffffffffffffffffffffffffffffffffffffffffffffffffffffff1916149050919050565b505050565b6000611b597fa71ded31e2bec61339bad6247783eb9b59b4ad6bc34cbc5a94eadbb2825c4722836000013584602001358560400135604051602001611b3e9493929190613480565b60405160208183030381529060405280519060200120611d1e565b9050919050565b6000806000611b6f8585611d38565b91509150611b7c81611dbb565b819250505092915050565b6000611ba88473ffffffffffffffffffffffffffffffffffffffff1661210c565b15611d11578373ffffffffffffffffffffffffffffffffffffffff1663150b7a02611bd161131a565b8786866040518563ffffffff1660e01b8152600401611bf394939291906133c6565b602060405180830381600087803b158015611c0d57600080fd5b505af1925050508015611c3e57506040513d601f19601f82011682018060405250810190611c3b91906128d1565b60015b611cc1573d8060008114611c6e576040519150601f19603f3d011682016040523d82523d6000602084013e611c73565b606091505b50600081511415611cb9576040517f08c379a0000000000000000000000000000000000000000000000000000000008152600401611cb09061358c565b60405180910390fd5b805181602001fd5b63150b7a0260e01b7bffffffffffffffffffffffffffffffffffffffffffffffffffffffff1916817bffffffffffffffffffffffffffffffffffffffffffffffffffffffff191614915050611d16565b600190505b949350505050565b6000611d31611d2b61211f565b836121e2565b9050919050565b600080604183511415611d7a5760008060006020860151925060408601519150606086015160001a9050611d6e87828585612215565b94509450505050611db4565b604083511415611dab576000806020850151915060408501519050611da0868383612322565b935093505050611db4565b60006002915091505b9250929050565b60006004811115611df5577f4e487b7100000000000000000000000000000000000000000000000000000000600052602160045260246000fd5b816004811115611e2e577f4e487b7100000000000000000000000000000000000000000000000000000000600052602160045260246000fd5b1415611e3957612109565b60016004811115611e73577f4e487b7100000000000000000000000000000000000000000000000000000000600052602160045260246000fd5b816004811115611eac577f4e487b7100000000000000000000000000000000000000000000000000000000600052602160045260246000fd5b1415611eed576040517f08c379a0000000000000000000000000000000000000000000000000000000008152600401611ee49061352c565b60405180910390fd5b60026004811115611f27577f4e487b7100000000000000000000000000000000000000000000000000000000600052602160045260246000fd5b816004811115611f60577f4e487b7100000000000000000000000000000000000000000000000000000000600052602160045260246000fd5b1415611fa1576040517f08c379a0000000000000000000000000000000000000000000000000000000008152600401611f989061354c565b60405180910390fd5b60036004811115611fdb577f4e487b7100000000000000000000000000000000000000000000000000000000600052602160045260246000fd5b816004811115612014577f4e487b7100000000000000000000000000000000000000000000000000000000600052602160045260246000fd5b1415612055576040517f08c379a000000000000000000000000000000000000000000000000000000000815260040161204c9061366c565b60405180910390fd5b60048081111561208e577f4e487b7100000000000000000000000000000000000000000000000000000000600052602160045260246000fd5b8160048111156120c7577f4e487b7100000000000000000000000000000000000000000000000000000000600052602160045260246000fd5b1415612108576040517f08c379a00000000000000000000000000000000000000000000000000000000081526004016120ff9061376c565b60405180910390fd5b5b50565b600080823b905060008111915050919050565b60007f0000000000000000000000000000000000000000000000000000000000000000461415612171577f000000000000000000000000000000000000000000000000000000000000000090506121df565b6121dc7f00000000000000000000000000000000000000000000000000000000000000007f00000000000000000000000000000000000000000000000000000000000000007f0000000000000000000000000000000000000000000000000000000000000000612370565b90505b90565b600082826040516020016121f792919061333d565b60405160208183030381529060405280519060200120905092915050565b6000807f7fffffffffffffffffffffffffffffff5d576e7357a4501ddfe92f46681b20a08360001c1115612250576000600391509150612319565b601b8560ff16141580156122685750601c8560ff1614155b1561227a576000600491509150612319565b60006001878787876040516000815260200160405260405161229f94939291906134c5565b6020604051602081039080840390855afa1580156122c1573d6000803e3d6000fd5b505050602060405103519050600073ffffffffffffffffffffffffffffffffffffffff168173ffffffffffffffffffffffffffffffffffffffff16141561231057600060019250925050612319565b80600092509250505b94509492505050565b6000806000807f7fffffffffffffffffffffffffffffffffffffffffffffffffffffffffffffff85169150601b8560ff1c01905061236287828885612215565b935093505050935093915050565b6000838383463060405160200161238b95949392919061342d565b6040516020818303038152906040528051906020012090509392505050565b8280546123b690613b09565b90600052602060002090601f0160209004810192826123d8576000855561241f565b82601f106123f157805160ff191683800117855561241f565b8280016001018555821561241f579182015b8281111561241e578251825591602001919060010190612403565b5b50905061242c9190612430565b5090565b5b80821115612449576000816000905550600101612431565b5090565b600061246061245b8461390f565b6138de565b90508281526020810184848401111561247857600080fd5b612483848285613ac7565b509392505050565b600061249e6124998461393f565b6138de565b9050828152602081018484840111156124b657600080fd5b6124c1848285613ac7565b509392505050565b6000813590506124d881613be3565b92915050565b6000815190506124ed81613be3565b92915050565b60008135905061250281613bfa565b92915050565b60008135905061251781613c11565b92915050565b60008151905061252c81613c11565b92915050565b600082601f83011261254357600080fd5b813561255384826020860161244d565b91505092915050565b600082601f83011261256d57600080fd5b813561257d84826020860161248b565b91505092915050565b60006080828403121561259857600080fd5b81905092915050565b6000813590506125b081613c28565b92915050565b6000602082840312156125c857600080fd5b60006125d6848285016124c9565b91505092915050565b6000602082840312156125f157600080fd5b60006125ff848285016124de565b91505092915050565b6000806040838503121561261b57600080fd5b6000612629858286016124c9565b925050602061263a858286016124c9565b9150509250929050565b60008060006060848603121561265957600080fd5b6000612667868287016124c9565b9350506020612678868287016124c9565b925050604084013567ffffffffffffffff81111561269557600080fd5b6126a186828701612586565b9150509250925092565b6000806000606084860312156126c057600080fd5b60006126ce868287016124c9565b93505060206126df868287016124c9565b92505060406126f0868287016125a1565b9150509250925092565b6000806000806080858703121561271057600080fd5b600061271e878288016124c9565b945050602061272f878288016124c9565b9350506040612740878288016125a1565b925050606085013567ffffffffffffffff81111561275d57600080fd5b61276987828801612532565b91505092959194509250565b6000806040838503121561278857600080fd5b6000612796858286016124c9565b92505060206127a7858286016124f3565b9150509250929050565b600080604083850312156127c457600080fd5b60006127d2858286016124c9565b925050602083013567ffffffffffffffff8111156127ef57600080fd5b6127fb85828601612586565b9150509250929050565b6000806040838503121561281857600080fd5b6000612826858286016124c9565b9250506020612837858286016125a1565b9150509250929050565b60008060006060848603121561285657600080fd5b6000612864868287016124c9565b9350506020612875868287016125a1565b925050604084013567ffffffffffffffff81111561289257600080fd5b61289e8682870161255c565b9150509250925092565b6000602082840312156128ba57600080fd5b60006128c884828501612508565b91505092915050565b6000602082840312156128e357600080fd5b60006128f18482850161251d565b91505092915050565b60006020828403121561290c57600080fd5b600061291a848285016125a1565b91505092915050565b61292c81613a3c565b82525050565b61293b81613a4e565b82525050565b61294a81613a5a565b82525050565b61296161295c82613a5a565b613b3b565b82525050565b60006129728261396f565b61297c8185613985565b935061298c818560208601613ad6565b61299581613bd2565b840191505092915050565b60006129ab8261397a565b6129b58185613996565b93506129c5818560208601613ad6565b6129ce81613bd2565b840191505092915050565b60006129e6601883613996565b91507f45434453413a20696e76616c6964207369676e617475726500000000000000006000830152602082019050919050565b6000612a26601f83613996565b91507f45434453413a20696e76616c6964207369676e6174757265206c656e677468006000830152602082019050919050565b6000612a66602683613996565b91507f746f6b656e5552493a20517565727920666f72206e6f6e206578697374656e7460008301527f20746f6b656e00000000000000000000000000000000000000000000000000006020830152604082019050919050565b6000612acc603283613996565b91507f4552433732313a207472616e7366657220746f206e6f6e20455243373231526560008301527f63656976657220696d706c656d656e74657200000000000000000000000000006020830152604082019050919050565b6000612b32601b83613996565b91507f566f75636865722068617320616c7265616479206578706972656400000000006000830152602082019050919050565b6000612b72601c83613996565b91507f4552433732313a20746f6b656e20616c7265616479206d696e746564000000006000830152602082019050919050565b6000612bb26002836139a7565b91507f19010000000000000000000000000000000000000000000000000000000000006000830152600282019050919050565b6000612bf2602e83613996565b91507f53657474696e672055524920666f72206e6f6e2d6578697374656e7420746f6b60008301527f656e206e6f7420616c6c6f7765640000000000000000000000000000000000006020830152604082019050919050565b6000612c58602483613996565b91507f4552433732313a207472616e7366657220746f20746865207a65726f2061646460008301527f72657373000000000000000000000000000000000000000000000000000000006020830152604082019050919050565b6000612cbe601983613996565b91507f4552433732313a20617070726f766520746f2063616c6c6572000000000000006000830152602082019050919050565b6000612cfe602383613996565b91507f4572726f723a20555249206f66207468697320746f6b656e206973206e6f742060008301527f73657400000000000000000000000000000000000000000000000000000000006020830152604082019050919050565b6000612d64602283613996565b91507f45434453413a20696e76616c6964207369676e6174757265202773272076616c60008301527f75650000000000000000000000000000000000000000000000000000000000006020830152604082019050919050565b6000612dca602c83613996565b91507f4552433732313a206f70657261746f7220717565727920666f72206e6f6e657860008301527f697374656e7420746f6b656e00000000000000000000000000000000000000006020830152604082019050919050565b6000612e30601f83613996565b91507f5468697320746f6b656e27732055524920616c726561647920657869737473006000830152602082019050919050565b6000612e70601383613996565b91507f496e76616c6964206e6f6e63652076616c7565000000000000000000000000006000830152602082019050919050565b6000612eb0603883613996565b91507f4552433732313a20617070726f76652063616c6c6572206973206e6f74206f7760008301527f6e6572206e6f7220617070726f76656420666f7220616c6c00000000000000006020830152604082019050919050565b6000612f16601b83613996565b91507f4572726f723a20546f6b656e20616c72656164792065786973747300000000006000830152602082019050919050565b6000612f56602a83613996565b91507f4552433732313a2062616c616e636520717565727920666f7220746865207a6560008301527f726f2061646472657373000000000000000000000000000000000000000000006020830152604082019050919050565b6000612fbc602983613996565b91507f4552433732313a206f776e657220717565727920666f72206e6f6e657869737460008301527f656e7420746f6b656e00000000000000000000000000000000000000000000006020830152604082019050919050565b6000613022602283613996565b91507f45434453413a20696e76616c6964207369676e6174757265202776272076616c60008301527f75650000000000000000000000000000000000000000000000000000000000006020830152604082019050919050565b6000613088602083613996565b91507f4552433732313a206d696e7420746f20746865207a65726f20616464726573736000830152602082019050919050565b60006130c8602c83613996565b91507f4552433732313a20617070726f76656420717565727920666f72206e6f6e657860008301527f697374656e7420746f6b656e00000000000000000000000000000000000000006020830152604082019050919050565b600061312e602983613996565b91507f4552433732313a207472616e73666572206f6620746f6b656e2074686174206960008301527f73206e6f74206f776e00000000000000000000000000000000000000000000006020830152604082019050919050565b6000613194602c83613996565b91507f5468697320636f6e747261637420686173206e6f20617070726f76616c20666f60008301527f72207468697320746f6b656e00000000000000000000000000000000000000006020830152604082019050919050565b60006131fa602183613996565b91507f4552433732313a20617070726f76616c20746f2063757272656e74206f776e6560008301527f72000000000000000000000000000000000000000000000000000000000000006020830152604082019050919050565b6000613260602783613996565b91507f417574686f72697a6174696f6e206661696c65643a20496e76616c696420736960008301527f676e6174757265000000000000000000000000000000000000000000000000006020830152604082019050919050565b60006132c6603183613996565b91507f4552433732313a207472616e736665722063616c6c6572206973206e6f74206f60008301527f776e6572206e6f7220617070726f7665640000000000000000000000000000006020830152604082019050919050565b61332881613ab0565b82525050565b61333781613aba565b82525050565b600061334882612ba5565b91506133548285612950565b6020820191506133648284612950565b6020820191508190509392505050565b60006020820190506133896000830184612923565b92915050565b60006060820190506133a46000830186612923565b6133b16020830185612923565b6133be604083018461331f565b949350505050565b60006080820190506133db6000830187612923565b6133e86020830186612923565b6133f5604083018561331f565b81810360608301526134078184612967565b905095945050505050565b60006020820190506134276000830184612932565b92915050565b600060a0820190506134426000830188612941565b61344f6020830187612941565b61345c6040830186612941565b613469606083018561331f565b6134766080830184612923565b9695505050505050565b60006080820190506134956000830187612941565b6134a2602083018661331f565b6134af604083018561331f565b6134bc606083018461331f565b95945050505050565b60006080820190506134da6000830187612941565b6134e7602083018661332e565b6134f46040830185612941565b6135016060830184612941565b95945050505050565b6000602082019050818103600083015261352481846129a0565b905092915050565b60006020820190508181036000830152613545816129d9565b9050919050565b6000602082019050818103600083015261356581612a19565b9050919050565b6000602082019050818103600083015261358581612a59565b9050919050565b600060208201905081810360008301526135a581612abf565b9050919050565b600060208201905081810360008301526135c581612b25565b9050919050565b600060208201905081810360008301526135e581612b65565b9050919050565b6000602082019050818103600083015261360581612be5565b9050919050565b6000602082019050818103600083015261362581612c4b565b9050919050565b6000602082019050818103600083015261364581612cb1565b9050919050565b6000602082019050818103600083015261366581612cf1565b9050919050565b6000602082019050818103600083015261368581612d57565b9050919050565b600060208201905081810360008301526136a581612dbd565b9050919050565b600060208201905081810360008301526136c581612e23565b9050919050565b600060208201905081810360008301526136e581612e63565b9050919050565b6000602082019050818103600083015261370581612ea3565b9050919050565b6000602082019050818103600083015261372581612f09565b9050919050565b6000602082019050818103600083015261374581612f49565b9050919050565b6000602082019050818103600083015261376581612faf565b9050919050565b6000602082019050818103600083015261378581613015565b9050919050565b600060208201905081810360008301526137a58161307b565b9050919050565b600060208201905081810360008301526137c5816130bb565b9050919050565b600060208201905081810360008301526137e581613121565b9050919050565b6000602082019050818103600083015261380581613187565b9050919050565b60006020820190508181036000830152613825816131ed565b9050919050565b6000602082019050818103600083015261384581613253565b9050919050565b60006020820190508181036000830152613865816132b9565b9050919050565b6000602082019050613881600083018461331f565b92915050565b600080833560016020038436030381126138a057600080fd5b80840192508235915067ffffffffffffffff8211156138be57600080fd5b6020830192506001820236038313156138d657600080fd5b509250929050565b6000604051905081810181811067ffffffffffffffff8211171561390557613904613ba3565b5b8060405250919050565b600067ffffffffffffffff82111561392a57613929613ba3565b5b601f19601f8301169050602081019050919050565b600067ffffffffffffffff82111561395a57613959613ba3565b5b601f19601f8301169050602081019050919050565b600081519050919050565b600081519050919050565b600082825260208201905092915050565b600082825260208201905092915050565b600081905092915050565b60006139bd82613ab0565b91506139c883613ab0565b9250827fffffffffffffffffffffffffffffffffffffffffffffffffffffffffffffffff038211156139fd576139fc613b45565b5b828201905092915050565b6000613a1382613ab0565b9150613a1e83613ab0565b925082821015613a3157613a30613b45565b5b828203905092915050565b6000613a4782613a90565b9050919050565b60008115159050919050565b6000819050919050565b60007fffffffff0000000000000000000000000000000000000000000000000000000082169050919050565b600073ffffffffffffffffffffffffffffffffffffffff82169050919050565b6000819050919050565b600060ff82169050919050565b82818337600083830152505050565b60005b83811015613af4578082015181840152602081019050613ad9565b83811115613b03576000848401525b50505050565b60006002820490506001821680613b2157607f821691505b60208210811415613b3557613b34613b74565b5b50919050565b6000819050919050565b7f4e487b7100000000000000000000000000000000000000000000000000000000600052601160045260246000fd5b7f4e487b7100000000000000000000000000000000000000000000000000000000600052602260045260246000fd5b7f4e487b7100000000000000000000000000000000000000000000000000000000600052604160045260246000fd5b6000601f19601f8301169050919050565b613bec81613a3c565b8114613bf757600080fd5b50565b613c0381613a4e565b8114613c0e57600080fd5b50565b613c1a81613a64565b8114613c2557600080fd5b50565b613c3181613ab0565b8114613c3c57600080fd5b5056fea264697066735822122013678400144c85f8d047fb604cdb61d691872b9271e98aa29606b70ff6bef28964736f6c63430008000033",
  "linkReferences": {},
  "deployedLinkReferences": {}
}